:020000040000FA
:1000000080311428080008007E1480318B1A0B1DE3
:100010000D288931D621803112288B190B1C12280A
:10002000893151217E100900803116288F308400DB
:100030008A308500443086000130870020308931C5
:100040006321803140308400003085001F308931C9
:100050005D2180312100EC01ED01EE01EF01203046
:10006000840001308500243089315D217E1020001C
:100070008631A32E200023088039F9007908A800D2
:100080002335F9007908AE00A21B2E142E0803199F
:1000900056282E0A031D54280030A3000030A20069
:1000A0000030A1000030A000A2175E280030A3009D
:1000B0000030A2000030A1000030A00027088039E5
:1000C000F9007908A8062735F9007908AD00A61BC4
:1000D0002D142D08031979282D0A031D77280030C7
:1000E000A7000030A6000030A5000030A400A6172D
:1000F00081280030A7000030A6000030A5000030A5
:10010000A4002D08031D2E08031D8F280030A30016
:100110000030A2000030A1000030A000080020083C
:10012000F9007908F00026088A31702280317108C0
:100130002000B4007008B3003308F900FA01FB0195
:10014000FC017C08AC007B08AB007A08AA007908A7
:10015000A9003408F900FA01FB01FC017C08B20097
:100160007B08B1007A08B0007908AF002108F900D7
:100170007908F00025088A3170228031710820004A
:10018000B4007008B3003308F900FA01FB01FC0168
:100190007908A9077A08AA3D7B08AB3D7C08AC3DED
:1001A0003408F900FA01FB01FC017908AF077A086D
:1001B000B03D7B08B13D7C08B23D2208F9007908CA
:1001C000F00024088A317022803171082000B400C8
:1001D0007008B3003308F900FA01FB01FC0179084B
:1001E000A9077A08AA3D7B08AB3D7C08AC3D3408E2
:1001F000F900FA01FB01FC017908AF077A08B03D6C
:100200007B08B13D7C08B23D0830A935AA0DAB0D85
:10021000AC0D890B05292108F9007908F0002408A4
:100220008A317022803171082000B4007008B30058
:100230003308A9073408AA3D0030AB3DAC3D200887
:10024000F9007908F00025088A31702280317108A0
:100250002000B4007008B3003308A9073408AA3D91
:100260000030AB3DAC3D0830A935AA0DAB0DAC0D4F
:10027000890B34292008F9007908F00024088A3114
:100280007022803171082000B4007008B300330878
:10029000A9073408AA3D0030AB3DAC3D2108F90068
:1002A0007908F00026088A31702280317108200018
:1002B000B4007008B3003308AF073408B03D003015
:1002C000B13DB23D2208F9007908F00025088A31D5
:1002D0007022803171082000B4007008B300330828
:1002E000AF073408B03D0030B13DB23D2208F900FF
:1002F0007908F00026088A317022803171082000C8
:10030000B4007008B3003308F9003408FA00FB01A8
:10031000FC010830F935FA0DFB0DFC0D890B8A291B
:100320007908AF077A08B03D7B08B13D7C08B23D43
:100330002908F9002A08FA002B08FB002C08FC0009
:100340001830FC36FB0CFA0CF90C890BA129790842
:10035000AF077A08B03D7B08B13D7C08B23D08305C
:10036000A935AA0DAB0DAC0D890BB0292E082D07B0
:10037000F900FA01FA0D7908823EB300FF307A3DA8
:10038000B400B11BD8290130AF35B00DB10DB20D9D
:10039000890BC429AC1B2F140130A935AA0DAB0D54
:1003A000AC0D890BCD29FF30B307FF30B43DC12917
:1003B000AD01AC1FF129FF302905F900FF302A05F6
:1003C000FA00FF302B05FB007F302C05FC007C0879
:1003D0007B047A04790403192F18EF29F129AD0160
:1003E000AD0A2D0803191A2A0130AF070030B03DBD
:1003F0000030B13D0030B23D321C1A2A2F08F900FE
:100400003008FA003108FB003208FC000130FD0022
:10041000FC37FB0CFA0CF90CFD0B082A7C08B20027
:100420007B08B1007A08B0007908AF000130B3074B
:100430000030B43D3408803AF90080307902031D61
:10044000232AFF303302031C2F2A7F302000B20002
:100450008030B1000030B0000030AF00592A2000D9
:100460003408803AF90080307902031D392A0130BE
:1004700033020318462A00302000B2000030B100D9
:100480000030B0000030AF00A801592A2000330826
:10049000F9007908AE00FF30AF05FF30B0057F30BE
:1004A000B1050030B2052E18B1172E36F9007908C3
:1004B000B2002808F9007908B2043208A300310814
:1004C000A2003008A1002F08A0000800730880399E
:1004D0002000A0002008F8007335A0002008FA00D2
:1004E000F21B7A147A080319832A7A0A031D802AD8
:1004F0000030F3000030F2000030F1000030F00076
:10050000F217F3018B2A0030F3000030F2000030C4
:10051000F1000030F00077088039A0002008F900D1
:1005200079087806031D78177735A0002008F900B0
:10053000F61B791479080319AB2A790A031DA82A36
:100540000030F7000030F6000030F5000030F40015
:10055000F617F701B32A0030F7000030F60000303C
:10056000F5000030F4007A0879020318F92A781FA0
:10057000BD2A8030A0002008F8067A08A0002008D4
:10058000FB007908A0002008FA007B08A0002008E2
:10059000F9007008A0002008FB007408A0002008E3
:1005A000F0007B08A0002008F4007108A0002008DB
:1005B000FB007508A0002008F1007B08A0002008BF
:1005C000F5007208A0002008FB007608A0002008B3
:1005D000F2007B08A0002008F6007308A0002008A5
:1005E000FB007708A0002008F3007B08A00020088B
:1005F000F700FB017908A000A1012108A3007A08F7
:100600002002A200031CA3032308803AA400803028
:100610002402031D0D2B1A302202031C432B7308E6
:100620007204710470040319172B0130182B003069
:100630002000A0002008FB000030F3000030F20092
:100640000030F1000030F0007908A0002008FA0026
:10065000472B7B1C322B7B3601382000A000200862
:10066000FB00342B0310FB0C7018FB17013020002B
:10067000A000F337F20CF10CF00CA00B392B013079
:10068000A0002008FA0779087A02031C292B781B9E
:100690007A2B7A08031D552B0030F3000030F2004E
:1006A0000030F1000030F00008007408F007750811
:1006B000F13D7608F23D7708F33D731CF52B7B1C6A
:1006C000682B7B3601382000A0002008FB006A2B35
:1006D0000310FB0C7018FB1701302000A000F3374B
:1006E000F20CF10CF00CA00B6F2B0130A0002008D5
:1006F000FA07F52B7308803A2000A0007708803AAB
:100700002002031D8D2B76087202031D8D2B7508A8
:100710007102031D8D2B740870020318C52BFF3066
:10072000A000FF30A100FF30A200FF30A30070083E
:100730007402A4007108753BA5007208763BA60000
:100740007308773BA7002408A0072508A13D2608C9
:10075000A23D2708A33D2308F3002208F200210848
:10076000F1002008F0008030A0002008F806FB0906
:10077000FB0A7B08031DCD2B0130F0070030F13D53
:100780000030F23D0030F33DCD2B7408F0027508C7
:10079000F13B7608F23B7708F33B7308720471046F
:1007A0007004031DF32B7B08031DF32B0030F300B3
:1007B0000030F2000030F1000030F000080001309D
:1007C000F035F10DF20DF30D890BE02BFB1B7014CE
:1007D0007B1CEC2B0314ED2B0310FB0D7A08031983
:1007E000F32B0130FA02F21FDF2BF901FB1F002C63
:1007F0007B087F3903197018FE2B002CF901F90AC8
:10080000790803192D2C0130F0070030F13D00303C
:10081000F23D0030F33D731C2D2C70082000A00029
:100820007108A1007208A2007308A3000130A4009F
:10083000A337A20CA10CA00CA40B182C2308F300C6
:100840002208F2002108F1002008F0007A0A0319BA
:100850002D2C0130A0002008FA077A0A031D7A081F
:10086000031D3D2C0030F3000030F2000030F10099
:100870000030F0007A080319F8017A1C412CF217B5
:10088000462C7F302000A0002008F2057A36200098
:10089000A0002008F300F81F0800F317080021004B
:1008A000C9003C08D0003D08D1003E08D2003F08F6
:1008B000D3004008D4004108D5004208D6004308C0
:1008C000D700D030860000308700473FC400C41FE7
:1008D0006B2C01306C2C00302100C500C60145088E
:1008E000CE004608CF004E084F040319952CD009BE
:1008F000D109D209D309D409D509D609D709D00A13
:10090000031D952CD10A031D952CD20A031D952C8D
:10091000D30A031D952CD40A031D952CD50A031D5B
:10092000952CD60A031D952CD70A2100ED1B9C2C73
:10093000FD30EE05FF30EF056D08803AC4008030D1
:100940004402031DA52C01306C020318AD2C0130AC
:100950002100CA000030CB00B22C21006D08CB0072
:100960006C08CA0020004F082100CD0020004E086E
:100970002100CC004E084F04031DC02C6E1DC42C5A
:10098000FF30CC07FF30CD3D1F30D8000030D900FC
:100990002200C301592D2100500851045204530470
:1009A0005404550456045704031DF02C4B08803A98
:1009B000C40080304402031DDF2C01304A020318BA
:1009C000F02C21004D08803AC40080304402031D01
:1009D000EB2C01304C02031C652D2100EE1C652D13
:1009E000FF302100D807FF30D93D0A30A000A10117
:1009F000A201A301A401A501A601A7015008A80016
:100A00005108A9005208AA005308AB005408AC00D2
:100A10005508AD005608AE005708AF008E312A26A3
:100A2000843121002108B4002008B3008A31232238
:100A3000843121003308303EC4005808243E86002B
:100A40000130870044088100FF30CA07FF30CB3DEA
:100A5000FF30CC07FF30CD3D0A30A000A101A2013C
:100A6000A301A401A501A601A7015008A8005108EF
:100A7000A9005208AA005308AB005408AC0055085E
:100A8000AD005608AE005708AF008F3109278431FA
:100A900021002008D0002108D1002208D20023081C
:100AA000D3002408D4002508D5002608D60027083E
:100AB000D70021005908803AC40080304402031D49
:100AC000632D013058020318CB2C21004E084F042F
:100AD000031D6C2D6E1D832DFF30D807FF30D93DCF
:100AE0004E084F04031D762D2B30772D2D30C70077
:100AF0000030C8004708C4005808243E8600013072
:100B00008700440881005808243EC4004408B3000C
:100B10004D08B5004C08B400490887319B272100D7
:100B20003408BD003308BC0008002100EB005A085F
:100B3000860001308700403FDC00413FDD005C085B
:100B400084005D0885001200253A031D7E2E5A0898
:100B50008600013087000130810741310318810A86
:100B60002000CE01CF012100EE01EF01FF30EC00AB
:100B7000FF30ED005A08860001308700403FDC005E
:100B8000413FDD005C0884005D0885001200643A86
:100B90000319DA2D5A08860001308700403FDC0037
:100BA000413FDD005C0884005D0885001200693A61
:100BB000031D172E5A088600013087000130810777
:100BC00041310318810A5B08860001308700010863
:100BD00084000130850002308107003FDC00013FC6
:100BE000DD005C08E1005D08E200890D893B8909B0
:100BF000E300E400E500E600E700E8006108BC006F
:100C00006208BD006308BE006408BF006508C0003C
:100C10006608C1006708C2006808C3006B08843119
:100C20004F2421003D08DB003C08DA0008005A0888
:100C3000860001308700403FDC00413FDD005C085A
:100C400084005D08850012006E3A031D4B2E5A0881
:100C50008600013087000130810741310318810A85
:100C60005B088600013087000108840001308500A0
:100C700002308107003FE900013FEA006908860071
:100C80006A08870020004C08C03F4D08C13F210082
:100C9000DA01DB0108005A08860001308700403F76
:100CA000DC00413FDD005C0884005D088500120027
:100CB000253A031D742E5A08860001308700013042
:100CC000810741310318810A2530A2000030A300BA
:100CD0006B08DC005C08A4008B31D22301302100BA
:100CE000DA000030DB0008005A0886000130870077
:100CF0000130810741310318810A472E5A088600C6
:100D000001308700403FDC00413FDD005C0884008B
:100D10005D0885000008DE00DF015E08A2005F08B4
:100D2000A3006B08E0006008A4008B31D22385315A
:100D300021005A08860001308700013081074131C7
:100D40000318810A6E2E8931AF2186317C308931BA
:100D5000A52186310D308931A5218631EE30210063
:100D6000A0000730A10089319C21863190302100FC
:100D7000A0000D30A1008931932186318931702185
:100D800086312100A10101308B31952386315C3001
:100D90008931F62186312100A10102308B31952362
:100DA000863151308931F62186312100A10103308D
:100DB0008B319523863144308931F62186312100EB
:100DC000A10104308B31952386318B170B17073027
:100DD0002300AE002E082100A10001308B319523A5
:100DE0008631200047082100A3002000460821008A
:100DF000A200200045082100A10020004408210095
:100E0000A0008C3112248631210021082000D50059
:100E1000210020082000D400DE1B202F5E08031DC7
:100E20001A2F5D08031D1A2F89305B0213305C3BBB
:100E3000031C202F0D302300A6009030A7002D2F7B
:100E400000302300A6009030A700200055082300A2
:100E5000A900200054082300A8008931E52186312B
:100E60000A302300AE002E082100A10002308B3191
:100E700095238631200043082100A300200042086A
:100E80002100A200200041082100A100200040080C
:100E90002100A0008C31122486312100210820007D
:100EA000D300210020082000D20019302300A60022
:100EB0009030A700200053082300A900200052080A
:100EC0002300A8008931E52186310D302300AE00D2
:100ED0002E082100A10003308B319523863122009A
:100EE00023082100A300220022082100A2002200E2
:100EF00021082100A100220020082100A0008C313F
:100F000012248631210021082000D1002100200870
:100F10002000D00023302300A6009030A70020003E
:100F200051082300A900200050082300A80089319F
:100F3000E5218631E72E2100BB006E1CAA2F330865
:100F4000AA000130AB003B08B6003608AC008A317D
:100F5000D42287312100B51BB22F3508BA003408DE
:100F6000B900B42FB901BA01B701B8013808803A05
:100F7000B6003A08803A3602031DC02F39083702FE
:100F80000318D42F20302100A2000030A3003B081A
:100F9000B6003608A4008B31D223873101302100FE
:100FA000B7070030B83DB62F21006E18E22F330886
:100FB000AA000130AB003B08B6003608AC008A310D
:100FC000D4228731210033088A313C22210039089C
:100FD0002007B3003A08213DB4000800013020008A
:100FE000DB070030DC3D0030DD3D0030DE3D013010
:100FF000C8070030C93D0030CA3D0030CB3D080075
:1012A2002700991F08008931BB2108002100A100F5
:1012B20021088931A5210800640080010131890BD0
:1012C2005E290034FE0012001E00FE0B6429003469
:1012D2007A302100990098012200960108002D30F1
:1012E2002100B3009030B4008A3155220800210059
:1012F20021082200E900210020082200E80008005D
:10130200210021082200ED00210020082200EC002B
:101312000800210021082200EB0021002008220001
:10132200EA000800210021082200E700210020082D
:101332002200E6000800210021082200E500210029
:1013420020082200E40008002100A0002000101E56
:10135200A7292100200823009A0008008B312D23A1
:1013620089318931692189318A310B2289318A3166
:10137200AF2208002200660867040319C52967081E
:101382008A0066080A0089312700991308002100A3
:10139200A0012000101ED32923009E1ED329210064
:1013A200A001A00A2100200808000B1120005F08FC
:1013B20095002200640865040319080065088A0084
:1013C20064080A0089310800A8302300AA002A080C
:1013D200AD002708A1002608A000AD30AA002A0807
:1013E200A20000308B31602308002100B80089314F
:1013F200C8218931003A0319F82921003808B300BD
:101402000130B4008A3155228931A0300032890B73
:10141200072A080021001508C039143895008330C6
:101422002000950083302100A20022082000DF0066
:101432000B118B1603302100A0000030A10089316E
:101442009C21080021003408803AB5008030350222
:10145200031D2D2A0130330203180800210033092D
:10146200B5003409B600B50A0319B60A3508B30047
:101472003608B40008002100A4002408A2002208B3
:10148200A3002408860001308700010803194E2AB0
:101492000130A2002208A407422A23082402A00045
:1014A200A101A01BA10308002100B701B70A34085B
:1014B200AB003308AA00AC018A31D4228A31210060
:1014C200AB1B08000A30A2000030A300A4018B313C
:1014D200D2238A312100A31B0800B7010800F800BB
:1014E200F401F5017008F200F3017208F6007308C6
:1014F200F700781C802A7608F4077708F53D01305A
:10150200F635F70D890B812A0310F80C7808031DB4
:101512007A2A7508F1007408F0000800483465342E
:101522006134723474342034523461347434653426
:101532003A342034003444346934733474346134BA
:101542006E34633465343A342034003453347034A6
:101552006534653464343A3420340034083023006E
:101562009F0080309D0024309E00A0309B000130FF
:101572009C0000302100A0000030A10089318121AF
:101582008A3100302100A0000030A10089318A2177
:101592008A3100302100A0000030A1008931782179
:1015A2002000D60108002100B101B2012A0831074A
:1015B20084002B08323D85000008AD002D08B000E4
:1015C20030080319F82A3008AD00AE012D08A20038
:1015D2002E08A3002C08AF002F08A4008B31D223C1
:1015E2008A3101302100B1070030B23DD72A3208DA
:1015F200AB003108AA0008000030FC000030FB00FC
:101602000030FA000030F9002000261C102B2A08B6
:10161200F9072B08FA3D2C08FB3D2D08FC3D013053
:10162200AA35AB0DAC0DAD0D890B112B0130A936CE
:10163200A80CA70CA60C890B182B29082804270430
:101642002604031D052B7C08A9007B08A8007A0844
:10165200A7007908A600080022008C018D018E01E6
:10166200373021008C0070308D00FF308E004F30FB
:1016720023008E0070308D0017308C0024008D0105
:101682008C018E012100951725008C018D018E01A0
:10169200373026008C00F0308D00FF308E0027009E
:1016A20099139813971702302100A0000030A1006F
:1016B200893193218B1512303D009F0008002300D1
:1016C200A3002108A5002008A4002000CC01CD0120
:1016D20023002408840025088500120003198C2B9E
:1016E200A4302200EE006E082100DA002300220856
:1016F2002200EF006F082100DB0023002308853160
:1017020095258B3121005A082000CC0721005B0867
:101712002000CD3D692B20004D082300A1002000B0
:101722004C082300A00008002100A4008931C82130
:101732008B31003A0319972BFE308931A5218B3169
:10174200A0300032890BA22BBA2B2108803E8931AE
:10175200A52108002108C03E8931A52108002108E1
:10176200943E8931A52108002108D43E8931A52162
:10177200080021002408A200A3012308003A03194B
:10178200C32BD12B2208013A0319A62B033A0319C2
:10179200AB2B013A0319B02B073A0319B52BD12B06
:1017A200080021002408031D2408031DDD2B220844
:1017B200893157218B31092C2408033E8600870189
:1017C200160001040319002C2408033E8600870139
:1017D200403FA500413FA600240A86008701403F02
:1017E200A700413FA8002808803AA9002608803AAD
:1017F2002902031DFE2B250827020318092C2100AC
:10180200240A860087010130810741310318810AC9
:1018120021002208A500A6012508A2002608A3008F
:10182200080003102100220D230DA4002408AA00A1
:101832002A08031D252C0030A3000030A20000302E
:10184200A1000030A00008002008A4002108A50083
:101852002208A6002308A7001F30A736A60CA50C55
:10186200A40C890B2E2C2408A8002808A900A21772
:10187200FF30A005FF30A105FF30A2050030A3050F
:101882009630AA02AA1F582C2A08803A973E031CB7
:101892001C2C0130A336A20CA10CA00C890B4B2CE2
:1018A2000130A4002408AA070319692C4A2C20300D
:1018B2002A0203181C2C2A080319692C0130A035AE
:1018C200A10DA20DA30D890B602C0130AA025C2C84
:1018D200290803190800A009A109A209A309A00A5D
:1018E2000319A10A0319A20A0319A30A0800200076
:1018F200A101F31F892CF009F109F209F309F00A99
:101902000319F10A0319F20A0319F30AA101A10A40
:10191200F71F9A2CF409F509F609F709F40A0319D5
:10192200F50A0319F60A0319F70A0130F8007808D4
:10193200A1060030A5000030A4000030A300003052
:10194200A20073087204710470040319E32CA0014D
:10195200A00AF31BB82C0130F035F10DF20DF30D96
:10196200890BAD2C0130F8007808A007AA2C0130B1
:10197200A235A30DA40DA50D890BB92C730877020E
:10198200031DCD2C72087602031DCD2C7108750241
:10199200031DCD2C70087402031CD82C7008F402AD
:1019A2007108F53B7208F63B7308F73B22140130CD
:1019B200F336F20CF10CF00C890BD92C0130A00299
:1019C200031DB82C21080319F12CA209A309A409AB
:1019D200A509A20A0319A30A0319A40A0319A50A4D
:1019E2002508F3002408F2002308F1002208F00081
:1019F20008002000B6003608031DB11F102D2E0965
:101A0200B8002F09B9003009BA003109BB00B80A81
:101A12000319B90A0319BA0A0319BB0A182D3108A6
:101A2200BB003008BA002F08B9002E08B8003108F0
:101A320030042F042E04031D272D0030B100003086
:101A4200B0000030AF000030AE0008009630B200A7
:101A52003208B700FE303B0503194E2D0130B200AB
:101A62003208B7070130BB36BA0CB90CB80C890B77
:101A7200342D2B2D0130B2003208B7070130B807E0
:101A82000030B93D0030BA3D0030BB3D0130BB36BD
:101A9200BA0CB90CB80C890B482DFF303B05031961
:101AA200602D3B2D02303702031C622D0130B7023C
:101AB2000130B835B90DBA0DBB0D890B5A2DBA1FBD
:101AC200532D37186C2DFF30B805FF30B9057F3024
:101AD200BA05FF30BB050310B70C3708B200B301DB
:101AE200B401B5011830B235B30DB40DB50D890B83
:101AF200742D3208B8043308B9043408BA0435081E
:101B0200BB043608031DB11F872DBB173B08B1006C
:101B12003A08B0003908AF003808AE0008000030BB
:101B22002000AD000030AC000030AB003C30AA0019
:101B32000030F7000030F6000330F500E830F40022
:101B42005E08F3005D08F2005C08F1005B08F0003B
:101B52008C3178248D3173082000A9007208A80006
:101B62007108A7007008A6008A31FD228D3120007D
:101B72002908B1002808B0002708AF002608AE00E7
:101B820001308C31FA248D3120003108DA0030081E
:101B9200D9002F08D8002E08D7004030A30000300B
:101BA200A2000030A1000030A0005A08A700590886
:101BB200A6005808A5005708A40080313A208D31AC
:101BC20020002308BF002208BE002108BD00200813
:101BD200BC003D30A3007530A200C230A1008F309E
:101BE200A0003F08A7003E08A6003D08A5003C084B
:101BF200A40080313A208D3120002308C70022083A
:101C0200C6002108C5002008C4000030DE000030F4
:101C1200DD000030DC000030DB004030F30000303B
:101C2200F2000030F1000030F0004308F7004208F3
:101C3200F6004108F5004008F4008231662273087C
:101C42002000C3007208C2007108C1007008C00001
:101C520008002100B201A830860000308700473F0B
:101C6200B000B01F562E2100A809A909AA09AB0984
:101C7200AC09AD09AE09AF09A80A031D532EA90A82
:101C8200031D532EAA0A031D532EAB0A031D532E06
:101C9200AC0A031D532EAD0A031D532EAE0A031DBB
:101CA200532EAF0A2100B201B20AA03086000030E2
:101CB2008700473F2100B000B01F7E2E2100A009FF
:101CC200A109A209A309A409A509A609A709A00AAD
:101CD200031D7E2EA10A031D7E2EA20A031D7E2E47
:101CE200A30A031D7E2EA40A031D7E2EA50A031D30
:101CF2007E2EA60A031D7E2EA70A2100200821049B
:101D02002204230424042504260427040319D62EBE
:101D1200B101B10AA71B9A2EA035A10DA20DA30DE8
:101D2200A40DA50DA60DA70D0130B0003008B10716
:101D32008B2E27082F02031DB82E26082E02031D04
:101D4200B82E25082D02031DB82E24082C02031DCF
:101D5200B82E23082B02031DB82E22082A02031DC7
:101D6200B82E21082902031DB82E20082802031CC0
:101D7200CA2E2008A8022108A93B2208AA3B230850
:101D8200AB3B2408AC3B2508AD3B2608AE3B2708FD
:101D9200AF3BA736A60CA50CA40CA30CA20CA10C5D
:101DA200A00C0130B102031D9A2E32080319F72E3E
:101DB200A809A909AA09AB09AC09AD09AE09AF097D
:101DC200A80A031DF72EA90A031DF72EAA0A031D4E
:101DD200F72EAB0A031DF72EAC0A031DF72EAD0A30
:101DE200031DF72EAE0A031DF72EAF0A21002808A5
:101DF200A0002908A1002A08A2002B08A3002C0891
:101E0200A4002D08A5002E08A6002F08A700080090
:101E12002100B201A030860000308700473FB000A9
:101E2200B01F352F2100A009A109A209A309A40905
:101E3200A509A609A709A00A031D322FA10A031D9D
:101E4200322FA20A031D322FA30A031D322FA40A26
:101E5200031D322FA50A031D322FA60A031D322F9E
:101E6200A70A2100B201B20AA8308600003087001A
:101E7200473F2100B000B01F622F2100A809A90925
:101E8200AA09AB09AC09AD09AE09AF09A80A031D3D
:101E92005D2FA90A031D5D2FAA0A031D5D2FAB0A40
:101EA200031D5D2FAC0A031D5D2FAD0A031D5D2FBF
:101EB200AE0A031D5D2FAF0A01302100B0003008C9
:101EC200B206B33086000030870008302100B0002F
:101ED20000301E00B00B6A2F2008210422042304C4
:101EE20024042504260427040319CD2FB101B10AC5
:101EF200A71B882FA035A10DA20DA30DA40DA50D22
:101F0200A60DA70D0130B0003008B107792FB33507
:101F1200B40DB50DB60DB70DB80DB90DBA0D270834
:101F22002F02031DAE2F26082E02031DAE2F2508F9
:101F32002D02031DAE2F24082C02031DAE2F2308F1
:101F42002B02031DAE2F22082A02031DAE2F2108E9
:101F52002902031DAE2F20082802031CC12F2008CE
:101F6200A8022108A93B2208AA3B2308AB3B24086C
:101F7200AC3B2508AD3B2608AE3B2708AF3B3314EC
:101F8200A736A60CA50CA40CA30CA20CA10CA00CA9
:101F92000130B102031D882F32080319EE2FB30955
:101FA200B409B509B609B709B809B909BA09B30A32
:101FB200031DEE2FB40A031DEE2FB50A031DEE2FEB
:101FC200B60A031DEE2FB70A031DEE2FB80A031D32
:101FD200EE2FB90A031DEE2FBA0A21003308A00022
:101FE2003408A1003508A2003608A3003708A4006F
:101FF2003808A5003908A6003A08A70008002534C9
:10200200643420346B346D3468342034203420340A
:102012002034203420340034303420346B346D3496
:1020220068342034203420342034203420340034E6
:102032002534643420346D34203420342034203468
:1020420020340034253464342034623470346D34E6
:0E20520020342034203400347C342D3400340B
:020000040001F9
:06000E00FC3FFF1E9F3FB6
:00000001FF
