:020000040000FA
:1000000080311428080008007E1480318B1A0B1DE3
:100010000D288A31A522803112288B190B1C122839
:100020008A3130227E100900803116286D3084001C
:100030008B308500403086000130870020308A31C7
:1000400042228031403084000030850017308A31F0
:100050003C2280312100EE01EF012030840001308C
:10006000850020308A313C227E1020008C31EE2C1D
:10007000200023088039F9007908A8002335F90009
:100080007908AE00A21B2E142E08031954282E0A3C
:10009000031D52280030A3000030A2000030A10050
:1000A0000030A000A2175C280030A3000030A2009E
:1000B0000030A1000030A00027088039F90079083D
:1000C000A8062735F9007908AD00A61B2D142D08C8
:1000D000031977282D0A031D75280030A70000306A
:1000E000A6000030A5000030A400A6177F2800302D
:1000F000A7000030A6000030A5000030A4002D08A5
:10010000031D2E08031D8D280030A3000030A2001F
:100110000030A1000030A00008002008F900790894
:10012000F00026088B314E23803171082000B40086
:100130007008B3003308F900FA01FB01FC017C08E8
:10014000AC007B08AB007A08AA007908A900340843
:10015000F900FA01FB01FC017C08B2007B08B10048
:100160007A08B0007908AF002108F9007908F0009A
:1001700025088B314E23803171082000B4007008AF
:10018000B3003308F900FA01FB01FC017908A90763
:100190007A08AA3D7B08AB3D7C08AC3D3408F900E9
:1001A000FA01FB01FC017908AF077A08B03D7B0832
:1001B000B13D7C08B23D2208F9007908F00024081E
:1001C0008B314E23803171082000B4007008B300D9
:1001D0003308F900FA01FB01FC017908A9077A0844
:1001E000AA3D7B08AB3D7C08AC3D3408F900FA0120
:1001F000FB01FC017908AF077A08B03D7B08B13DEF
:100200007C08B23D0830A935AA0DAB0DAC0D890BA9
:1002100003292108F9007908F00024088B314E23C6
:10022000803171082000B4007008B3003308A907BA
:100230003408AA3D0030AB3DAC3D2008F9007908F8
:10024000F00025088B314E23803171082000B40066
:100250007008B3003308A9073408AA3D0030AB3D4D
:10026000AC3D0830A935AA0DAB0DAC0D890B322978
:100270002008F9007908F00024088B314E238031E2
:1002800071082000B4007008B3003308A9073408CF
:10029000AA3D0030AB3DAC3D2108F9007908F000E3
:1002A00026088B314E23803171082000B40070087D
:1002B000B3003308AF073408B03D0030B13DB23D64
:1002C0002208F9007908F00025088B314E2380318F
:1002D00071082000B4007008B3003308AF07340879
:1002E000B03D0030B13DB23D2208F9007908F00080
:1002F00026088B314E23803171082000B40070082D
:10030000B3003308F9003408FA00FB01FC0108309F
:10031000F935FA0DFB0DFC0D890B88297908AF071B
:100320007A08B03D7B08B13D7C08B23D2908F90050
:100330002A08FA002B08FB002C08FC001830FC36B9
:10034000FB0CFA0CF90C890B9F297908AF077A0886
:10035000B03D7B08B13D7C08B23D0830A935AA0DFF
:10036000AB0DAC0D890BAE292E082D07F900FA0153
:10037000FA0D7908823EB300FF307A3DB400B11B1C
:10038000D6290130AF35B00DB10DB20D890BC229A0
:10039000AC1B2F140130A935AA0DAB0DAC0D890B88
:1003A000CB29FF30B307FF30B43DBF29AD01AC1FEF
:1003B000EF29FF302905F900FF302A05FA00FF3048
:1003C0002B05FB007F302C05FC007C087B047A04A5
:1003D000790403192F18ED29EF29AD01AD0A2D0875
:1003E0000319182A0130AF070030B03D0030B13D8D
:1003F0000030B23D321C182A2F08F9003008FA00EC
:100400003108FB003208FC000130FD00FC37FB0C1A
:10041000FA0CF90CFD0B062A7C08B2007B08B1002F
:100420007A08B0007908AF000130B3070030B43D5E
:100430003408803AF90080307902031D212AFF3008
:100440003302031C2D2A7F302000B2008030B1001F
:100450000030B0000030AF00572A20003408803A46
:10046000F90080307902031D372A01303302031866
:10047000442A00302000B2000030B1000030B0004B
:100480000030AF00A801572A20003308F90079088E
:10049000AE00FF30AF05FF30B0057F30B105003052
:1004A000B2052E18B1172E36F9007908B2002808C7
:1004B000F9007908B2043208A3003108A20030081C
:1004C000A1002F08A0000800730880392000A000B8
:1004D0002008F8007335A0002008FA00F21B7A14F7
:1004E0007A080319812A7A0A031D7E2A0030F30054
:1004F0000030F2000030F1000030F000F217F3019C
:10050000892A0030F3000030F2000030F1000030A2
:10051000F00077088039A0002008F90079087806F3
:10052000031D78177735A0002008F900F61B791411
:1005300079080319A92A790A031DA62A0030F700B1
:100540000030F6000030F5000030F400F617F70137
:10055000B12A0030F7000030F6000030F50000301E
:10056000F4007A0879020318F72A781FBB2A803032
:10057000A0002008F8067A08A0002008FB007908EF
:10058000A0002008FA007B08A0002008F9007008ED
:10059000A0002008FB007408A0002008F0007B08E1
:1005A000A0002008F4007108A0002008FB007508D6
:1005B000A0002008F1007B08A0002008F5007208C8
:1005C000A0002008FB007608A0002008F2007B08AD
:1005D000A0002008F6007308A0002008FB007708A0
:1005E000A0002008F3007B08A0002008F700FB0112
:1005F0007908A000A1012108A3007A082002A20026
:10060000031CA3032308803AA40080302402031DA6
:100610000B2B1A302202031C412B73087204710445
:1006200070040319152B0130162B00302000A00098
:100630002008FB000030F3000030F2000030F10031
:100640000030F0007908A0002008FA00452B7B1C40
:10065000302B7B3601382000A0002008FB00322B15
:100660000310FB0C7018FB1701302000A000F337BB
:10067000F20CF10CF00CA00B372B0130A00020087D
:10068000FA0779087A02031C272B781B782B7A0843
:10069000031D532B0030F3000030F2000030F10056
:1006A0000030F00008007408F0077508F13D760886
:1006B000F23D7708F33D731CF32B7B1C662B7B36D6
:1006C00001382000A0002008FB00682B0310FB0C61
:1006D0007018FB1701302000A000F337F20CF10C6A
:1006E000F00CA00B6D2B0130A0002008FA07F32BB3
:1006F0007308803A2000A0007708803A2002031D8A
:100700008B2B76087202031D8B2B75087102031D5B
:100710008B2B740870020318C32BFF30A000FF302E
:10072000A100FF30A200FF30A30070087402A400F3
:100730007108753BA5007208763BA6007308773BED
:10074000A7002408A0072508A13D2608A23D2708E8
:10075000A33D2308F3002208F2002108F10020083D
:10076000F0008030A0002008F806FB09FB0A7B0897
:10077000031DCB2B0130F0070030F13D0030F23D7E
:100780000030F33DCB2B7408F0027508F13B76087E
:10079000F23B7708F33B7308720471047004031D85
:1007A000F12B7B08031DF12B0030F3000030F20029
:1007B0000030F1000030F00008000130F035F10D9C
:1007C000F20DF30D890BDE2BFB1B70147B1CEA2B47
:1007D0000314EB2B0310FB0D7A080319F12B0130E6
:1007E000FA02F21FDD2BF901FB1FFE2B7B087F397C
:1007F00003197018FC2BFE2BF901F90A790803196B
:100800002B2C0130F0070030F13D0030F23D00307C
:10081000F33D731C2B2C70082000A0007108A10070
:100820007208A2007308A3000130A400A337A20C31
:10083000A10CA00CA40B162C2308F3002208F20034
:100840002108F1002008F0007A0A03192B2C01304E
:10085000A0002008FA077A0A031D7A08031D3B2C22
:100860000030F3000030F2000030F1000030F00002
:100870007A080319F8017A1C3F2CF217442C7F30B8
:100880002000A0002008F2057A362000A0002008F1
:10089000F300F81F0800F31708002100C9003C0806
:1008A000D0003D08D1003E08D2003F08D3004008E8
:1008B000D4004108D5004208D6004308D700D03004
:1008C000860000308700473FC400C41F692C0130F8
:1008D0006A2C00302100C500C6014508CE0046083C
:1008E000CF004E084F040319932CD009D109D20927
:1008F000D309D409D509D609D709D00A031D932CE9
:10090000D10A031D932CD20A031D932CD30A031D75
:10091000932CD40A031D932CD50A031D932CD60ABD
:10092000031D932CD70A2000D11B9B2CFD302100E6
:10093000EE05FF30EF0520005108803A2100C40089
:1009400080304402031DA72C013020005002031800
:10095000AF2C01302100CA000030CB00B72C2000A2
:1009600051082100CB00200050082100CA002000BF
:100970004F082100CD0020004E082100CC004E0879
:100980004F04031DC52C6E1DC92CFF30CC07FF3052
:10099000CD3D1F30D8000030D9002200BF015E2DB0
:1009A00021005008510452045304540455045604C1
:1009B0005704031DF52C4B08803AC40080304402D4
:1009C000031DE42C01304A020318F52C21004D08C8
:1009D000803AC40080304402031DF02C01304C02E8
:1009E000031C6A2D2100EE1C6A2DFF302100D80760
:1009F000FF30D93D0A30A000A101A201A301A4014A
:100A0000A501A601A7015008A8005108A900520895
:100A1000AA005308AB005408AC005508AD005608B6
:100A2000AE005708AF008F31212784312100210803
:100A3000B4002008B3008B31012384312100330836
:100A4000303EC4005808203E86000130870044082C
:100A50008100FF30CA07FF30CB3DFF30CC07FF30AD
:100A6000CD3D0A30A000A101A201A301A401A5016E
:100A7000A601A7015008A8005108A9005208AA0021
:100A80005308AB005408AC005508AD005608AE0042
:100A90005708AF008631AA26843121002008D000F3
:100AA0002108D1002208D2002308D3002408D40052
:100AB0002508D5002608D6002708D70021005908A8
:100AC000803AC40080304402031D682D0130580272
:100AD0000318D02C21004E084F04031D712D6E1DEC
:100AE000882DFF30D807FF30D93D4E084F04031D35
:100AF0007B2D2B307C2D2D30C7000030C8004708DF
:100B0000C4005808203E8600013087004408810058
:100B10005808203EC4004408B3004D08B5004C08F6
:100B2000B40049088731A12721003408BD003308EB
:100B3000BC0008002100EB005A0886000130870045
:100B4000403FDC00413FDD005C0884005D0885001B
:100B50001200253A031D852E5A08860001308700B1
:100B60000130810741310318810A2000CE01CF01F5
:100B70002100EE01EF01FF302000D000FF30D10056
:100B800021005A08860001308700403FDC00413FC9
:100B9000DD005C0884005D0885001200643A0319DA
:100BA000E12D5A08860001308700403FDC00413FBC
:100BB000DD005C0884005D0885001200693A031DB1
:100BC0001E2E5A088600013087000130810741310E
:100BD0000318810A5B088600013087000108840041
:100BE0000130850002308107003FDC00013FDD005D
:100BF0005C08E1005D08E200890D893B8909E3009A
:100C0000E400E500E600E700E8006108BC006208D7
:100C1000BD006308BE006408BF006508C000660828
:100C2000C1006708C2006808C3006B0884314D2406
:100C300021003D08DB003C08DA0008005A08860065
:100C400001308700403FDC00413FDD005C0884004C
:100C50005D08850012006E3A031D522E5A08860068
:100C6000013087000130810741310318810A5B0898
:100C700086000130870001088400013085000230C1
:100C80008107003FE900013FEA00690886006A0821
:100C9000870020004C08C03F4D08C13F2100DA0109
:100CA000DB0108005A08860001308700403FDC0065
:100CB000413FDD005C0884005D0885001200253A94
:100CC000031D7B2E5A088600013087000130810702
:100CD00041310318810A2530A2000030A3006B08BF
:100CE000DC005C08A4008C31AE2401302100DA0065
:100CF0000030DB0008005A08860001308700013010
:100D0000810741310318810A4E2E5A0886000130AE
:100D10008700403FDC00413FDD005C0884005D0847
:100D200085000008DE00DF015E08A2005F08A30066
:100D30006B08E0006008A4008C31AE2485312100EE
:100D40005A088600013087000130810741310318BD
:100D5000810A752E2100B201A03086000030870084
:100D6000473FB000B01FD62E2100A009A109A2095B
:100D7000A309A409A509A609A709A00A031DD32E42
:100D8000A10A031DD32EA20A031DD32EA30A031DFD
:100D9000D32EA40A031DD32EA50A031DD32EA60A03
:100DA000031DD32EA70A2100B201B20AA830860083
:100DB00000308700473F2100B000B01F032F210003
:100DC000A809A909AA09AB09AC09AD09AE09AF097F
:100DD000A80A031DFE2EA90A031DFE2EAA0A031D42
:100DE000FE2EAB0A031DFE2EAC0A031DFE2EAD0A1D
:100DF000031DFE2EAE0A031DFE2EAF0A0130210098
:100E0000B0003008B206B3308600003087000830EA
:100E10002100B00000301E00B00B0B2F2008210471
:100E200022042304240425042604270403196E2F16
:100E3000B101B10AA71B292FA035A10DA20DA30D49
:100E4000A40DA50DA60DA70D0130B0003008B10707
:100E50001A2FB335B40DB50DB60DB70DB80DB90DCC
:100E6000BA0D27082F02031D4F2F26082E02031D3F
:100E70004F2F25082D02031D4F2F24082C02031D80
:100E80004F2F23082B02031D4F2F22082A02031D78
:100E90004F2F21082902031D4F2F20082802031C71
:100EA000622F2008A8022108A93B2208AA3B230898
:100EB000AB3B2408AC3B2508AD3B2608AE3B2708DE
:100EC000AF3B3314A736A60CA50CA40CA30CA20CA4
:100ED000A10CA00C0130B102031D292F3208031907
:100EE0008F2FB309B409B509B609B709B809B9090B
:100EF000BA09B30A031D8F2FB40A031D8F2FB50A39
:100F0000031D8F2FB60A031D8F2FB70A031D8F2FC6
:100F1000B80A031D8F2FB90A031D8F2FBA0A2100AB
:100F20003308A0003408A1003508A2003608A30049
:100F30003708A4003808A5003908A6003A08A70019
:100F400008002100BB006E1CB02F3308AA0001303E
:100F5000AB003B08B6003608AC008B31B2238731BA
:100F60002100B51BB82F3508BA003408B900BA2FD4
:100F7000B901BA01B701B8013808803AB6003A0899
:100F8000803A3602031DC62F390837020318DA2FBC
:100F900020302100A2000030A3003B08B600360834
:100FA000A4008C31AE24873101302100B707003016
:100FB000B83DBC2F21006E18E82F3308AA0001307D
:100FC000AB003B08B6003608AC008B31B22387314A
:100FD000210033088B311A23210039082007B30080
:100FE0003A08213DB40008008C310B2487318A3146
:100FF000482287318A31E92287318B318D230800DD
:101460002700991F08008A31982208002100A10056
:1014700021088A318E220800640080010131890B25
:101480003D2A0034FE0012001E00FE0B432A0034E9
:101490007A30210099009801220096010800183046
:1014A0002100B3009030B4008B31332308002100B9
:1014B00021082200EF00210020082200EE00080091
:1014C000210021082000DE00210020082000DD008E
:1014D0000800210021082000DC0021002008200055
:1014E000DB000800210021082000DA00210020088C
:1014F0002000D9000800210021082000D800210088
:1015000020082000D700080001302000C807003064
:10151000C93D0030CA3D0030CB3D08002100A0008D
:101520002000101E902A2100200823009A000800A5
:10153000200059085A040319A22A5A088A00590897
:101540000A008A312700991308000B1120005F0858
:101550009500570858040319080058088A005708CE
:101560000A008A3108002100A0012000101EBE2AB6
:1015700023009E1EBE2A2100A001A00A21002008EF
:10158000080068302200EC006C082300A200220052
:101590006708E1006608E000A230EC006C08E20099
:1015A00000308C313E2408002100B8008A31B3227B
:1015B0008A31003A0319D62A21003808B3000130D5
:1015C000B4008B3133238A31A0300032890BE52AF5
:1015D000080021001508C039143895008330200018
:1015E000950083302100A20022082000DF000B11AB
:1015F0008B1603302100A0000030A1008A317B222D
:10160000080021003408803AB50080303502031DFF
:101610000B2B013033020318080021003309B500F9
:101620003409B600B50A0319B60A3508B3003608FE
:10163000B40008002100A4002408A2002208A3008E
:101640002408860001308700010803192C2B013083
:10165000A2002208A407202B23082402A000A10135
:10166000A01BA10308002100B701B70A3408AB0092
:101670003308AA00AC018B31B2238B312100AB1BA4
:1016800008000A30A2000030A300A4018C31AE246F
:101690008B312100A31B0800B7010800F800F401FA
:1016A000F5017008F200F3017208F6007308F70004
:1016B000781C5E2B7608F4077708F53D0130F63587
:1016C000F70D890B5F2B0310F80C7808031D582BBE
:1016D0007508F1007408F00008004834653461347E
:1016E00072347434203452346134743465343A348E
:1016F00020340034443469347334743461346E34C7
:10170000633465343A3420340034533470346534EF
:10171000653464343A3420340034083023009F00A8
:1017200080309D0024309E00A0309B0001309C0042
:1017300000302100A0000030A1008A3160228B31EE
:1017400000302100A0000030A1008A3169228B31D5
:1017500000302100A0000030A1008A315722200073
:10176000D20108002100B101B2012A08310784002A
:101770002B08323D85000008AD002D08B000300870
:101780000319D62B3008AD00AE012D08A2002E089B
:10179000A3002C08AF002F08A4008C31AE248B319D
:1017A00001302100B1070030B23DB52B3208AB004B
:1017B0003108AA0008000030FC000030FB000030B7
:1017C000FA000030F9002000261CEE2B2A08F90749
:1017D0002B08FA3D2C08FB3D2D08FC3D0130AA35B5
:1017E000AB0DAC0DAD0D890BEF2B0130A936A80C5C
:1017F000A70CA60C890BF62B29082804270426041D
:10180000031DE32B7C08A9007B08A8007A08A70029
:101810007908A600080022008C018D018E01373066
:1018200021008C0070308D00FF308E004F3023007F
:101830008E0070308D0017308C0024008D018C01DB
:101840008E012100951725008C018D018E01373006
:1018500026008C00F0308D00FF308E002700991399
:101860009813971702302100A0000030A1008A31A0
:1018700072228B1512303D009F0008002200E30009
:101880006108E5006008E4002000CC01CD012200E1
:10189000640884006508850012000319682C643010
:1018A0002100EC006C08DA00220062082100ED0043
:1018B0006D08DB002200630885319A258C312100F8
:1018C0005A082000CC0721005B082000CD3D472CA2
:1018D00020004D082200E10020004C082200E0001A
:1018E00008002100A4008A31B3228C31003A031988
:1018F000732CFE308A318E228C31A0300032890B5D
:101900007E2C962C2108803E8A318E2208002108E8
:10191000C03E8A318E2208002108943E8A318E22F0
:1019200008002108D43E8A318E22080021002408B4
:10193000A200A3012308003A03199F2CAD2C220812
:10194000013A0319822C033A0319872C013A03192F
:101950008C2C073A0319912CAD2C08002100240887
:10196000031D2408031DB92C22088A3136228C312C
:10197000E52C2408033E86008701160001040319A4
:10198000DC2C2408033E86008701403FA500413F30
:10199000A600240A86008701403FA700413FA80017
:1019A0002808803AA9002608803A2902031DDA2C6B
:1019B000250827020318E52C2100240A8600870148
:1019C0000130810741310318810A21002208A50056
:1019D000A6012508A2002608A30008008731F427E5
:1019E0008C3184302100A0000A30A1008A317B2292
:1019F0008C3187302100A0000E30A1008A31722284
:101A00008C318A314F228C312100A10101308C317F
:101A100071248C3158308A31D4228C312100A101BB
:101A200002308C3171248C314D308A31D4228C318A
:101A30002100A10103308C3171248C3140308A3176
:101A4000D4228C312100A10104308C3171248C31DD
:101A50008B170B170A302200ED006D082100A10042
:101A600001308C3171248C3100302200E60090303E
:101A7000E700200047082200EB0020004608220073
:101A8000EA00200045082200E90020004408220066
:101A9000E8008A31C1228C310B302200ED006D0844
:101AA0002100A10002308C3171248C310E302200D3
:101AB000E6009030E700200043082200EB00200001
:101AC00042082200EA00200041082200E90020002C
:101AD00040082200E8008A31C1228C312A2D2000E2
:101AE000A101F31F802DF009F109F209F309F00AB1
:101AF0000319F10A0319F20A0319F30AA101A10A51
:101B0000F71F912DF409F509F609F709F40A0319ED
:101B1000F50A0319F60A0319F70A0130F8007808E4
:101B2000A1060030A5000030A4000030A300003062
:101B3000A20073087204710470040319DA2DA00165
:101B4000A00AF31BAF2D0130F035F10DF20DF30DAE
:101B5000890BA42D0130F8007808A007A12D0130D1
:101B6000A235A30DA40DA50D890BB02D7308770226
:101B7000031DC42D72087602031DC42D7108750261
:101B8000031DC42D70087402031CCF2D7008F402CD
:101B90007108F53B7208F63B7308F73B22140130DD
:101BA000F336F20CF10CF00C890BD02D0130A002B1
:101BB000031DAF2D21080319E82DA209A309A409CB
:101BC000A509A20A0319A30A0319A40A0319A50A5D
:101BD0002508F3002408F2002308F1002208F00091
:101BE00008002000B6003608031DB11F072E2E097D
:101BF000B8002F09B9003009BA003109BB00B80A92
:101C00000319B90A0319BA0A0319BB0A0F2E3108BE
:101C1000BB003008BA002F08B9002E08B800310800
:101C200030042F042E04031D1E2E0030B10000309E
:101C3000B0000030AF000030AE0008009630B200B7
:101C40003208B700FE303B050319452E0130B200C3
:101C50003208B7070130BB36BA0CB90CB80C890B87
:101C60002B2E222E0130B2003208B7070130B80700
:101C70000030B93D0030BA3D0030BB3D0130BB36CD
:101C8000BA0CB90CB80C890B3F2EFF303B05031979
:101C9000572E322E02303702031C592E0130B70264
:101CA0000130B835B90DBA0DBB0D890B512EBA1FD5
:101CB0004A2E3718632EFF30B805FF30B9057F3044
:101CC000BA05FF30BB050310B70C3708B200B301EB
:101CD000B401B5011830B235B30DB40DB50D890B93
:101CE0006B2E3208B8043308B9043408BA04350836
:101CF000BB043608031DB11F7E2EBB173B08B10085
:101D00003A08B0003908AF003808AE0008000030CB
:101D10002000AD000030AC000030AB003C30AA0029
:101D20004B08F7004A08F6004908F5004808F40097
:101D30000030F3000030F2000330F100E830F00032
:101D40008D316F258E3173082000A9007208A8001C
:101D50007108A7007008A6008B31DB238E312000AC
:101D60002908B1002808B0002708AF002608AE00F7
:101D700001308D31F1258E3120003108D600300838
:101D8000D5002F08D4002E08D3004030A300003027
:101D9000A2000030A1000030A0005608A70055089E
:101DA000A6005408A5005308A400803138208E31C5
:101DB00020002308BF002208BE002108BD00200823
:101DC000BC003D30A3007530A200C230A1008F30AE
:101DD000A0003F08A7003E08A6003D08A5003C085B
:101DE000A400803138208E3120002308C70022084B
:101DF000C6002108C5002008C4000030CB00003018
:101E0000CA000030C9000030C8004030F300003084
:101E1000F2000030F1000030F0004308F700420803
:101E2000F6004108F5004008F4008231642273088E
:101E30002000C3007208C2007108C1007008C00011
:101E400008002100B201A830860000308700473F1B
:101E5000B000B01F4D2F2100A809A909AA09AB099C
:101E6000AC09AD09AE09AF09A80A031D4A2FA90A9A
:101E7000031D4A2FAA0A031D4A2FAB0A031D4A2F2E
:101E8000AC0A031D4A2FAD0A031D4A2FAE0A031DDB
:101E90004A2FAF0A2100B201B20AA03086000030FA
:101EA0008700473F2100B000B01F752F2100A00917
:101EB000A109A209A309A409A509A609A709A00ABD
:101EC000031D752FA10A031D752FA20A031D752F6F
:101ED000A30A031D752FA40A031D752FA50A031D50
:101EE000752FA60A031D752FA70A210020082104BB
:101EF0002204230424042504260427040319CD2FD7
:101F0000B101B10AA71B912FA035A10DA20DA30D00
:101F1000A40DA50DA60DA70D0130B0003008B10726
:101F2000822F27082F02031DAF2F26082E02031D24
:101F3000AF2F25082D02031DAF2F24082C02031DEF
:101F4000AF2F23082B02031DAF2F22082A02031DE7
:101F5000AF2F21082902031DAF2F20082802031CE0
:101F6000C12F2008A8022108A93B2208AA3B230868
:101F7000AB3B2408AC3B2508AD3B2608AE3B27080D
:101F8000AF3BA736A60CA50CA40CA30CA20CA10C6D
:101F9000A00C0130B102031D912F32080319EE2F5E
:101FA000A809A909AA09AB09AC09AD09AE09AF098D
:101FB000A80A031DEE2FA90A031DEE2FAA0A031D6E
:101FC000EE2FAB0A031DEE2FAC0A031DEE2FAD0A58
:101FD000031DEE2FAE0A031DEE2FAF0A21002808C5
:101FE000A0002908A1002A08A2002B08A3002C08A1
:101FF000A4002D08A5002E08A6002F08A7000800A1
:102000002034203420342534643420346B346D344F
:1020100068342034203420342034003420342034F8
:1020200020342534643420346D342034203400349A
:062030007C342D34003465
:020000040001F9
:06000E00FC3FFF1E9F3FB6
:00000001FF
