:020000040000FA
:1000000080312028080008007E1480318B1A0B1DD7
:100010000D289531642580311E288B190B1C14285E
:100020009431C42480311E280B1F1E282100101C6F
:100030001E282000101C1E28953186257E100900E0
:1000400080312228E33084009430850069308600B6
:100050000030870007309431D6248031FB30840093
:100060008730850067308600013087000430943186
:10007000D6248031B830840096308500A0308600C8
:100080000130870020309431D62480315C308400E8
:10009000003085000D309431D02480312030840030
:1000A000013085002A309431D0248031C030840062
:1000B0000130850014309431D02480312030840008
:1000C0000230850020309431D0247E1020008A3107
:1000D000302A200030088039B5003508BA003035A4
:1000E000B5003508C000AF1B40144008031985282F
:1000F000400A031D83280030B0000030AF000030FC
:10010000AE000030AD00AF178D280030B0000030D9
:10011000AF000030AE000030AD0034088039B500CB
:100120003508BA063435B5003508BF00B31B3F1497
:100130003F080319A8283F0A031DA6280030B40071
:100140000030B3000030B2000030B100B317B02867
:100150000030B4000030B3000030B2000030B10015
:100160003F08031D4008031DBE280030B0000030CA
:10017000AF000030AE000030AD0008002D08B50023
:100180003508F00033089631992680317108200037
:10019000C6007008C5004508B500B601B701B80132
:1001A0003808BE003708BD003608BC003508BB0063
:1001B0004608B500B601B701B8013808C4003708D1
:1001C000C3003608C2003508C1002E08B500350846
:1001D000F000320896319926803171082000C6005F
:1001E0007008C5004508B500B601B701B80135086B
:1001F000BB073608BC3D3708BD3D3808BE3D460844
:10020000B500B601B701B8013508C1073608C23DCF
:100210003708C33D3808C43D2F08B5003508F00045
:10022000310896319926803171082000C600700887
:10023000C5004508B500B601B701B8013508BB07D0
:100240003608BC3D3708BD3D3808BE3D4608B50000
:10025000B601B701B8013508C1073608C23D3708F5
:10026000C33D3808C43D0830BB35BC0DBD0DBE0DC7
:10027000890B34292E08B5003508F0003108963175
:100280009926803171082000C6007008C500450815
:10029000BB074608BC3D0030BD3DBE3D2D08B50046
:1002A0003508F00032089631992680317108200017
:1002B000C6007008C5004508BB074608BC3D0030B5
:1002C000BD3DBE3D0830BB35BC0DBD0DBE0D890B1F
:1002D00063292D08B5003508F000310896319926BC
:1002E000803171082000C6007008C5004508BB07B2
:1002F0004608BC3D0030BD3DBE3D2E08B50035086A
:10030000F000330896319926803171082000C6002C
:100310007008C5004508C1074608C23D0030C33D0E
:10032000C43D2F08B5003508F000320896319926F3
:10033000803171082000C6007008C5004508C1075B
:100340004608C23D0030C33DC43D2F08B500350806
:10035000F000330896319926803171082000C600DC
:100360007008C5004508B5004608B600B701B801D9
:100370000830B535B60DB70DB80D890BB92935085C
:10038000C1073608C23D3708C33D3808C43D3B08A5
:10039000B5003C08B6003D08B7003E08B80018306C
:1003A000B836B70CB60CB50C890BD0293508C10787
:1003B0003608C23D3708C33D3808C43D0830BB3558
:1003C000BC0DBD0DBE0D890BDF2940083F07B500F0
:1003D000B601B60D3508823EC500FF30363DC60079
:1003E000C31B072A0130C135C20DC30DC40D890BD3
:1003F000F329BE1B41140130BB35BC0DBD0DBE0D34
:10040000890BFC29FF30C507FF30C63DF029BF012D
:10041000BE1F202AFF303B05B500FF303C05B6006B
:10042000FF303D05B7007F303E05B800380837047F
:1004300036043504031941181E2A202ABF01BF0AB9
:100440003F080319492A0130C1070030C23D00307E
:10045000C33D0030C43D441C492A4108B500420850
:10046000B6004308B7004408B8000130B900B837F7
:10047000B70CB60CB50CB90B372A3808C4003708CE
:10048000C3003608C2003508C1000130C50700307E
:10049000C63D4608803AB50080303502031D522A19
:1004A000FF304502031C5E2A7F302000C4008030EC
:1004B000C3000030C2000030C100882A2000460876
:1004C000803AB50080303502031D682A01304502AC
:1004D0000318752A00302000C4000030C30000302B
:1004E000C2000030C100BA01882A20004508B500CA
:1004F0003508C000FF30C105FF30C2057F30C3059D
:100500000030C4054018C3174036B5003508C40094
:100510003A08B5003508C4044408B0004308AF00E9
:100520004208AE004108AD00080073088039200081
:10053000A0002008F8007335A0002008FA00F21B84
:100540007A147A080319B22A7A0A031DAF2A0030F6
:10055000F3000030F2000030F1000030F000F2173C
:10056000F301BA2A0030F3000030F2000030F1004D
:100570000030F00077088039A0002008F9007908E1
:100580007806031D78177735A0002008F900F61BC0
:10059000791479080319DA2A790A031DD72A003059
:1005A000F7000030F6000030F5000030F400F617D8
:1005B000F701E22A0030F7000030F6000030F500C5
:1005C0000030F4007A0879020318282B781FEC2AEF
:1005D0008030A0002008F8067A08A0002008FB0060
:1005E0007908A0002008FA007B08A0002008F90084
:1005F0007008A0002008FB007408A0002008F0008C
:100600007B08A0002008F4007108A0002008FB006F
:100610007508A0002008F1007B08A0002008F50064
:100620007208A0002008FB007608A0002008F20055
:100630007B08A0002008F6007308A0002008FB003B
:100640007708A0002008F3007B08A0002008F7002E
:10065000FB017908A000A1012108A3007A0820026B
:10066000A200031CA3032308803AA40080302402C4
:10067000031D3C2B1A302202031C722B73087204D8
:10068000710470040319462B0130472B0030200001
:10069000A0002008FB000030F3000030F200003022
:1006A000F1000030F0007908A0002008FA00762B55
:1006B0007B1C612B7B3601382000A0002008FB004A
:1006C000632B0310FB0C7018FB1701302000A000F7
:1006D000F337F20CF10CF00CA00B682B0130A000EA
:1006E0002008FA0779087A02031C582B781BA92BDB
:1006F0007A08031D842B0030F3000030F200003034
:10070000F1000030F00008007408F0077508F13DB2
:100710007608F23D7708F33D731C242C7B1C972B45
:100720007B3601382000A0002008FB00992B031025
:10073000FB0C7018FB1701302000A000F337F20CFF
:10074000F10CF00CA00B9E2B0130A0002008FA0742
:10075000242C7308803A2000A0007708803A2002F9
:10076000031DBC2B76087202031DBC2B7508710299
:10077000031DBC2B740870020318F42BFF30A0007B
:10078000FF30A100FF30A200FF30A3007008740208
:10079000A4007108753BA5007208763BA60073089B
:1007A000773BA7002408A0072508A13D2608A23D05
:1007B0002708A33D2308F3002208F2002108F100D6
:1007C0002008F0008030A0002008F806FB09FB0A92
:1007D0007B08031DFC2B0130F0070030F13D003099
:1007E000F23D0030F33DFC2B7408F0027508F13B3C
:1007F0007608F23B7708F33B7308720471047004C7
:10080000031D222C7B08031D222C0030F300003036
:10081000F2000030F1000030F00008000130F03547
:10082000F10DF20DF30D890B0F2CFB1B70147B1CCB
:100830001B2C03141C2C0310FB0D7A080319222C0B
:100840000130FA02F21F0E2CF901FB1F2F2C7B083E
:100850007F39031970182D2C2F2CF901F90A79080A
:1008600003195C2C0130F0070030F13D0030F23DFF
:100870000030F33D731C5C2C70082000A000710850
:10088000A1007208A2007308A3000130A400A337DE
:10089000A20CA10CA00CA40B472C2308F3002208E7
:1008A000F2002108F1002008F0007A0A03195C2CFC
:1008B0000130A0002008FA077A0A031D7A08031DF8
:1008C0006C2C0030F3000030F2000030F1000030FA
:1008D000F0007A080319F8017A1C702CF217752CB5
:1008E0007F302000A0002008F2057A362000A0000A
:1008F0002008F300F81F0800F317080004309531B2
:10090000DD25843171082000E3007008E200023028
:10091000DC070030DD3D0030DE3D0030DF3D2200F1
:10092000200820005C02AC002200210820005D3B72
:10093000AD006308803AA6006C08803A2602031DC9
:10094000A32C6B0862020318DB2C0530F00000308A
:10095000F10020006A08F3006908F20088312520C0
:1009600084317108FA007008F9000330FB00003090
:10097000FC0096317B2684317A08803A2000A6005C
:100980002D08803A2602031DC72C2C087902031873
:10099000DB2C20006308803AA6006E08803A26020D
:1009A000031DD42C6D0862020318DB2C20006308A1
:1009B000EE006208ED0020006C08803AA600630893
:1009C000803A2602031DE62C62086B020318FF2CF6
:1009D00022006A08803A2000A6006308803A2602B6
:1009E000031DF52C6208220069020318FF2C200069
:1009F00063082200EA00200062082200E9002000CB
:100A00002D08803AA60080302602031D092DFB30F8
:100A10002C02031CEE2D20006C08803AA60063080F
:100A2000803A2602031D162D62086B020318EE2D74
:100A300020006608031DEE2D0530F0000030F100A7
:100A40006A08F3006908F2008831252084317108B2
:100A5000FA007008F9000330FB000030FC0096310A
:100A60007B2684317A08803A2000A6002D08803A3F
:100A70002602031D3D2D2C0879020318EE2D0130AE
:100A80002000A6002608E6002200200820005C02C4
:100A9000E9002200210820005D3BEA005F082200F7
:100AA000A30020005E082200A20020005D082200B2
:100AB000A10020005C082200A000200067080319A4
:100AC0007D2DE701AA01AB0120002A35C03E86003A
:100AD000013087006908C03F6A08C13F0130AA079A
:100AE0000030AB3D2B08803AA60080302602031D63
:100AF0007B2D0A302A02031C642D20006F08031985
:100B0000872DEF010130A6002608E7000800A801A4
:100B1000A901AE01AF0120002E35C23E8600013092
:100B200087002E35C03E840001308500403F803F65
:100B3000413F813F2E35C03E860001308700403F57
:100B4000A600413FA7002608A8072708A93D0130B5
:100B5000AE070030AF3D2F08803AA6008030260255
:100B6000031DB42D09302E02031C8B2D20006A08B2
:100B70002300D300200069082300D200520820007F
:100B8000A807230053082000A93D0A30F0000030D8
:100B9000F1002908F3002808F2008831252084316B
:100BA00071082000A9007008A8002808F000290892
:100BB000F100890D893B8909F200F3000030F7004C
:100BC0000030F600EA30F5006030F4008931AE21E3
:100BD000843171082200B7007008B6002000630855
:100BE000803AA6006C08803A2602031DF92D6B0896
:100BF00062020318272E20006603031D272EE6013C
:100C00006D0822006902E70020006E0822006A3B9E
:100C1000E8000230F0000030F1006808F3006708D7
:100C2000F20088312520843120006D087007EB0028
:100C30006E08713DEC006C082200EA0020006B0891
:100C40002200E90020006C08EE006B08ED00200097
:100C50002D08803AA60089302602031D312EC530AA
:100C60002C02031C080000302000EB000230EC00D6
:100C700000302200E9000230EA0000302000ED00E0
:100C80000230EE005F082200A30020005E08220070
:100C9000A20020005D082200A10020005C082200C4
:100CA000A00001302000A6002608EF00E7010800A0
:100CB00077088039F80078082000A4007735F8001C
:100CC0007808AB00F61B2B142B080319752E2B0A82
:100CD000031D722E0030F7000030F6000030F500E2
:100CE0000030F400F617F7017D2E0030F7000030D9
:100CF000F6000030F5000030F40073088039F80089
:100D00007808A4067335F8007808AC00F21B2C14A0
:100D10002C080319992E2C0A031D962E0030F3007F
:100D20000030F2000030F1000030F000F217F30163
:100D3000A12E0030F3000030F2000030F10000304E
:100D4000F0007308720471047004031DC02E00309B
:100D5000F7000030F6000030F5000030F40080307D
:100D6000F6047F30F7042408F8007808F7047708C1
:100D7000F3007608F2007508F1007408F00008002E
:100D80002B08031DCC2E0030F3000030F2000030A1
:100D9000F1000030F00008002B08F800F901790894
:100DA000FB002C087802FA00031CFB037A087F3E44
:100DB000A50000307B3DA6007708A3007608A200BE
:100DC0007508A1007408A0000030F7000030F6009C
:100DD0000030F5000030F4000030AA000030A90017
:100DE0000030A8000030A700AC011A302C02031814
:100DF000312F2C080319132F0130A035A10DA20D9E
:100E0000A30D890BFD2E0130F435F50DF60DF70D10
:100E1000890B042FAA1B74140130A735A80DA90D46
:100E2000AA0D890B0D2F73082302031D212F7208B1
:100E30002202031D212F71082102031D212F70089A
:100E40002002031C2C2F2A177008A0027108A13B56
:100E50007208A23B7308A33B0130F8007808AC0786
:100E6000F52E2308220421042004031D2714F61B59
:100E70004E2F0130F435F50DF60DF70D890B3A2F95
:100E8000AA1B74140130A735A80DA90DAA0D890B52
:100E9000432FFF30A507FF30A63D372FAC01AA1F17
:100EA000672FFF302705F800FF302805F900FF30D5
:100EB0002905FA007F302A05FB007B087A047904B3
:100EC000780403197418652F672FAC01AC0A2C083D
:100ED0000319902F0130F4070030F53D0030F63D46
:100EE0000030F73D771C902F7408F8007508F90062
:100EF0007608FA007708FB000130FC00FB37FA0C9B
:100F0000F90CF80CFC0B7E2F7B08F7007A08F60032
:100F10007908F5007808F4000130A5070030A63DF7
:100F20002608803AF80080307802031D992FFF30A0
:100F30002502031CA82FFF302000A5000030A600CA
:100F40000030F7000030F6000030F5000030F4000B
:100F500020002608803AF80080307802031DB22F66
:100F6000013025020318C02F2000A501A601003082
:100F7000F7000030F6000030F5000030F400A40166
:100F800020002508F8007808AB002B1CC92FF617A5
:100F9000CD2F7F30F8007808F6052B36F80078085A
:100FA000F700B32E2100B101B2012A0831078400F5
:100FB0002B08323D85000008AD002D08B000300838
:100FC0000319F62F3008AD00AE012D08A2002E083F
:100FD000A3002C08AF002F08A40097317A2787318F
:100FE00001302100B1070030B23DD52F3208AB00EF
:100FF0003108AA00080064340034003402340800C8
:10100000083023009F0080309D0024309E00A030D7
:101010009B0001309C0000302100A0000030A100A6
:1010200095310325883100302100A0000030A10057
:1010300095310C25883100302100A0000030A1003E
:101040009431FA242000E8010800F601F11F2F284E
:10105000F009F109F00A0319F10AF601F60AF31F83
:101060003A28F209F309F20A0319F30A0130F400ED
:101070007408F606F701F80170087104031969286D
:10108000F501F50AF11B4E280130F035F10D890B01
:1010900045280130F4007408F50742280130F7357F
:1010A000F80D890B4F2871087302031D5928700829
:1010B0007202031C60287008F2027108F33B771477
:1010C0000130F136F00C890B61280130F502031D67
:1010D0004E28760803197128F709F809F70A031949
:1010E000F80A7808F1007708F00008002100BB003A
:1010F0002000601C872821003308AA000230AB00C2
:101100003B08B6003608AC008731D2278831210071
:10111000B51B8F283508BA003408B9009128B901E9
:10112000BA01B701B8013808803AB6003A08803AE7
:101130003602031D9D28390837020318B1282030D4
:101140002100A2000030A3003B08B6003608A4002E
:1011500097317A27883101302100B7070030B83D38
:10116000932820006018C02821003308AA0002300C
:10117000AB003B08B6003608AC008731D227883177
:101180002100330896310F26210039082007B300CB
:101190003A08213DB400080003102000490D4A0D13
:1011A000CB004B08D1005108031DDF280030CA00D6
:1011B0000030C9000030C8000030C70008004708F0
:1011C000CB004808CC004908CD004A08CE001F30AB
:1011D000CE36CD0CCC0CCB0C890BE8284B08CF00BD
:1011E0004F08D000C917FF30C705FF30C805FF30D2
:1011F000C9050030CA059630D102D11F1229510805
:10120000803A973E031CD6280130CA36C90CC80C58
:10121000C70C890B05290130CB004B08D1070319F6
:1012200023290429203051020318D6285108031914
:1012300023290130C735C80DC90DCA0D890B1A29DC
:101240000130D1021629500803190800C709C8093E
:10125000C909CA09C70A0319C80A0319C90A03191F
:10126000CA0A0800003021002005A800003021052E
:10127000A90080302205AA007F302305AB002B088F
:101280002A0429042804031D4D290030A30000303E
:10129000A2000030A1000030A00000302405A8000A
:1012A00000302505A90080302605AA007F302705DB
:1012B000AB002B082A0429042804031D67290030E9
:1012C000A7000030A6000030A5000030A400A31F36
:1012D00081290030A8000030A9000030AA00803029
:1012E000AB002008A8022108A93B2208AA3B23083A
:1012F000AB3B2B08A3002A08A2002908A10028085C
:10130000A000A71F9B290030A8000030A9000030D2
:10131000AA008030AB002408A8022508A93B2608B3
:10132000AA3B2708AB3B2B08A7002A08A6002908E0
:10133000A5002808A4008030A3068030A70627084F
:101340002302031D080026082202031D08002508A9
:101350002102031D08002408200208002000A1012A
:10136000F31FBF29F009F109F209F309F00A031983
:10137000F10A0319F20A0319F30AA101A10AF71FDE
:10138000D029F409F509F609F709F40A0319F50A51
:101390000319F60A0319F70A0130F8007808A106C4
:1013A0000030A5000030A4000030A3000030A200EF
:1013B00073087204710470040319192AA001A00AA9
:1013C000F31BEE290130F035F10DF20DF30D890B11
:1013D000E3290130F8007808A007E0290130A235A0
:1013E000A30DA40DA50D890BEF2973087702031D2A
:1013F000032A72087602031D032A71087502031D71
:10140000032A70087402031C0E2A7008F402710883
:10141000F53B7208F63B7308F73B22140130F336B4
:10142000F20CF10CF00C890B0F2A0130A002031D05
:10143000EE2921080319272AA209A309A409A5094D
:10144000A20A0319A30A0319A40A0319A50A250865
:10145000F3002408F2002308F1002208F00008003D
:10146000953174258A315E302100A0001630A1002C
:1014700095311E258A317E302100A0000430A10064
:10148000953127258A31A3302100A0000D30A1001D
:10149000953115258A3129302200E6009630E50085
:1014A0007F30890B512AE50B512AE60B512A9431E2
:1014B000F2248A318B170B172100A10101309731DB
:1014C0003D278A31B8309531B0258A312100A101FC
:1014D000023097313D278A31AD309531B0258A31C0
:1014E0002100A101033097313D278A31A030953189
:1014F000B0258A312100A101043097313D278A317E
:1015000007302200E50065082100A1000130973175
:101510003D278A3146302100A3006A30A2006030A6
:10152000A1000030A000220049082100A7002200ED
:1015300048082100A600220047082100A50022003B
:1015400046082100A400893132218A31031CB62AC1
:1015500000302200DC009830DD003B08DF003A0854
:10156000DE003D08E1003C08E000BB2A0F3022000D
:10157000DC009830DD0095319B258A310A3022004D
:10158000E50065082100A100023097313D278A312E
:1015900027302200DC009830DD004108DF004008E1
:1015A000DE003F08E1003E08E00095319B258A31CE
:1015B0000D302200E50065082100A10003309731BD
:1015C0003D278A311D302200DC009830DD003708CD
:1015D000DF003608DE0095319B258A315C2A210028
:1015E000E9005A08860001308700403FDC00413F97
:1015F000DD005C0884005D0885001200253A031DAB
:10160000A82B5A088600013087000130810741313C
:101610000318810A2200B201B3012000E001E101B8
:10162000FF302200B400FF30B50021005A088600C8
:1016300001308700403FDC00413FDD005C08840052
:101640005D0885001200643A0319362B5A0886009B
:1016500001308700403FDC00413FDD005C08840032
:101660005D0885001200693A031D732B5A08860035
:10167000013087000130810741310318810A5B087E
:1016800086000130870001088400013085000230A7
:101690008107003FDC00013FDD005C08E1005D08E0
:1016A000E200890D893B8909E300E400E500E600DA
:1016B000E700E8006108BC006208BD006308BE00E6
:1016C0006408BF006508C0006608C1006708C20062
:1016D0006808C30069088E31AD2621003D08DB0093
:1016E0003C08DA0008005A08860001308700403FB5
:1016F000DC00413FDD005C0884005D0885001200CD
:10170000253A031D9C2B5A088600013087000130C2
:10171000810741310318810A2530A2000030A3005F
:101720006908DC005C08A40097317A2701302100A9
:10173000DA000030DB0008005A088600013087001C
:101740000130810741310318810ADA01DB01080009
:101750005A08860001308700403FDC00413FDD0031
:101760005C0884005D0885000008DE00DF015E087B
:10177000A2005F08A3006908E0006008A400973198
:101780007A278A3121005A0886000130870001300B
:10179000810741310318810A962B2100B201A8303C
:1017A000860000308700473FB000B01FF92B2100B2
:1017B000A809A909AA09AB09AC09AD09AE09AF0985
:1017C000A80A031DF62BA90A031DF62BAA0A031D5E
:1017D000F62BAB0A031DF62BAC0A031DF62BAD0A44
:1017E000031DF62BAE0A031DF62BAF0A2100B20132
:1017F000B20AA030860000308700473F2100B000C9
:10180000B01F212C2100A009A109A209A309A40944
:10181000A509A609A709A00A031D212CA10A031DD9
:10182000212CA20A031D212CA30A031D212CA40A8A
:10183000031D212CA50A031D212CA60A031D212C02
:10184000A70A2100200821042204230424042504DB
:10185000260427040319792CB101B10AA71B3D2CDA
:10186000A035A10DA20DA30DA40DA50DA60DA70DCC
:101870000130B0003008B1072E2C27082F02031DBD
:101880005B2C26082E02031D5B2C25082D02031D50
:101890005B2C24082C02031D5B2C23082B02031D48
:1018A0005B2C22082A02031D5B2C21082902031D40
:1018B0005B2C20082802031C6D2C2008A80221089C
:1018C000A93B2208AA3B2308AB3B2408AC3B2508D4
:1018D000AD3B2608AE3B2708AF3BA736A60CA50CB0
:1018E000A40CA30CA20CA10CA00C0130B102031D8E
:1018F0003D2C320803199A2CA809A909AA09AB0999
:10190000AC09AD09AE09AF09A80A031D9A2CA90AB2
:10191000031D9A2CAA0A031D9A2CAB0A031D9A2CAC
:10192000AC0A031D9A2CAD0A031D9A2CAE0A031DA6
:101930009A2CAF0A21002808A0002908A1002A0833
:10194000A2002B08A3002C08A4002D08A5002E0837
:10195000A6002F08A70008002100B201A0308600D1
:1019600000308700473FB000B01FD82C2100A009ED
:10197000A109A209A309A409A509A609A709A00A02
:10198000031DD52CA10A031DD52CA20A031DD52C9D
:10199000A30A031DD52CA40A031DD52CA50A031DDB
:1019A000D52CA60A031DD52CA70A2100B201B20A24
:1019B000A830860000308700473F2100B000B01FEC
:1019C000052D2100A809A909AA09AB09AC09AD098F
:1019D000AE09AF09A80A031D002DA90A031D002D99
:1019E000AA0A031D002DAB0A031D002DAC0A031D1E
:1019F000002DAD0A031D002DAE0A031D002DAF0AF8
:101A000001302100B0003008B206B330860000304B
:101A1000870008302100B00000301E00B00B0D2DF3
:101A20002008210422042304240425042604270476
:101A30000319702DB101B10AA71B2B2DA035A10DE3
:101A4000A20DA30DA40DA50DA60DA70D0130B0008C
:101A50003008B1071C2DB335B40DB50DB60DB70D5B
:101A6000B80DB90DBA0D27082F02031D512D2608F8
:101A70002E02031D512D25082D02031D512D240872
:101A80002C02031D512D23082B02031D512D22086A
:101A90002A02031D512D21082902031D512D200862
:101AA0002802031C642D2008A8022108A93B220853
:101AB000AA3B2308AB3B2408AC3B2508AD3B2608DA
:101AC000AE3B2708AF3B3314A736A60CA50CA40CDD
:101AD000A30CA20CA10CA00C0130B102031D2B2DF4
:101AE00032080319912DB309B409B509B609B7092C
:101AF000B809B909BA09B30A031D912DB40A031D27
:101B0000912DB50A031D912DB60A031D912DB70A1B
:101B1000031D912DB80A031D912DB90A031D912DA6
:101B2000BA0A21003308A0003408A1003508A20039
:101B30003608A3003708A4003808A5003908A60015
:101B40003A08A700080042302000B0007030AF0013
:101B50000030AE000030AD0022004908F300480814
:101B6000F2004708F1004608F0004430F7007A30F0
:101B7000F6000030F5000030F400863158268D3133
:101B800073082000B4007208B3007108B200700836
:101B9000B100803169208D31200030082200C5005D
:101BA00020002F082200C40020002E082200C300BD
:101BB00020002D082200C20040302000B00000307C
:101BC000AF000030AE000030AD002200450820001C
:101BD000B400220044082000B30022004308200083
:101BE000B200220042082000B100803169208D310E
:101BF00020003008DB002F08DA002E08D9002D085D
:101C0000D8003D30B0007530AF00C230AE008F302C
:101C1000AD005B08B4005A08B3005908B200580878
:101C2000B100803169208D31200030082200AF00E2
:101C300020002F082200AE0020002E082200AD0058
:101C400020002D082200AC002F082000CA0022002E
:101C50002E082000C90022002D082000C800220004
:101C60002C082000C7008831CC208D312000480886
:101C70002200BB00200047082200BA000A302000E2
:101C8000D2000030D30022002F082000B400220030
:101C90002E082000B30022002D082000B2002200F0
:101CA0002C082000B1004130B0002030AF000030DF
:101CB000AE000030AD00803169208D312000300849
:101CC000CA002F08C9002E08C8002D08C700883197
:101CD000CC208D3120004808D5004708D40097312A
:101CE000BA278D31200053082200BD002000520881
:101CF0002200BC000030C9000030C8000030C7001E
:101D00000030C60020006408023EE4000030653D5B
:101D1000E500E830D2000330D3006508D500640840
:101D2000D4009731BA278D31200053082200BF001C
:101D3000200052082200BE00E830F0000330F1001D
:101D400020006508F3006408F2008831252071083E
:101D50002200C1007008C00008002100CB003C0830
:101D6000D0003D08D1003E08D2003F08D300400813
:101D7000D4004108D5004208D6004308D700D0302F
:101D8000860000308700473FC400C41FC92E0130C1
:101D9000CA2E00302100C500C6014508CE00460805
:101DA000CF004E084F040319F32ED009D109D209F0
:101DB000D309D409D509D609D709D00A031DF32EB2
:101DC000D10A031DF32ED20A031DF32ED30A031DDD
:101DD000F32ED40A031DF32ED50A031DF32ED60AC3
:101DE000031DF32ED70A2200B51BFB2EFD30200069
:101DF000E005FF30E10522003508803A2100C400EB
:101E000080304402031D072F0130220034020318E2
:101E10000F2F01302100C9000030CA00172F220007
:101E200035082100CA00220034082100C900220020
:101E300033082100CD00220032082100CC004E08DA
:101E40004F04031D262F2000601D2B2FFF30210083
:101E5000CC07FF30CD3D1F302100D8000030D90025
:101E60002400BF01C12F2100500851045204530423
:101E70005404550456045704031D582F4A08803A49
:101E8000C40080304402031D472F0130490203186B
:101E9000582F21004D08803AC40080304402031DB1
:101EA000532F01304C02031CCD2F2000E01CCD2FFE
:101EB000FF302100D807FF30D93D0A30A000A10132
:101EC000A201A301A401A501A601A7015008A80031
:101ED0005108A9005208AA005308AB005408AC00EE
:101EE0005508AD005608AE005708AF008B31CD2322
:101EF0008E3121002108B4002008B3009531F62569
:101F00008E3121003308303EC4005808203E860040
:101F10000230870044088100FF30C907FF30CA3D06
:101F2000FF30CC07FF30CD3D0A30A000A101A20157
:101F3000A301A401A501A601A7015008A80051080A
:101F4000A9005208AA005308AB005408AC00550879
:101F5000AD005608AE005708AF008C31AC248E316E
:101F600021002008D0002108D1002208D200230837
:101F7000D3002408D4002508D5002608D600270859
:101F8000D70021005908803AC40080304402031D64
:101F9000CB2F013058020318332F21004E084F0475
:101FA000031DD52F2000601DED2FFF302100D80725
:101FB000FF30D93D4E084F04031DE02F2B30E12F99
:101FC0002D30C7000030C8004708C4005808203E24
:101FD0008600023087004408810021005808203E16
:101FE000C4004408B3004D08B5004C08B4004B08C9
:101FF0008831762021003408BD003308BC00080079
:102988002700991F080095313A2508002100A10069
:102998002108953130250800640080010131890B38
:1029A800D12C0034FE0012001E00FE0BD72C003480
:1029B8007A302100990098012200960108005834C5
:1029C800023400340234003402340134013021006E
:1029D8009D009E019F019B019C0108003030210051
:1029E800B3009830B400963143260800210021082E
:1029F8002200D300210020082200D2000800210074
:102A080021082200D700210020082200D600080053
:102A1800210021082200D500210020082200D4002E
:102A28000800210021082200D100210020082200EE
:102A3800D0000800210021082200CF002100200832
:102A48002200CE000800210021082200CB0021002E
:102A580020082200CA0008002100A0002000101E43
:102A6800322D2100200823009A0008002200500877
:102A780051040319442D51088A0050080A00953161
:102A88002700991308002100A0012000101E522DD4
:102A980023009E1E522D2100A001A00A210020081B
:102AA80008002000181D5F2D181071089700700885
:102AB800960018140800710897007008960008001E
:102AC8000B11220058082000950022004E084F04E0
:102AD800031908004F088A004E080A0095310800BB
:102AE80097310A2795319431DC249531963128267F
:102AF80095319431EA2495319531C5259531883140
:102B0800002008002000101022004D08F1004C0899
:102B1800F00095315525953122004A084B040319D8
:102B280008004B088A004A080A00953108005E3000
:102B38002100EF006F082200E4005D082100EB008F
:102B480022005C082100EA006430EF006F08EC0006
:102B580000309631D82608002100B8009531472565
:102B68009531003A0319B22D21003808B30001301D
:102B7800B400963143269531A0300032890BC12D1F
:102B8800080021001508C03914389500833020004A
:102B9800950083302100A20022082200D8000B11E2
:102BA8008B1603302100A0000030A10095311E25AE
:102BB8000800F3007308F200F20DF20D21001D0861
:102BC8007206833972069D001D140630890BEA2DA2
:102BD800003221009D149D18EF2D1C08F1001B08E0
:102BE800F000080021003408803AB5008030350232
:102BF800031D002E01303302031808002100330999
:102C0800B5003409B600B50A0319B60A3508B30089
:102C18003608B40008002100A4002408A2002208F5
:102C2800A300240886000230870001080319212E1A
:102C38000130A2002208A407152E23082402A000B0
:102C4800A101A01BA103080020009901E030970012
:102C5800C030960017082200CD0020001608220078
:102C6800CC002000101021001014FF30A000073005
:102C7800A100953127250130200098000800210087
:102C8800B701B70A3408AB003308AA00AC01873192
:102C9800D22796312100AB1B08000A30A200003071
:102CA800A300A40197317A2796312100A31B0800BD
:102CB800B70108003F30F3008030F2000030F10027
:102CC8000030F00022004908F7004808F6004708DD
:102CD800F5004608F4008231952273082200C900E5
:102CE8007208C8007108C7007008C60008002000F4
:102CF800A001A101791C852E7B082000A0077C0873
:102D0800A13D0130FB35FC0D890B862E0130FA36CA
:102D1800F90C890B8B2E79087A04031D7E2E20006E
:102D28002108FA002008F9000800F800F401F5016C
:102D38007008F200F3017208F6007308F700781CB7
:102D4800A92E7608F4077708F53D0130F635F70D1A
:102D5800890BAA2E0310F80C7808031DA32E7508FA
:102D6800F1007408F00008004834653461347234A6
:102D78007434203452346134743465343A34203431
:102D88000034443469347334743461346E346334D5
:102D980065343A342034003453347034653465343F
:102DA80064343A34203400342200D90021006B08FE
:102DB8002200DB0021006A082200DA00B001B1011C
:102DC8005A0884005B08850012000319022F5A3044
:102DD8002100ED006D08DA006C08EE006E08DB00DB
:102DE800220059088A31EF22963121005A08220020
:102DF800B00721005B082200B13DE42E3108210014
:102E0800EB00220030082100EA00080022008C01B3
:102E18008D018E01373021008C0070308D00FF301D
:102E28008E004F3023008E0070308D0017308C00DC
:102E380024008D018C018E012100951725008C013D
:102E48008D018E01373026008C00F0308D00FF3068
:102E58008E00270099139813971702302100A000BD
:102E68000030A100953115258B1512303D009F00CB
:102E780008002100A400953147259731003A03192D
:102E88003F2FFE30953130259731A0300032890B25
:102E98004A2F622F2108803E9531302508002108ED
:102EA800C03E9531302508002108943E95313025E3
:102EB80008002108D43E9531302508002100240857
:102EC800A200A3012308003A03196B2F792F2208C7
:102ED800013A03194E2F033A0319532F013A0319E4
:102EE800582F073A03195D2F792F0800210024086D
:102EF800031D2408031D852F22089431CA24973105
:102F0800B12F2408033E8600870116000104031927
:102F1800A82F2408033E86008701403FA500413FB3
:102F2800A600240A86008701403FA700413FA80069
:102F38002808803AA9002608803A2902031DA62FEE
:102F4800250827020318B12F2100240A86008701CB
:102F58000130810741310318810A21002208A500A8
:102F6800A6012508A2002608A30008002000D70112
:102F7800D51FC52FD409D509D40A0319D50AD701F5
:102F8800D70AD31FCC2FD209D309D20A0319D30ADF
:102F9800520853040319F32FD601D60AD31BDE2F88
:102FA8000130D235D30D890BD52F0130FD007D08B6
:102FB800D607D22F53085502031DE42F5208540296
:102FC800031CEA2F5208D4025308D53B0130D336EC
:102FD800D20C890BEB2F0130D602031DDE2F5708C8
:102FE8000319FB2FD409D509D40A0319D50A5508A2
:102FF800D3005408D2000800253464342E34253414
:10300800643420346B3470346834203420342034F1
:10301800203420340034303420346B347034683435
:1030280020342034203420342034203420342034F8
:103038000034253464342034623470346D342034E0
:10304800203420340034253464342E342534643458
:0E30580020346B346D3400347C342D3400345D
:020000040001F9
:06000E00FC3FFF1E9F3FB6
:00000001FF
