:020000040000FA
:04000000803114280F
:100008007E1480318B1A0B1D0D2888311020803109
:1000180012288B190B1C1228973189277E1009008A
:1000280080311628CD308400883085002030860045
:1000380001308700203097319B2780315C30840065
:100048000030850011309731952780314030840089
:10005800013085001830973195278031A030840011
:10006800013085002030973195277E1020008C3193
:10007800772C200030088039B5003508BA003035B3
:10008800B5003508C000AF1B4014400803195928B3
:10009800400A031D57280030B0000030AF00003080
:1000A800AE000030AD00AF1761280030B00000305E
:1000B800AF000030AE000030AD0034088039B50024
:1000C8003508BA063435B5003508BF00B31B3F14F0
:1000D8003F0803197C283F0A031D7A280030B40022
:1000E8000030B3000030B2000030B100B3178428EC
:1000F8000030B4000030B3000030B2000030B1006E
:100108003F08031D4008031D92280030B00000304E
:10011800AF000030AE000030AD0008002D08B5007B
:100128003508F00033088831AE208031710820008E
:10013800C6007008C5004508B500B601B701B8018A
:100148003808BE003708BD003608BC003508BB00BB
:100158004608B500B601B701B8013808C400370829
:10016800C3003608C2003508C1002E08B50035089E
:10017800F00032088831AE20803171082000C600B6
:100188007008C5004508B500B601B701B8013508C3
:10019800BB073608BC3D3708BD3D3808BE3D46089C
:1001A800B500B601B701B8013508C1073608C23D28
:1001B8003708C33D3808C43D2F08B5003508F0009E
:1001C80031088831AE20803171082000C6007008DF
:1001D800C5004508B500B601B701B8013508BB0729
:1001E8003608BC3D3708BD3D3808BE3D4608B50059
:1001F800B601B701B8013508C1073608C23D37084E
:10020800C33D3808C43D0830BB35BC0DBD0DBE0D1F
:10021800890B08292E08B5003508F0003108883107
:10022800AE20803171082000C6007008C50045085E
:10023800BB074608BC3D0030BD3DBE3D2D08B5009E
:100248003508F00032088831AE208031710820006E
:10025800C6007008C5004508BB074608BC3D00300D
:10026800BD3DBE3D0830BB35BC0DBD0DBE0D890B77
:1002780037292D08B5003508F00031088831AE203F
:10028800803171082000C6007008C5004508BB070A
:100298004608BC3D0030BD3DBE3D2E08B5003508C2
:1002A800F00033088831AE20803171082000C60084
:1002B8007008C5004508C1074608C23D0030C33D67
:1002C800C43D2F08B5003508F00032088831AE204B
:1002D800803171082000C6007008C5004508C107B4
:1002E8004608C23D0030C33DC43D2F08B50035085F
:1002F800F00033088831AE20803171082000C60034
:100308007008C5004508B5004608B600B701B80131
:100318000830B535B60DB70DB80D890B8D293508E0
:10032800C1073608C23D3708C33D3808C43D3B08FD
:10033800B5003C08B6003D08B7003E08B8001830C4
:10034800B836B70CB60CB50C890BA4293508C1070B
:100358003608C23D3708C33D3808C43D0830BB35B0
:10036800BC0DBD0DBE0D890BB32940083F07B50074
:10037800B601B60D3508823EC500FF30363DC600D1
:10038800C31BDB290130C135C20DC30DC40D890B58
:10039800C729BE1B41140130BB35BC0DBD0DBE0DB8
:1003A800890BD029FF30C507FF30C63DC429BF01DE
:1003B800BE1FF429FF303B05B500FF303C05B600F1
:1003C800FF303D05B7007F303E05B80038083704D8
:1003D8003604350403194118F229F429BF01BF0A6C
:1003E8003F0803191D2A0130C1070030C23D003003
:1003F800C33D0030C43D441C1D2A4108B5004208D5
:10040800B6004308B7004408B8000130B900B8374F
:10041800B70CB60CB50CB90B0B2A3808C400370852
:10042800C3003608C2003508C1000130C5070030D6
:10043800C63D4608803AB50080303502031D262A9D
:10044800FF304502031C322A7F302000C400803070
:10045800C3000030C2000030C1005C2A20004608FA
:10046800803AB50080303502031D3C2A0130450230
:100478000318492A00302000C4000030C3000030AF
:10048800C2000030C100BA015C2A20004508B5004E
:100498003508C000FF30C105FF30C2057F30C305F5
:1004A8000030C4054018C3174036B5003508C400ED
:1004B8003A08B5003508C4044408B0004308AF0042
:1004C8004208AE004108AD000800730880392000DA
:1004D800A0002008F8007335A0002008FA00F21BDD
:1004E8007A147A080319862A7A0A031D832A0030A7
:1004F800F3000030F2000030F1000030F000F21795
:10050800F3018E2A0030F3000030F2000030F100D1
:100518000030F00077088039A0002008F900790839
:100528007806031D78177735A0002008F900F61B18
:10053800791479080319AE2A790A031DAB2A003009
:10054800F7000030F6000030F5000030F400F61730
:10055800F701B62A0030F7000030F6000030F50049
:100568000030F4007A0879020318FC2A781FC02AA0
:100578008030A0002008F8067A08A0002008FB00B8
:100588007908A0002008FA007B08A0002008F900DC
:100598007008A0002008FB007408A0002008F000E4
:1005A8007B08A0002008F4007108A0002008FB00C8
:1005B8007508A0002008F1007B08A0002008F500BD
:1005C8007208A0002008FB007608A0002008F200AE
:1005D8007B08A0002008F6007308A0002008FB0094
:1005E8007708A0002008F3007B08A0002008F70087
:1005F800FB017908A000A1012108A3007A082002C4
:10060800A200031CA3032308803AA400803024021C
:10061800031D102B1A302202031C462B7308720488
:100628007104700403191A2B01301B2B00302000B1
:10063800A0002008FB000030F3000030F20000307A
:10064800F1000030F0007908A0002008FA004A2BD9
:100658007B1C352B7B3601382000A0002008FB00CE
:10066800372B0310FB0C7018FB1701302000A0007B
:10067800F337F20CF10CF00CA00B3C2B0130A0006E
:100688002008FA0779087A02031C2C2B781B7D2B8B
:100698007A08031D582B0030F3000030F2000030B8
:1006A800F1000030F00008007408F0077508F13D0B
:1006B8007608F23D7708F33D731CF82B7B1C6B2BF7
:1006C8007B3601382000A0002008FB006D2B0310AA
:1006D800FB0C7018FB1701302000A000F337F20C58
:1006E800F10CF00CA00B722B0130A0002008FA07C7
:1006F800F82B7308803A2000A0007708803A20027F
:10070800031D902B76087202031D902B7508710249
:10071800031D902B740870020318C82BFF30A0002B
:10072800FF30A100FF30A200FF30A3007008740260
:10073800A4007108753BA5007208763BA6007308F3
:10074800773BA7002408A0072508A13D2608A23D5D
:100758002708A33D2308F3002208F2002108F1002E
:100768002008F0008030A0002008F806FB09FB0AEA
:100778007B08031DD02B0130F0070030F13D00301D
:10078800F23D0030F33DD02B7408F0027508F13BC0
:100798007608F23B7708F33B73087204710470041F
:1007A800031DF62B7B08031DF62B0030F3000030E9
:1007B800F2000030F1000030F00008000130F035A0
:1007C800F10DF20DF30D890BE32BFB1B70147B1C51
:1007D800EF2B0314F02B0310FB0D7A080319F62BEB
:1007E8000130FA02F21FE22BF901FB1F032C7B08F0
:1007F8007F3903197018012C032CF901F90A7908BB
:100808000319302C0130F0070030F13D0030F23D83
:100818000030F33D731C302C70082000A0007108D4
:10082800A1007208A2007308A3000130A400A33736
:10083800A20CA10CA00CA40B1B2C2308F30022086B
:10084800F2002108F1002008F0007A0A0319302C80
:100858000130A0002008FA077A0A031D7A08031D50
:10086800402C0030F3000030F2000030F10000307E
:10087800F0007A080319F8017A1C442CF217492C65
:100888007F302000A0002008F2057A362000A00062
:100898002008F300F81F0800F317080077088039CC
:1008A800F80078082000A4007735F8007808AB0035
:1008B800F61B2B142B0803196F2C2B0A031D6C2C09
:1008C8000030F7000030F6000030F5000030F4008A
:1008D800F617F701772C0030F7000030F6000030EB
:1008E800F5000030F40073088039F8007808A40691
:1008F8007335F8007808AC00F21B2C142C08031987
:10090800932C2C0A031D902C0030F3000030F200C9
:100918000030F1000030F000F217F3019B2C00309A
:10092800F3000030F2000030F1000030F0007308EE
:10093800720471047004031DBA2C0030F7000030F3
:10094800F6000030F5000030F4008030F6047F3007
:10095800F7042408F8007808F7047708F300760805
:10096800F2007508F1007408F00008002B08031D58
:10097800C62C0030F3000030F2000030F1000030E7
:10098800F00008002B08F800F9017908FB002C0892
:100998007802FA00031CFB037A087F3EA5000030AA
:1009A8007B3DA6007708A3007608A2007508A10081
:1009B8007408A0000030F7000030F6000030F500A1
:1009C8000030F4000030AA000030A9000030A80070
:1009D8000030A700AC011A302C0203182B2D2C086C
:1009E80003190D2D0130A035A10DA20DA30D890B02
:1009F800F72C0130F435F50DF60DF70D890BFE2CAB
:100A0800AA1B74140130A735A80DA90DAA0D890BCE
:100A1800072D73082302031D1B2D72082202031DD4
:100A28001B2D71082102031D1B2D70082002031CB9
:100A3800262D2A177008A0027108A13B7208A23B54
:100A48007308A33B0130F8007808AC07EF2C2308A3
:100A5800220421042004031D2714F61B482D01300D
:100A6800F435F50DF60DF70D890B342DAA1B74140A
:100A78000130A735A80DA90DAA0D890B3D2DFF3012
:100A8800A507FF30A63D312DAC01AA1F612DFF300F
:100A98002705F800FF302805F900FF302905FA007E
:100AA8007F302A05FB007B087A047904780403194F
:100AB80074185F2D612DAC01AC0A2C0803198A2D1E
:100AC8000130F4070030F53D0030F63D0030F73DC9
:100AD800771C8A2D7408F8007508F9007608FA0062
:100AE8007708FB000130FC00FB37FA0CF90CF80C16
:100AF800FC0B782D7B08F7007A08F6007908F500DA
:100B08007808F4000130A5070030A63D2608803A91
:100B1800F80080307802031D932DFF302502031C56
:100B2800A22DFF302000A5000030A6000030F700FD
:100B38000030F6000030F5000030F40020002608F0
:100B4800803AF80080307802031DAC2D0130250270
:100B58000318BA2D2000A501A6010030F7000030C7
:100B6800F6000030F5000030F400A401200025084C
:100B7800F8007808AB002B1CC32DF617C72D7F3063
:100B8800F8007808F6052B36F8007808F700AD2C41
:100B98002100CB003C08D0003D08D1003E08D2001F
:100BA8003F08D3004008D4004108D5004208D600C9
:100BB8004308D700D030860000308700473FC40084
:100BC800C41FE82D0130E92D00302100C500C60101
:100BD8004508CE004608CF004E084F040319122ED0
:100BE800D009D109D209D309D409D509D609D70919
:100BF800D00A031D122ED10A031D122ED20A031D7C
:100C0800122ED30A031D122ED40A031D122ED50A42
:100C1800031D122ED60A031D122ED70A2000E31B2D
:100C2800192EFD30E405FF30E5056308803A210000
:100C3800C40080304402031D242E013020006202CB
:100C480003182C2E01302100C9000030CA00342EB0
:100C5800200063082100CA00200062082100C900A2
:100C6800200061082100CD00200060082100CC0090
:100C78004E084F04031D432E2000641D482EFF30EC
:100C88002100CC07FF30CD3D1F302100D8000030B7
:100C9800D9002300BF01DE2E210050085104520460
:100CA80053045404550456045704031D752E4A086A
:100CB800803AC40080304402031D642E013049028A
:100CC8000318752E21004D08803AC4008030440274
:100CD800031D702E01304C02031CEA2E2000E41C78
:100CE800EA2EFF302100D807FF30D93D0A30A00096
:100CF800A101A201A301A401A501A601A701500811
:100D0800A8005108A9005208AA005308AB005408CB
:100D1800AC005508AD005608AE005708AF00873143
:100D28001D27853121002108B4002008B30088312F
:100D38006120853121003308303EC4005808A03EA8
:100D480086000130870044088100FF30C907FF3062
:100D5800CA3DFF30CC07FF30CD3D0A30A000A101CD
:100D6800A201A301A401A501A601A7015008A8009A
:100D78005108A9005208AA005308AB005408AC0057
:100D88005508AD005608AE005708AF008F31092747
:100D9800853121002008D0002108D1002208D20086
:100DA8002308D3002408D4002508D5002608D60037
:100DB8002708D70021005908803AC400803044022F
:100DC800031DE82E013058020318502E21004E084A
:100DD8004F04031DF22E2000641D0A2FFF3021004E
:100DE800D807FF30D93D4E084F04031DFD2E2B3088
:100DF800FE2E2D30C7000030C8004708C400580830
:100E0800A03E860001308700440881002100580870
:100E1800A03EC4004408B3004D08B5004C08B40017
:100E28004B088A31D92221003408BD003308BC00A0
:100E380008002100B201A830860000308700473F33
:100E4800B000B01F492F2100A809A909AA09AB09B8
:100E5800AC09AD09AE09AF09A80A031D462FA90AB6
:100E6800031D462FAA0A031D462FAB0A031D462F52
:100E7800AC0A031D462FAD0A031D462FAE0A031DFB
:100E8800462FAF0A2100B201B20AA0308600003016
:100E98008700473F2100B000B01F712F2100A00933
:100EA800A109A209A309A409A509A609A709A00AD5
:100EB800031D712FA10A031D712FA20A031D712F93
:100EC800A30A031D712FA40A031D712FA50A031D70
:100ED800712FA60A031D712FA70A210020082104DB
:100EE8002204230424042504260427040319C92FF3
:100EF800B101B10AA71B8D2FA035A10DA20DA30D1D
:100F0800A40DA50DA60DA70D0130B0003008B1073E
:100F18007E2F27082F02031DAB2F26082E02031D44
:100F2800AB2F25082D02031DAB2F24082C02031D0F
:100F3800AB2F23082B02031DAB2F22082A02031D07
:100F4800AB2F21082902031DAB2F20082802031C00
:100F5800BD2F2008A8022108A93B2208AA3B230884
:100F6800AB3B2408AC3B2508AD3B2608AE3B270825
:100F7800AF3BA736A60CA50CA40CA30CA20CA10C85
:100F8800A00C0130B102031D8D2F32080319EA2F7E
:100F9800A809A909AA09AB09AC09AD09AE09AF09A5
:100FA800A80A031DEA2FA90A031DEA2FAA0A031D8E
:100FB800EA2FAB0A031DEA2FAC0A031DEA2FAD0A7C
:100FC800031DEA2FAE0A031DEA2FAF0A21002808E5
:100FD800A0002908A1002A08A2002B08A3002C08B9
:100FE800A4002D08A5002E08A6002F08A7000800B9
:040FF80008000800E5
:101004002100A0012000101E0D2823009E1E0D2883
:101014002100A001A00A2100200808000B112000D3
:101024006F08950022006608670403190800670822
:101034008A0066080A00883108005D302100EF004C
:101044006F082200E3005C082100EB0022005B082B
:101054002100EA006330EF006F08EC0000308931B2
:10106400602108002100B800883102208831003A4C
:101074000319362821003808B3000130B400883140
:1010840093208831A0300032890B452808002100C4
:101094001508C0391438950083302000950083303A
:1010A4002100A20022082000EF000B118B16FC3057
:1010B4002100A0000730A1009731D42708002100A7
:1010C4003408803AB50080303502031D6B280130A6
:1010D40033020318080021003309B5003409B600AF
:1010E400B50A0319B60A3508B3003608B400080077
:1010F4002100A4002408A2002208A30024088600DA
:1011040001308700010803198C280130A20022084D
:10111400A407802823082402A000A101A01BA10386
:1011240008002100B701B70A3408AB003308AA004D
:10113400AC018931372188312100AB1B08000A300A
:10114400A2000030A300A4018A31022288312100C8
:10115400A31B0800B7010800F800F401F5017008AA
:10116400F200F3017208F6007308F700781CBE2839
:101174007608F4077708F53D0130F635F70D890B4D
:10118400BF280310F80C7808031DB8287508F1006F
:101194007408F000080048346534613472347434DF
:1011A400203452346134743465343A342034003495
:1011B400443469347334743461346E346334653460
:1011C4003A34203400345334703465346534643430
:1011D4003A34203400343F30F3008030F2000030E1
:1011E400F1000030F00022005708F7005608F6001E
:1011F4005508F5005408F40082316922730822006E
:10120400D7007208D6007108D5007008D4000130E8
:10121400C0070030C13D0030C23D0030C33D08006E
:10122400083023009F0080309D0024309E00A030B1
:101234009B0001309C0000302100A0000030A10080
:101244009731B927893100302100A0000030A10076
:101254009731C227893100302100A0000030A1005D
:101264009731B0272000E80108002100B101B20144
:101274002A08310784002B08323D85000008AD00A0
:101284002D08B000300803195B293008AD00AE0109
:101294002D08A2002E08A3002C08AF002F08A400DC
:1012A4008A310222893101302100B1070030B23D78
:1012B4003A293208AB003108AA0008002200D800FD
:1012C40021006B082200DA0021006A082200D900FC
:1012D400C801C901590884005A088500120003197D
:1012E4008A2959302100ED006D08DA006C08EE00FF
:1012F4006E08DB00220058088D3149258931210010
:101304005A082200C80721005B082200C93D6C2945
:1013140049082100EB00220048082100EA000800E7
:1013240022008C018D018E01373021008C00703039
:101334008D00FF308E004F3023008E0070308D0002
:1013440017308C0024008D018C018E01210095172B
:1013540025008C018D018E01373026008C00F03081
:101364008D00FF308E002700991398139717FD30D6
:101374002100A0000730A1009731CB278B15123034
:101384003D009F0008002100A4008831022089311B
:10139400003A0319C729FE309731DD278931A0307F
:1013A4000032890BD229EA292108803E9731DD27B2
:1013B40008002108C03E9731DD2708002108943E2B
:1013C4009731DD2708002108D43E9731DD27080036
:1013D40021002408A200A3012308003A0319F329D9
:1013E400012A2208013A0319D629033A0319DB29F1
:1013F400013A0319E029073A0319E529012A0800EB
:1014040021002408031D2408031D0D2A22089731F6
:101414008F278A31392A2408033E86008701160063
:1014240001040319302A2408033E86008701403F43
:10143400A500413FA600240A86008701403FA7007B
:10144400413FA8002808803AA9002608803A2902CA
:10145400031D2E2A250827020318392A2100240AED
:10146400860087010130810741310318810A210078
:101474002208A500A6012508A2002608A30008004A
:101484002000D701D51F4D2AD409D509D40A031940
:10149400D50AD701D70AD31F542AD209D309D20AAD
:1014A4000319D30A5208530403197B2AD601D60A16
:1014B400D31B662A0130D235D30D890B5D2A013046
:1014C400FD007D08D6075A2A53085502031D6C2ACD
:1014D40052085402031C722A5208D4025308D53B02
:1014E4000130D336D20C890B732A0130D602031D86
:1014F400662A57080319832AD409D509D40A03197B
:10150400D50A5508D3005408D2000800F601F11F8B
:10151400922AF009F109F00A0319F10AF601F60A10
:10152400F31F9D2AF209F309F20A0319F30A0130A1
:10153400F4007408F606F701F80170087104031941
:10154400CC2AF501F50AF11BB12A0130F035F10D71
:10155400890BA82A0130F4007408F507A52A013084
:10156400F735F80D890BB22A71087302031DBC2AE2
:1015740070087202031CC32A7008F2027108F33B5C
:1015840077140130F136F00C890BC42A0130F502CE
:10159400031DB12A76080319D42AF709F809F70AB2
:1015A4000319F80A7808F1007708F0000800210010
:1015B400BB002000641CEA2A21003308AA00013081
:1015C400AB003B08B6003608AC00893137218A31BC
:1015D4002100B51BF22A3508BA003408B900F42AF0
:1015E400B901BA01B701B8013808803AB6003A081F
:1015F400803A3602031D002B390837020318142BD6
:1016040020302100A2000030A3003B08B6003608B9
:10161400A4008A3102228A3101302100B707003048
:10162400B83DF62A20006418232B21003308AA00B1
:101634000130AB003B08B6003608AC0089313721D5
:101644008A312100330888317A20210039082007A3
:10165400B3003A08213DB400080003102000490DEE
:101664004A0DCB004B08D1005108031D422B00301A
:10167400CA000030C9000030C8000030C7000800AC
:101684004708CB004808CC004908CD004A08CE00E2
:101694001F30CE36CD0CCC0CCB0C890B4B2B4B080E
:1016A400CF004F08D000C917FF30C705FF30C80569
:1016B400FF30C9050030CA059630D102D11F752B01
:1016C4005108803A973E031C392B0130CA36C90CA5
:1016D400C80CC70C890B682B0130CB004B08D10711
:1016E4000319862B672B203051020318392B51081C
:1016F4000319862B0130C735C80DC90DCA0D890BD6
:101704007D2B0130D102792B500803190800C70939
:10171400C809C909CA09C70A0319C80A0319C90AA1
:101724000319CA0A080003102100220D230DA40086
:101734002408AA002A08031DA82B0030A3000030A7
:10174400A2000030A1000030A00008002008A4007E
:101754002108A5002208A6002308A7001F30A736E9
:10176400A60CA50CA40C890BB12B2408A8002808EE
:10177400A900A217FF30A005FF30A105FF30A20584
:101784000030A3059630AA02AA1FDB2B2A08803A50
:10179400973E031C9F2B0130A336A20CA10CA00C76
:1017A400890BCE2B0130A4002408AA070319EC2BC3
:1017B400CD2B20302A0203189F2B2A080319EC2B67
:1017C4000130A035A10DA20DA30D890BE32B01302F
:1017D400AA02DF2B290803190800A009A109A209FC
:1017E400A309A00A0319A10A0319A20A0319A30A47
:1017F4000800003021002005A80000302105A900C0
:1018040080302205AA007F302305AB002B082A0470
:1018140029042804031D162C0030A3000030A20064
:101824000030A1000030A00000302405A8000030E2
:101834002505A90080302605AA007F302705AB00C6
:101844002B082A0429042804031D302C0030A70087
:101854000030A6000030A5000030A400A31F4A2CCD
:101864000030A8000030A9000030AA008030AB008E
:101874002008A8022108A93B2208AA3B2308AB3B65
:101884002B08A3002A08A2002908A1002808A00008
:10189400A71F642C0030A8000030A9000030AA0063
:1018A4008030AB002408A8022508A93B2608AA3BDF
:1018B4002708AB3B2B08A7002A08A6002908A50087
:1018C4002808A4008030A3068030A7062708230236
:1018D400031D080026082202031D08002508210212
:1018E400031D08002408200208009731E7278C31E3
:1018F400ED302100A0000830A1009731D4278C31AD
:1019040025302100A0000E30A1009731CB278C3167
:1019140015302200E5004B30E400BE30890B902CDA
:10192400E40B902CE50B902C00009731A8278C3108
:101934008B170B172100A10101308931C5218C318E
:101944003830883134208C312100A10102308931B2
:10195400C5218C312D30883134208C312100A101F6
:1019640003308931C5218C312030883134208C31C9
:101974002100A10104308931C5218C3107302200B6
:10198400E40064082100A10001308931C5218C31B3
:1019940046302100A3006A30A2006030A10000306C
:1019A400A000220057082100A700220056082100A9
:1019B400A600220055082100A50022005408210099
:1019C400A4008B31FB238C31031CF62C0030220045
:1019D400DB009030DC004D08DE004C08DD004F08D1
:1019E400E0004E08DF00FB2C0F302200DB009030BB
:1019F400DC0088311F208C310A302200E4006408A6
:101A04002100A10002308931C5218C310A30220025
:101A1400DB009830DC005308DE005208DD0051087A
:101A2400E0005008DF0088311F208C310D30220087
:101A3400E40064082100A10003308931C5218C3100
:101A4400220047082100A300220046082100A2002A
:101A5400220045082100A100220044082100A00022
:101A64008B3195238C31210021082200CB002100E9
:101A740020082200CA000030DB009830DC004B084C
:101A8400DE004A08DD0088311F208C319C2C2100A7
:101A9400E9005A08860001308700403FDC00413FDE
:101AA400DD005C0884005D0885001200253A031DF2
:101AB400002E5A0886000130870001308107413129
:101AC4000318810A2000E001E101E401E501FF308F
:101AD400E200FF30E30021005A088600013087004D
:101AE400403FDC00413FDD005C0884005D08850068
:101AF4001200643A03198E2D5A08860001308700BB
:101B0400403FDC00413FDD005C0884005D08850047
:101B14001200693A031DCB2D5A0886000130870054
:101B24000130810741310318810A5B0886000130C6
:101B34008700010884000130850002308107003FDE
:101B4400DC00013FDD005C08E1005D08E200890D76
:101B5400893B8909E300E400E500E600E700E800CA
:101B64006108BC006208BD006308BE006408BF00D1
:101B74006508C0006608C1006708C2006808C300A1
:101B840069088531CC2521003D08DB003C08DA00DA
:101B940008005A08860001308700403FDC00413FBE
:101BA400DD005C0884005D0885001200253A031DF1
:101BB400F42D5A0886000130870001308107413135
:101BC4000318810A2530A2000030A3006908DC0054
:101BD4005C08A4008A31022201302100DA000030BE
:101BE400DB0008005A0886000130870001308107B5
:101BF40041310318810ADA01DB0108005A08860022
:101C040001308700403FDC00413FDD005C08840078
:101C14005D0885000008DE00DF015E08A2005F08A1
:101C2400A3006908E0006008A4008A3102228D3113
:101C340021005A08860001308700013081074131B4
:101C44000318810AEE2D42302000B0007030AF003E
:101C54000030AE000030AD0022005708F3005608F3
:101C6400F2005508F1005408F0004430F7007A30CF
:101C7400F6000030F5000030F400843152248E3137
:101C840073082000B4007208B3007108B200700831
:101C9400B10080313D208E3120003008EC002F0847
:101CA400EB002E08EA002D08E9004030B0000030B7
:101CB400AF000030AE000030AD006C08B4006B081B
:101CC400B3006A08B2006908B10080313D208E314A
:101CD40020003008DB002F08DA002E08D9002D0878
:101CE400D8003D30B0007530AF00C230AE008F3048
:101CF400AD005B08B4005A08B3005908B200580894
:101D0400B10080313D208E3120003008DF002F08E3
:101D1400DE002E08DD002D08DC005F08CA005E0826
:101D2400C9005D08C8005C08C7008B312F238E31C1
:101D3400200048082200CD00200047082200CC00E3
:101D44000A302000D2000030D3005F08B4005E08DF
:101D5400B3005D08B2005C08B1004130B00020302F
:101D6400AF000030AE000030AD0080313D208E3138
:101D740020003008CA002F08C9002E08C8002D080A
:101D8400C7008B312F238E3120004808D500470827
:101D9400D4008A3142228E31200053082200CF0021
:101DA400200052082200CE000030D7000030D600B8
:101DB4000030D5000030D40020006608023EE60062
:101DC4000030673DE700E830D2000330D3006708F5
:101DD400D5006608D4008A3142228E31200053088F
:101DE4002200D100200052082200D000E830F00088
:101DF4000330F10020006708F3006608F2008A311E
:101E0400882271082200D3007008D2000800210043
:101E1400B201A030860000308700473FB000B01FF9
:101E2400352F2100A009A109A209A309A409A50924
:101E3400A609A709A00A031D322FA10A031D322FE8
:101E4400A20A031D322FA30A031D322FA40A031D65
:101E5400322FA50A031D322FA60A031D322FA70A0B
:101E64002100B201B20AA830860000308700473F43
:101E74002100B000B01F622F2100A809A909AA09F6
:101E8400AB09AC09AD09AE09AF09A80A031D5D2F62
:101E9400A90A031D5D2FAA0A031D5D2FAB0A031DAA
:101EA4005D2FAC0A031D5D2FAD0A031D5D2FAE0A25
:101EB400031D5D2FAF0A01302100B0003008B206C7
:101EC400B33086000030870008302100B0000030B5
:101ED4001E00B00B6A2F20082104220423042404CA
:101EE4002504260427040319CD2FB101B10AA71B29
:101EF400882FA035A10DA20DA30DA40DA50DA60D2F
:101F0400A70D0130B0003008B107792FB335B40DF7
:101F1400B50DB60DB70DB80DB90DBA0D27082F02C2
:101F2400031DAE2F26082E02031DAE2F25082D02F9
:101F3400031DAE2F24082C02031DAE2F23082B02F1
:101F4400031DAE2F22082A02031DAE2F21082902E9
:101F5400031DAE2F20082802031CC12F2008A8024D
:101F64002108A93B2208AA3B2308AB3B2408AC3B2D
:101F74002508AD3B2608AE3B2708AF3B3314A736F4
:101F8400A60CA50CA40CA30CA20CA10CA00C013053
:101F9400B102031D882F32080319EE2FB309B409C7
:101FA400B509B609B709B809B909BA09B30A031DCD
:101FB400EE2FB40A031DEE2FB50A031DEE2FB60A49
:101FC400031DEE2FB70A031DEE2FB80A031DEE2FD3
:101FD400B90A031DEE2FBA0A21003308A000340801
:101FE400A1003508A2003608A3003708A400380869
:101FF400A5003908A6003A08A7000800253464346F
:102004002E342534643420346B34703468342034F2
:1020140020342034203420340034303420346B34E1
:102024007034683420342034203420342034203474
:06203400203420340034CA
:102F12002700991F08009731F32708002100A1001C
:102F220021089731DD270800640080010131890BF7
:102F3200962F0034FE0012001E00FE0B9C2F003460
:102F42007A3021009900980122009601080013307E
:102F52002100B3009830B40088319320080021008A
:102F620021082200E900210020082200E8000800D0
:102F7200210021082200ED00210020082200EC009F
:102F82000800210021082200EB0021002008220075
:102F9200EA000800210021082000EE00210020089C
:102FA2002000ED000800210021082200E700210096
:102FB20020082200E60008002100A0002000101EC8
:102FC200DF2F2100200823009A0008008931922176
:102FD20097319731A127973188314920973189312B
:102FE2001221080020006D086E040319FD2F6E08DF
:102FF2008A006D080A0097312700991308002534CA
:1030020064342034623470346D34203420342034FB
:103012000034253464342E342534643420346B3443
:0A3022006D3400347C342D3400348A
:020000040001F9
:06000E00FC3FFF1E9F3FB6
:00000001FF
