:020000040000FA
:04000000803114280F
:100008007E1480318B1A0B1D0D2889317F21803198
:1000180012288B190B1C12288831FE207E1009002B
:1000280080311628493084008A30850020308600C7
:100038000130870020308931102180314030840020
:1000480000308500113089310A2180315A3084000E
:1000580001308500083089310A218031A0308400C0
:1000680001308500203089310A217E1020008E3130
:10007800742E200023088039F9007908A800233558
:10008800F9007908AE00A21B2E142E08031959286E
:100098002E0A031D57280030A3000030A2000030AC
:1000A800A1000030A000A21761280030A300003092
:1000B800A2000030A1000030A00027088039F90014
:1000C8007908A8062735F9007908AD00A61B2D1474
:1000D8002D0803197C282D0A031D7A280030A70053
:1000E8000030A6000030A5000030A400A617842820
:1000F8000030A7000030A6000030A5000030A400A2
:100108002D08031D2E08031D92280030A30000307F
:10011800A2000030A1000030A00008002008F9006B
:100128007908F00026088A312A22803171082000D7
:10013800B4007008B3003308F900FA01FB01FC01B0
:100148007C08AC007B08AB007A08AA007908A900F3
:100158003408F900FA01FB01FC017C08B2007B08B5
:10016800B1007A08B0007908AF002108F9007908D1
:10017800F00025088A312A22803171082000B40055
:100188007008B3003308F900FA01FB01FC01790893
:10019800A9077A08AA3D7B08AB3D7C08AC3D34082A
:1001A800F900FA01FB01FC017908AF077A08B03DB4
:1001B8007B08B13D7C08B23D2208F9007908F000BF
:1001C80024088A312A22803171082000B40070087E
:1001D800B3003308F900FA01FB01FC017908A9070B
:1001E8007A08AA3D7B08AB3D7C08AC3D3408F90091
:1001F800FA01FB01FC017908AF077A08B03D7B08DA
:10020800B13D7C08B23D0830A935AA0DAB0DAC0D47
:10021800890B08292108F9007908F00024088A3197
:100228002A22803171082000B4007008B300330816
:10023800A9073408AA3D0030AB3DAC3D2008F900C1
:100248007908F00025088A312A22803171082000B7
:10025800B4007008B3003308A9073408AA3D003079
:10026800AB3DAC3D0830A935AA0DAB0DAC0D890BE3
:1002780037292008F9007908F00024088A312A2251
:10028800803171082000B4007008B3003308A90752
:100298003408AA3D0030AB3DAC3D2108F90079088F
:1002A800F00026088A312A22803171082000B40023
:1002B8007008B3003308AF073408B03D0030B13DD3
:1002C800B23D2208F9007908F00025088A312A226F
:1002D800803171082000B4007008B3003308AF07FC
:1002E8003408B03D0030B13DB23D2208F90079082C
:1002F800F00026088A312A22803171082000B400D3
:100308007008B3003308F9003408FA00FB01FC0157
:100318000830F935FA0DFB0DFC0D890B8D2979088C
:10032800AF077A08B03D7B08B13D7C08B23D29088B
:10033800F9002A08FA002B08FB002C08FC001830EA
:10034800FC36FB0CFA0CF90C890BA4297908AF07C9
:100358007A08B03D7B08B13D7C08B23D0830A9352C
:10036800AA0DAB0DAC0D890BB3292E082D07F9008A
:10037800FA01FA0D7908823EB300FF307A3DB400E5
:10038800B11BDB290130AF35B00DB10DB20D890BB2
:10039800C729AC1B2F140130A935AA0DAB0DAC0D24
:1003A800890BD029FF30B307FF30B43DC429AD0114
:1003B800AC1FF429FF302905F900FF302A05FA009F
:1003C800FF302B05FB007F302C05FC007C087B04EC
:1003D8007A04790403192F18F229F429AD01AD0A1A
:1003E8002D0803191D2A0130AF070030B03D003039
:1003F800B13D0030B23D321C1D2A2F08F9003008EB
:10040800FA003108FB003208FC000130FD00FC371F
:10041800FB0CFA0CF90CFD0B0B2A7C08B2007B08CC
:10042800B1007A08B0007908AF000130B307003096
:10043800B43D3408803AF90080307902031D262A39
:10044800FF303302031C322A7F302000B200803094
:10045800B1000030B0000030AF005C2A2000340842
:10046800803AF90080307902031D3C2A01303302BA
:100478000318492A00302000B2000030B1000030D3
:10048800B0000030AF00A8015C2A20003308F90052
:100498007908AE00FF30AF05FF30B0057F30B105F9
:1004A8000030B2052E18B1172E36F9007908B200BF
:1004B8002808F9007908B2043208A3003108A2001C
:1004C8003008A1002F08A000080073088039200018
:1004D800A0002008F8007335A0002008FA00F21BDD
:1004E8007A147A080319862A7A0A031D832A0030A7
:1004F800F3000030F2000030F1000030F000F21795
:10050800F3018E2A0030F3000030F2000030F100D1
:100518000030F00077088039A0002008F900790839
:100528007806031D78177735A0002008F900F61B18
:10053800791479080319AE2A790A031DAB2A003009
:10054800F7000030F6000030F5000030F400F61730
:10055800F701B62A0030F7000030F6000030F50049
:100568000030F4007A0879020318FC2A781FC02AA0
:100578008030A0002008F8067A08A0002008FB00B8
:100588007908A0002008FA007B08A0002008F900DC
:100598007008A0002008FB007408A0002008F000E4
:1005A8007B08A0002008F4007108A0002008FB00C8
:1005B8007508A0002008F1007B08A0002008F500BD
:1005C8007208A0002008FB007608A0002008F200AE
:1005D8007B08A0002008F6007308A0002008FB0094
:1005E8007708A0002008F3007B08A0002008F70087
:1005F800FB017908A000A1012108A3007A082002C4
:10060800A200031CA3032308803AA400803024021C
:10061800031D102B1A302202031C462B7308720488
:100628007104700403191A2B01301B2B00302000B1
:10063800A0002008FB000030F3000030F20000307A
:10064800F1000030F0007908A0002008FA004A2BD9
:100658007B1C352B7B3601382000A0002008FB00CE
:10066800372B0310FB0C7018FB1701302000A0007B
:10067800F337F20CF10CF00CA00B3C2B0130A0006E
:100688002008FA0779087A02031C2C2B781B7D2B8B
:100698007A08031D582B0030F3000030F2000030B8
:1006A800F1000030F00008007408F0077508F13D0B
:1006B8007608F23D7708F33D731CF82B7B1C6B2BF7
:1006C8007B3601382000A0002008FB006D2B0310AA
:1006D800FB0C7018FB1701302000A000F337F20C58
:1006E800F10CF00CA00B722B0130A0002008FA07C7
:1006F800F82B7308803A2000A0007708803A20027F
:10070800031D902B76087202031D902B7508710249
:10071800031D902B740870020318C82BFF30A0002B
:10072800FF30A100FF30A200FF30A3007008740260
:10073800A4007108753BA5007208763BA6007308F3
:10074800773BA7002408A0072508A13D2608A23D5D
:100758002708A33D2308F3002208F2002108F1002E
:100768002008F0008030A0002008F806FB09FB0AEA
:100778007B08031DD02B0130F0070030F13D00301D
:10078800F23D0030F33DD02B7408F0027508F13BC0
:100798007608F23B7708F33B73087204710470041F
:1007A800031DF62B7B08031DF62B0030F3000030E9
:1007B800F2000030F1000030F00008000130F035A0
:1007C800F10DF20DF30D890BE32BFB1B70147B1C51
:1007D800EF2B0314F02B0310FB0D7A080319F62BEB
:1007E8000130FA02F21FE22BF901FB1F032C7B08F0
:1007F8007F3903197018012C032CF901F90A7908BB
:100808000319302C0130F0070030F13D0030F23D83
:100818000030F33D731C302C70082000A0007108D4
:10082800A1007208A2007308A3000130A400A33736
:10083800A20CA10CA00CA40B1B2C2308F30022086B
:10084800F2002108F1002008F0007A0A0319302C80
:100858000130A0002008FA077A0A031D7A08031D50
:10086800402C0030F3000030F2000030F10000307E
:10087800F0007A080319F8017A1C442CF217492C65
:100888007F302000A0002008F2057A362000A00062
:100898002008F300F81F0800F31708002100C9001A
:1008A8003C08D0003D08D1003E08D2003F08D300E4
:1008B8004008D4004108D5004208D6004308D700B4
:1008C800D030860000308700473FC400C41F6E2C1C
:1008D80001306F2C00302100C500C6014508CE004C
:1008E8004608CF004E084F040319982CD009D109A7
:1008F800D209D309D409D509D609D709D00A031DC5
:10090800982CD10A031D982CD20A031D982CD30ABF
:10091800031D982CD40A031D982CD50A031D982C66
:10092800D60A031D982CD70A2000C91B9F2CFD301E
:10093800CA05FF30CB054908803A2100C400803041
:100948004402031DAA2C0130200048020318B22CCF
:1009580001302100CA000030CB00BA2C2000490821
:100968002100CB00200048082100CA0020004708C9
:100978002100CD00200046082100CC004E084F047D
:10098800031DC92C20004A1DCE2CFF302100CC07A6
:10099800FF30CD3D1F302100D8000030D9002300A2
:1009A800BF01642D2100500851045204530454041B
:1009B800550456045704031DFB2C4B08803AC40009
:1009C80080304402031DEA2C01304A020318FB2C34
:1009D80021004D08803AC40080304402031DF62CE3
:1009E80001304C02031C702D2000CA1C702DFF30F2
:1009F8002100D807FF30D93D0A30A000A101A2018B
:100A0800A301A401A501A601A7015008A800510847
:100A1800A9005208AA005308AB005408AC005508B6
:100A2800AD005608AE005708AF008F31212784313A
:100A380021002108B4002008B3008931DD21843168
:100A480021003308303EC4005808A03E860001301B
:100A5800870044088100FF30CA07FF30CB3DFF30D4
:100A6800CC07FF30CD3D0A30A000A101A201A301AF
:100A7800A401A501A601A7015008A8005108A900D2
:100A88005208AA005308AB005408AC005508AD0042
:100A98005608AE005708AF008631B12684312100D0
:100AA8002008D0002108D1002208D2002308D30052
:100AB8002408D4002508D5002608D6002708D70022
:100AC80021005908803AC40080304402031D6E2D6D
:100AD800013058020318D62C21004E084F04031D7C
:100AE800782D20004A1D902DFF302100D807FF30B7
:100AF800D93D4E084F04031D832D2B30842D2D30F6
:100B0800C7000030C8004708C4005808A03E860047
:100B1800013087004408810021005808A03EC40025
:100B28004408B3004D08B5004C08B40049088731A3
:100B3800A82721003408BD003308BC0008002100A4
:100B4800EB005A08860001308700403FDC00413F37
:100B5800DD005C0884005D0885001200253A031D4D
:100B68008C2E5A08860001308700013081074131F8
:100B78000318810A2000C601C701CA01CB01FF3052
:100B8800C800FF30C90021005A08860001308700DC
:100B9800403FDC00413FDD005C0884005D088500C3
:100BA8001200643A0319E82D5A08860001308700BC
:100BB800403FDC00413FDD005C0884005D088500A3
:100BC8001200693A031D252E5A0886000130870055
:100BD8000130810741310318810A5B088600013022
:100BE8008700010884000130850002308107003F3A
:100BF800DC00013FDD005C08E1005D08E200890DD2
:100C0800893B8909E300E400E500E600E700E80025
:100C18006108BC006208BD006308BE006408BF002C
:100C28006508C0006608C1006708C2006808C300FC
:100C38006B088431522421003D08DB003C08DA00AF
:100C480008005A08860001308700403FDC00413F19
:100C5800DD005C0884005D08850012006E3A031D03
:100C6800592E5A088600013087000130810741312A
:100C78000318810A5B088600013087000108840098
:100C88000130850002308107003FE900013FEA009A
:100C9800690886006A08870020004408C03F4508A4
:100CA800C13F2100DA01DB0108005A088600013043
:100CB8008700403FDC00413FDD005C0884005D08A0
:100CC80085001200253A031D822E5A08860001303D
:100CD80087000130810741310318810A2530A200BD
:100CE8000030A3006B08DC005C08A4008B318E2365
:100CF80001302100DA000030DB0008005A088600C5
:100D0800013087000130810741310318810A552ECF
:100D18005A08860001308700403FDC00413FDD0073
:100D28005C0884005D0885000008DE00DF015E08BD
:100D3800A2005F08A3006B08E0006008A4008B31E4
:100D48008E23853121005A08860001308700013042
:100D5800810741310318810A7C2E2100B201A0309D
:100D6800860000308700473FB000B01FDD2E21000D
:100D7800A009A109A209A309A409A509A609A70907
:100D8800A00A031DDA2EA10A031DDA2EA20A031DEA
:100D9800DA2EA30A031DDA2EA40A031DDA2EA50AE9
:100DA800031DDA2EA60A031DDA2EA70A2100B201B6
:100DB800B20AA830860000308700473F2100B00003
:100DC800B01F0A2F2100A809A909AA09AB09AC0973
:100DD800AD09AE09AF09A80A031D052FA90A031D0D
:100DE800052FAA0A031D052FAB0A031D052FAC0A00
:100DF800031D052FAD0A031D052FAE0A031D052F80
:100E0800AF0A01302100B0003008B206B3308600C6
:100E18000030870008302100B00000301E00B00B01
:100E2800122F200821042204230424042504260464
:100E380027040319752FB101B10AA71B302FA0355C
:100E4800A10DA20DA30DA40DA50DA60DA70D013092
:100E5800B0003008B107212FB335B40DB50DB60D6C
:100E6800B70DB80DB90DBA0D27082F02031D562F5F
:100E780026082E02031D562F25082D02031D562F66
:100E880024082C02031D562F23082B02031D562F5E
:100E980022082A02031D562F21082902031D562F56
:100EA80020082802031C692F2008A8022108A93B52
:100EB8002208AA3B2308AB3B2408AC3B2508AD3BE2
:100EC8002608AE3B2708AF3B3314A736A60CA50C63
:100ED800A40CA30CA20CA10CA00C0130B102031DA0
:100EE800302F32080319962FB309B409B509B6098A
:100EF800B709B809B909BA09B30A031D962FB40A84
:100F0800031D962FB50A031D962FB60A031D962FAB
:100F1800B70A031D962FB80A031D962FB90A031D99
:100F2800962FBA0A21003308A0003408A10035081A
:100F3800A2003608A3003708A4003808A50039081D
:100F4800A6003A08A70008002100BB0020004A1CA0
:100F5800B92F21003308AA000130AB003B08B600C6
:100F68003608AC008A318E2287312100B51BC12F8B
:100F78003508BA003408B900C32FB901BA01B7015E
:100F8800B8013808803AB6003A08803A3602031D9C
:100F9800CF2F390837020318E32F20302100A20091
:100FA8000030A3003B08B6003608A4008B318E231E
:100FB800873101302100B7070030B83DC52F200028
:100FC8004A18F22F21003308AA000130AB003B0871
:100FD800B6003608AC008A318E22873121003308EA
:100FE8008931F621210039082007B3003A08213D4C
:080FF800B40008000800080025
:1011FC002700991F08008931722108002100A100E5
:10120C00210889315C210800640080010131890BBF
:10121C000B290034FE0012001E00FE0B11290034B5
:10122C007A302100990098012200960108000C30B8
:10123C002100B3009030B4008A310F220800210045
:10124C0021082000D600210020082000D50008002D
:10125C00210021082000DA00210020082000D900FC
:10126C000800210021082000D800210020082000BF
:10127C00D7000800210021082000D40021002008FC
:10128C002000D3000800210021082000D2002100FA
:10129C0020082000D100080001302000C0070030D9
:1012AC00C13D0030C23D0030C33D08002100A0000C
:1012BC002000101E5E292100200823009A0008003F
:1012CC008A31E72289318931162189318931C52149
:1012DC0089318A316922080020005308540403190B
:1012EC007C2954088A0053080A0089312700991375
:1012FC0008000B1120005B089500510852040319DB
:10130C00080052088A0051080A008931080021009F
:10131C00A0012000101E982923009E1E9829210050
:10132C00A001A00A21002008080047302100EF008E
:10133C006F082200CB0046082100ED002200450872
:10134C002100EC004B30EF006F08EE0000308B31C9
:10135C001A2308002100B80089318D218931003A07
:10136C000319B22921003808B3000130B4008A31C6
:10137C000F228931A0300032890BC12908002100CD
:10138C001508C0391438950083302000950083303F
:10139C002100A20022082000DB000B118B16FE306E
:1013AC002100A0000730A10089314921080021004B
:1013BC003408803AB50080303502031DE72901302E
:1013CC0033020318080021003309B5003409B600B4
:1013DC00B50A0319B60A3508B3003608B40008007C
:1013EC002100A4002408A2002208A30024088600DF
:1013FC000130870001080319082A0130A2002208D5
:10140C00A407FC2923082402A000A101A01BA1030E
:10141C0008002100B701B70A3408AB003308AA0052
:10142C00AC018A318E228A312100AB1B08000A30B4
:10143C00A2000030A300A4018B318E238A3121003D
:10144C00A31B0800B7010800F800F401F5017008AF
:10145C00F200F3017208F6007308F700781C3A2AC0
:10146C007608F4077708F53D0130F635F70D890B52
:10147C003B2A0310F80C7808031D342A7508F10078
:10148C007408F000080048346534613472347434E4
:10149C00203452346134743465343A34203400349A
:1014AC00443469347334743461346E346334653465
:1014BC003A34203400345334703465346534643435
:1014CC003A3420340034083023009F0080309D00D3
:1014DC0024309E00A0309B0001309C000030210085
:1014EC00A0000030A10089312E218A31003021006A
:1014FC00A0000030A100893137218A310030210051
:10150C00A0000030A100893125212000CC01080069
:10151C002100B101B2012A08310784002B08323DA9
:10152C0085000008AD002D08B00030080319B22A60
:10153C003008AD00AE012D08A2002E08A3002C0827
:10154C00AF002F08A4008B318E238A31013021008B
:10155C00B1070030B23D912A3208AB003108AA0025
:10156C0008000030FC000030FB000030FA000030B6
:10157C00F9002000261CCA2A2A08F9072B08FA3D74
:10158C002C08FB3D2D08FC3D0130AA35AB0DAC0DF4
:10159C00AD0D890BCB2A0130A936A80CA70CA60CD3
:1015AC00890BD22A2908280427042604031DBF2AE4
:1015BC007C08A9007B08A8007A08A7007908A60077
:1015CC00080022008C018D018E01373021008C0027
:1015DC0070308D00FF308E004F3023008E00703045
:1015EC008D0017308C0024008D018C018E012100A0
:1015FC00951725008C018D018E01373026008C004B
:10160C00F0308D00FF308E00270099139813971738
:10161C00FF302100A0000730A100893140218B153B
:10162C0012303D009F0008002200C20021006D080E
:10163C002200C40021006C082200C3002000C40159
:10164C00C5012200430884004408850012000319D8
:10165C00482B4330C00040082100DA006E082200FD
:10166C00C10041082100DB00220042088531A3257E
:10167C008B3121005A082000C40721005B08200090
:10168C00C53D272B200045082100ED002000440813
:10169C002100EC0008002100A40089318D218B3140
:1016AC00003A0319532BFE3089315C218B31A03069
:1016BC000032890B5E2B762B2108803E89315C2110
:1016CC0008002108C03E89315C2108002108943EA5
:1016DC0089315C2108002108D43E89315C21080045
:1016EC0021002408A200A3012308003A03197F2B30
:1016FC008D2B2208013A0319622B033A0319672B2D
:10170C00013A03196C2B073A0319712B8D2B080026
:10171C0021002408031D2408031D992B220889315C
:10172C0004218B31C52B2408033E8600870116004B
:10173C0001040319BC2B2408033E86008701403F9B
:10174C00A500413FA600240A86008701403FA70060
:10175C00413FA8002808803AA9002608803A2902AF
:10176C00031DBA2B250827020318C52B2100240AB8
:10177C00860087010130810741310318810A21005D
:10178C002208A500A6012508A2002608A30008002F
:10179C0003102100220D230DA4002408AA002A08FE
:1017AC00031DE12B0030A3000030A2000030A1008B
:1017BC000030A00008002008A4002108A500220881
:1017CC00A6002308A7001F30A736A60CA50CA40C56
:1017DC00890BEA2B2408A8002808A900A217FF30BF
:1017EC00A005FF30A105FF30A2050030A3059630FF
:1017FC00AA02AA1F142C2A08803A973E031CD82B45
:10180C000130A336A20CA10CA00C890B072C0130C3
:10181C00A4002408AA070319252C062C20302A0220
:10182C000318D82B2A080319252C0130A035A10D3B
:10183C00A20DA30D890B1C2C0130AA02182C29080F
:10184C0003190800A009A109A209A309A00A0319F8
:10185C00A10A0319A20A0319A30A08002000A10176
:10186C00F31F452CF009F109F209F309F00A0319E9
:10187C00F10A0319F20A0319F30AA101A10AF71FCD
:10188C00562CF409F509F609F709F40A0319F50AB7
:10189C000319F60A0319F70A0130F8007808A106B3
:1018AC000030A5000030A4000030A3000030A200DE
:1018BC00730872047104700403199F2CA001A00A10
:1018CC00F31B742C0130F035F10DF20DF30D890B77
:1018DC00692C0130F8007808A007662C0130A2357D
:1018EC00A30DA40DA50D890B752C73087702031D90
:1018FC00892C72087602031D892C71087502031D50
:10190C00892C70087402031C942C7008F402710862
:10191C00F53B7208F63B7308F73B22140130F336A3
:10192C00F20CF10CF00C890B952C0130A002031D6C
:10193C00742C21080319AD2CA209A309A409A5092B
:10194C00A20A0319A30A0319A40A0319A50A250854
:10195C00F3002408F2002308F1002208F00008002C
:10196C00262D0830CE004E082100A10001308B310D
:10197C0051238C312200CF01D0010F302200C50041
:10198C009030C60089319B218C3101302200CF0769
:10199C000030D03D5008803ACE0080304E02031DFE
:1019AC00D92C0C304F02031CC32C0B302200CE0060
:1019BC004E082100A10002308B3151238C312200C2
:1019CC00D101D2010F302200C5009030C600893100
:1019DC009B218C3101302200D1070030D23D5208BE
:1019EC00803ACE0080304E02031DFE2C093051028D
:1019FC00031CE82C0D302200CE004E082100A10063
:101A0C0003308B3151238C312200D301D4010F30A0
:101A1C002200C5009030C60089319B218C310130E9
:101A2C002200D3070030D43D5408803ACE008030D9
:101A3C004E02031D232D07305302031808000D2DF1
:101A4C0022004D08003A03192C2D3A2D4C08013A6E
:101A5C000319B72C033A0319DB2C013A0319002D97
:101A6C00073A03193A2D3A2D08002000B600360823
:101A7C00031DB11F512D2E09B8002F09B9003009D3
:101A8C00BA003109BB00B80A0319B90A0319BA0A1A
:101A9C000319BB0A592D3108BB003008BA002F08B6
:101AAC00B9002E08B800310830042F042E04031D91
:101ABC00682D0030B1000030B0000030AF000030B5
:101ACC00AE0008009630B2003208B700FE303B057D
:101ADC0003198F2D0130B2003208B7070130BB3625
:101AEC00BA0CB90CB80C890B752D6C2D0130B200E9
:101AFC003208B7070130B8070030B93D0030BA3DA5
:101B0C000030BB3D0130BB36BA0CB90CB80C890B9C
:101B1C00892DFF303B050319A12D7C2D0230370296
:101B2C00031CA32D0130B7020130B835B90DBA0D25
:101B3C00BB0D890B9B2DBA1F942D3718AD2DFF3083
:101B4C00B805FF30B9057F30BA05FF30BB0503106F
:101B5C00B70C3708B200B301B401B5011830B23577
:101B6C00B30DB40DB50D890BB52D3208B80433087F
:101B7C00B9043408BA043508BB043608031DB11F78
:101B8C00C82DBB173B08B1003A08B0003908AF00AC
:101B9C003808AE00080000302000AD000030AC006A
:101BAC000030AB003C30AA004308F7004208F600B6
:101BBC004108F5004008F4000030F3000030F2005A
:101BCC000330F100E830F0008C3134248D3173088F
:101BDC002000A9007208A8007108A7007008A600D0
:101BEC008A31B7228D3120002908B1002808B000B5
:101BFC002708AF002608AE0001308D313B258D3112
:101C0C0020003108D0003008CF002F08CE002E085D
:101C1C00CD004030A3000030A2000030A100003005
:101C2C00A0005008A7004F08A6004E08A5004D08BC
:101C3C00A40080313D208D3120002308BF002208F4
:101C4C00BE002108BD002008BC003D30A30075304B
:101C5C00A200C230A1008F30A0003F08A7003E08B0
:101C6C00A6003D08A5003C08A40080313D208D3124
:101C7C00200023082200E100200022082200E000BE
:101C8C00200021082200DF00200020082200DE00B6
:101C9C0000302000C3000030C2000030C100003012
:101CAC00C0004030F3000030F2000030F100003092
:101CBC00F00022005D08F7005C08F6005B08F500F8
:101CCC005A08F4008231692273082200DD00720880
:101CDC00DC007108DB007008DA000800893166212D
:101CEC008E3152302100A0000930A10089314921E8
:101CFC008E31D1302100A0000D30A100893140215E
:101D0C008E3189311D218E312100A10101308B31A1
:101D1C0051238E3138308931B0218E312100A1010F
:101D2C0002308B3151238E312D308931B0218E31DF
:101D3C002100A10103308B3151238E3120308931A8
:101D4C00B0218E312100A10104308B3151238E3111
:101D5C008B170B1701302200CC000030CD008C31DA
:101D6C00B6248E310A302200D50055082100A1007E
:101D7C0001308B3151238E31220061082100A300E8
:101D8C00220060082100A20022005F082100A100AF
:101D9C0022005E082100A0008B31CE238E31210061
:101DAC0021082200D700210020082200D600003094
:101DBC00C5009030C6005708C8005608C7008931C6
:101DCC009B218E3102302200CC000030CD008C31B2
:101DDC00B6248E310B302200D50055082100A1000D
:101DEC0002308B3151238E3122005D082100A3007B
:101DFC0022005C082100A20022005B082100A10047
:101E0C0022005A082100A0008B31CE238E312100F4
:101E1C0021082200D900210020082200D800073018
:101E2C00C5009030C6005908C8005808C700893151
:101E3C009B218E31B02E2100B201A83086000030DB
:101E4C008700473FB000B01F4D2F2100A809A909FA
:101E5C00AA09AB09AC09AD09AE09AF09A80A031D63
:101E6C004A2FA90A031D4A2FAA0A031D4A2FAB0A9F
:101E7C00031D4A2FAC0A031D4A2FAD0A031D4A2F1E
:101E8C00AE0A031D4A2FAF0A2100B201B20AA030DC
:101E9C00860000308700473F2100B000B01F752F2F
:101EAC002100A009A109A209A309A409A509A60951
:101EBC00A709A00A031D752FA10A031D752FA20ADD
:101ECC00031D752FA30A031D752FA40A031D752F5F
:101EDC00A50A031D752FA60A031D752FA70A21003D
:101EEC0020082104220423042404250426042704A6
:101EFC000319CD2FB101B10AA71B912FA035A10D4C
:101F0C00A20DA30DA40DA50DA60DA70D0130B000BB
:101F1C003008B107822F27082F02031DAF2F260888
:101F2C002E02031DAF2F25082D02031DAF2F2408F1
:101F3C002C02031DAF2F23082B02031DAF2F2208E9
:101F4C002A02031DAF2F21082902031DAF2F2008E1
:101F5C002802031CC12F2008A8022108A93B220833
:101F6C00AA3B2308AB3B2408AC3B2508AD3B260819
:101F7C00AE3B2708AF3BA736A60CA50CA40CA30CB4
:101F8C00A20CA10CA00C0130B102031D912F320840
:101F9C000319EE2FA809A909AA09AB09AC09AD09C7
:101FAC00AE09AF09A80A031DEE2FA90A031DEE2FD7
:101FBC00AA0A031DEE2FAB0A031DEE2FAC0A031D5C
:101FCC00EE2FAD0A031DEE2FAE0A031DEE2FAF0A46
:101FDC0021002808A0002908A1002A08A2002B082B
:101FEC00A3002C08A4002D08A5002E08A6002F087D
:101FFC00A70008002534643420346B346D34683405
:10200C0000342534643420346D3400347C342D3465
:06201C0000342034003402
:020000040001F9
:06000E00FC3FFF1E9F3FB6
:00000001FF
