:020000040000FA
:04000000803114280F
:100008007E1480318B1A0B1D0D288D310A25803105
:1000180012288B190B1C12288C319F247E10090082
:10002800803116283C3084000030850019308C312E
:10003800AB248031E2308400003085000A308C31F6
:10004800AB248031203084000130850028308C3189
:10005800AB247E1020008631AA2E20002308803988
:10006800A8002808AD002335A8002808B300A21B63
:100078003314330803194D28330A031D4B28003065
:10008800A3000030A2000030A1000030A000A21799
:1000980055280030A3000030A2000030A100003035
:1000A800A00027088039A8002808AD062735A80031
:1000B8002808B200A61B3214320803197028320A25
:1000C800031D6E280030A7000030A6000030A500F0
:1000D8000030A400A61778280030A7000030A6003A
:1000E8000030A5000030A4003208031D3308031DAA
:1000F80086280030A3000030A2000030A1000030A4
:10010800A00008002008A8002808F00026088D3163
:10011800B525803171082000B9007008B80038088A
:10012800A800A901AA01AB012B08B1002A08B00058
:100138002908AF002808AE003908A800A901AA01BB
:10014800AB012B08B7002A08B6002908B500280813
:10015800B4002108A8002808F00025088D31B5252D
:10016800803171082000B9007008B8003808A8006C
:10017800A901AA01AB012808AE072908AF3D2A0842
:10018800B03D2B08B13D3908A800A901AA01AB016F
:100198002808B4072908B53D2A08B63D2B08B73DFD
:1001A8002208A8002808F00024088D31B5258031E0
:1001B80071082000B9007008B8003808A800A90123
:1001C800AA01AB012808AE072908AF3D2A08B03DAF
:1001D8002B08B13D3908A800A901AA01AB012808DC
:1001E800B4072908B53D2A08B63D2B08B73D0830A5
:1001F800AE35AF0DB00DB10D890BFC282108A80054
:100208002808F00024088D31B525803171082000B8
:10021800B9007008B8003808AE073908AF3D00309B
:10022800B03DB13D2008A8002808F00025088D3110
:10023800B525803171082000B9007008B800380869
:10024800AE073908AF3D0030B03DB13D0830AE359E
:10025800AF0DB00DB10D890B2B292008A800280877
:10026800F00024088D31B525803171082000B900CF
:100278007008B8003808AE073908AF3D0030B03D07
:10028800B13D2108A8002808F00026088D31B525C1
:10029800803171082000B9007008B8003808B40728
:1002A8003908B53D0030B63DB73D2208A8002808FA
:1002B800F00025088D31B525803171082000B9007E
:1002C8007008B8003808B4073908B53D0030B63DA5
:1002D800B73D2208A8002808F00026088D31B5256A
:1002E800803171082000B9007008B8003808A800EB
:1002F8003908A900AA01AB010830A835A90DAA0D33
:10030800AB0D890B81292808B4072908B53D2A08AF
:10031800B63D2B08B73D2E08A8002F08A9003008C5
:10032800AA003108AB001830AB36AA0CA90CA80CEF
:10033800890B98292808B4072908B53D2A08B63D2D
:100348002B08B73D0830AE35AF0DB00DB10D890B98
:10035800A72933083207A800A901A90D2808823E59
:10036800B800FF30293DB900B61BCF290130B4359C
:10037800B50DB60DB70D890BBB29B11B341401306F
:10038800AE35AF0DB00DB10D890BC429FF30B807DC
:10039800FF30B93DB829B201B11FE829FF302E0559
:1003A800A800FF302F05A900FF303005AA007F30D4
:1003B8003105AB002B082A04290428040319341832
:1003C800E629E829B201B20A32080319112A0130D4
:1003D800B4070030B53D0030B63D0030B73D371C9E
:1003E800112A3408A8003508A9003608AA003708D9
:1003F800AB000130AC00AB37AA0CA90CA80CAC0BB5
:10040800FF292B08B7002A08B6002908B5002808D4
:10041800B4000130B8070030B93D3908803AA80067
:1004280080302802031D1A2AFF303802031C262AAE
:100438007F302000B7008030B6000030B5000030B3
:10044800B400502A20003908803AA80080302802D9
:10045800031D302A0130380203183D2A00302000DD
:10046800B7000030B6000030B5000030B400AD0170
:10047800502A20003808A8002808B300FF30B40527
:10048800FF30B5057F30B6050030B7053318B6170D
:100498003336A8002808B7002D08A8002808B70494
:1004A8003708A3003608A2003508A1003408A000C8
:1004B80008002100C7003A08CE003B08CF003C08DE
:1004C800D0003D08D1003E08D2003F08D3004008C4
:1004D800D4004108D500CE30860000308700473F61
:1004E800C200C21F792A01307A2A00302100C300D5
:1004F800C4014308CC004408CD004C084D0403193E
:10050800A32ACE09CF09D009D109D209D309D40920
:10051800D509CE0A031DA32ACF0A031DA32AD00A90
:10052800031DA32AD10A031DA32AD20A031DA32A45
:10053800D30A031DA32AD40A031DA32AD50A21001E
:10054800EB1BAB2AFD302000C805FF30C905210090
:100558006B08803AC20080304202031DB52A013080
:100568006A020318BD2A01302100C8000030C90002
:10057800C22A21006B08C9006A08C8006908CB00B4
:100588006808CA004C084D04031DCD2A2000481DE8
:10059800D22AFF302100CA07FF30CB3D1F3021008F
:1005A800D6000030D7002200C701682B21004E0872
:1005B8004F04500451045204530454045504031DB9
:1005C800FF2A4908803AC20080304202031DEE2A01
:1005D800013048020318FF2A21004B08803AC20064
:1005E80080304202031DFA2A01304A02031C742B90
:1005F8002000C81C742BFF302100D607FF30D73DE0
:100608000A30A000A101A201A301A401A501A6012D
:10061800A7014E08A8004F08A9005008AA005108D1
:10062800AB005208AC005308AD005408AE005508A2
:10063800AF008531C825823121002108B300200888
:10064800B2008D316725823121003208303EC20068
:100658005608283E86000130870042088100FF3096
:10066800C807FF30C93DFF30CA07FF30CB3D0A300D
:10067800A000A101A201A301A401A501A601A7014F
:100688004E08A8004F08A9005008AA005108AB005E
:100698005208AC005308AD005408AE005508AF002E
:1006A8008431CC24823121002008CE002108CF00DB
:1006B8002208D0002308D1002408D2002508D3003E
:1006C8002608D4002708D50021005708803AC20020
:1006D80080304202031D722B013056020318DA2AB9
:1006E80021004C084D04031D7C2B2000481D942B31
:1006F800FF302100D607FF30D73D4C084D04031DBD
:10070800872B2B30882B2D30C5000030C6004508BC
:10071800C2005608283E8600013087004208810042
:1007280021005608283EC2004208B1004B08B30019
:100738004A08B20047088F31352721003208BB002C
:100748003108BA0008002200D100210058088600AC
:1007580001308700403FDA00413FDB005A0884003F
:100768005B0885001200253A031DA52C5808860051
:10077800013087000130810741310318810AE801FF
:10078800E9012000C801C901FF302100EA00FF305B
:10079800EB005808860001308700403FDA00413FEF
:1007A800DB005A0884005B0885001200643A0319CC
:1007B800ED2B5808860001308700403FDA00413FA2
:1007C800DB005A0884005B0885001200693A031DA3
:1007D8003D2C5808860001308700013081074131DF
:1007E8000318810A5908860001308700010884002F
:1007F8000130850002308107003FDA00013FDB004D
:100808005A082200C80021005B082200C900890D8F
:10081800893B8909CA00CB00CC00CD00CE00CF00AF
:1008280048082100BA00220049082100BB00220024
:100838004A082100BC0022004B082100BD0022000C
:100848004C082100BE0022004D082100BF002200F4
:100858004E082100C00022004F082100C1002200DC
:10086800510882315D2221003B08D9003A08D8009E
:1008780008005808860001308700403FDA00413FF1
:10088800DB005A0884005B08850012006E3A031DDD
:10089800702C5808860001308700013081074131EB
:1008A8000318810A5908860001308700403F8400F8
:1008B80001308500810A0008DA005A082200D000B9
:1008C800500886000130870021006608C03F67088D
:1008D800C13FD801D90108005808860001308700B7
:1008E800403FDA00413FDB005A0884005B0885007E
:1008F8001200253A031D9B2C5808860001308700FA
:100908000130810741310318810A2530A0000030E9
:10091800A100220051082100DA005A08A2008E31F5
:10092800662601302100D8000030D9000800580898
:100938008600013087000130810741310318810AA0
:100948006D2C5808860001308700403FDA00413F8F
:10095800DB005A0884005B0885000008DC00DD0124
:100968005C08A0005D08A100220051082100DE00FB
:100978005E08A2008E316626833121005808860061
:10098800013087000130810741310318810A952C15
:100998002100B101A030860000308700473F2000C9
:1009A800BA00BA1FF92C2100A009A109A209A309BC
:1009B800A409A509A609A709A00A031DF62CA10ADE
:1009C800031DF62CA20A031DF62CA30A031DF62C00
:1009D800A40A031DF62CA50A031DF62CA60A031D5E
:1009E800F62CA70A2100B101B10AA8308600003010
:1009F8008700473F2000BA00BA1F272D2100A80909
:100A0800A909AA09AB09AC09AD09AE09AF09A80A39
:100A1800031D212DA90A031D212DAA0A031D212D1D
:100A2800AB0A031D212DAC0A031D212DAD0A031DA0
:100A3800212DAE0A031D212DAF0A01302000BA0076
:100A48003A082100B106B23086000030870008302D
:100A58002000BA0000301E00BA0B2F2D21002008FC
:100A6800210422042304240425042604270403194A
:100A7800952DB001B00AA71B502DA035A10DA20DD0
:100A8800A30DA40DA50DA60DA70D01302000BA00D9
:100A98003A082100B0073F2DB235B30DB40DB50D9E
:100AA800B60DB70DB80DB90D27082F02031D762D09
:100AB80026082E02031D762D25082D02031D762DEE
:100AC80024082C02031D762D23082B02031D762DE6
:100AD80022082A02031D762D21082902031D762DDE
:100AE80020082802031C892D2008A8022108A93BF8
:100AF8002208AA3B2308AB3B2408AC3B2508AD3BA6
:100B08002608AE3B2708AF3B3214A736A60CA50C27
:100B1800A40CA30CA20CA10CA00C0130B002031D64
:100B2800502D31080319B62DB209B309B409B50916
:100B3800B609B709B809B909B20A031DB62DB30A2F
:100B4800031DB62DB40A031DB62DB50A031DB62D17
:100B5800B60A031DB62DB70A031DB62DB80A031D24
:100B6800B62DB90A21003208A0003308A1003408C4
:100B7800A2003508A3003608A4003708A5003808E5
:100B8800A6003908A70008002100B101A830860096
:100B980000308700473F2000BA00BA1FF52D21001A
:100BA800A809A909AA09AB09AC09AD09AE09AF0999
:100BB800A80A031DF22DA90A031DF22DAA0A031D76
:100BC800F22DAB0A031DF22DAC0A031DF22DAD0A5E
:100BD800031DF22DAE0A031DF22DAF0A2100B1014B
:100BE800B10AA030860000308700473F2000BA00D5
:100BF800BA1F1D2E2100A009A109A209A309A40951
:100C0800A509A609A709A00A031D1D2EA10A031DEF
:100C18001D2EA20A031D1D2EA30A031D1D2EA40AA4
:100C2800031D1D2EA50A031D1D2EA60A031D1D2E1C
:100C3800A70A2100200821042204230424042504EF
:100C4800260427040319772EB001B00AA71B3B2EF0
:100C5800A035A10DA20DA30DA40DA50DA60DA70DE0
:100C680001302000BA003A082100B0072A2E2708D0
:100C78002F02031D592E26082E02031D592E250862
:100C88002D02031D592E24082C02031D592E23085A
:100C98002B02031D592E22082A02031D592E210852
:100CA8002902031D592E20082802031C6B2E200838
:100CB800A8022108A93B2208AA3B2308AB3B240829
:100CC800AC3B2508AD3B2608AE3B2708AF3BA73613
:100CD800A60CA50CA40CA30CA20CA10CA00C013012
:100CE800B002031D3B2E31080319982EA809A90943
:100CF800AA09AB09AC09AD09AE09AF09A80A031DD9
:100D0800982EA90A031D982EAA0A031D982EAB0A2D
:100D1800031D982EAC0A031D982EAD0A031D982EAC
:100D2800AE0A031D982EAF0A21002808A000290842
:100D3800A1002A08A2002B08A3002C08A4002D0853
:100D4800A5002E08A6002F08A70008008D31192538
:100D5800863128302000BA000D30BB008C31F424D5
:100D68008631E8302000BA000E30BB008C31EB240D
:100D780086318C31C82486312000BB0101308E3188
:100D8800A626863118302200D7009030D8008D3141
:100D98003A2586312000BB0102308E31A6268631E5
:100DA8000D302200D7009030D8008D313A25863199
:100DB8002000BB0103308E31A62686310030220088
:100DC800D7009030D8008D313A2586318B170B1714
:100DD80007302200E10061082000BB0001308E319D
:100DE800A626863120003F082100A30020003E08E7
:100DF8002100A20020003D082100A10020003C089D
:100E08002100A0008F318F27863121002108200082
:100E1800CF00210020082000CE0020302200D7007B
:100E28009030D800200054082200DC00200053082D
:100E38002200DB00200052082200DA0020005108BE
:100E48002200D9008D313A2586310A302200E1008E
:100E580061082000BB0002308E31A626863127307B
:100E68002200D7009030D80020004D082200DA0078
:100E780020004C082200D9008D313A258631EC2E0D
:100E8800F8007808031DF31F592F7009FA0071093B
:100E9800FB007209FC007309FD00FA0A0319FB0A3A
:100EA8000319FC0A0319FD0A612F7308FD00720873
:100EB800FC007108FB007008FA00730872047104E2
:100EC8007004031D702F0030F3000030F200003072
:100ED800F1000030F00008009630F4007408F900C2
:100EE800FE307D050319972F0130F4007408F907C7
:100EF8000130FD36FC0CFB0CFA0C890B7D2F742F8E
:100F08000130F4007408F9070130FA070030FB3D9E
:100F18000030FC3D0030FD3D0130FD36FC0CFB0C83
:100F2800FA0C890B912FFF307D050319A92F842F07
:100F380002307902031CAB2F0130F9020130FA3577
:100F4800FB0DFC0DFD0D890BA32FFC1F9C2F7918A1
:100F5800B52FFF30FA05FF30FB057F30FC05FF3069
:100F6800FD050310F90C7908F400F501F601F70105
:100F78001830F435F50DF60DF70D890BBD2F7408F3
:100F8800FA047508FB047608FC047708FD04780861
:100F9800031DF31FD02FFD177D08F3007C08F20016
:100FA8007B08F1007A08F0000800083023009F0051
:100FB80080309D0024309E000C309B009C01003046
:100FC8002000BA000030BB008C31D92487310030B2
:100FD8002000BA000030BB008C31E2248731003099
:100FE8002000BA000030BB008C31D0242000D00192
:060FF800080008000800DB
:10193E002700991F08008C31FD2408002000BB00F1
:10194E003B088C31C0240800640080010131890BF2
:10195E00AC2C00343A3021009900980122009601F7
:10196E000800013021009D009E019F019B019C01FA
:10197E0008002000BA00101EC22C3A0823009A005C
:10198E0008002D302100B1009030B2008D319A2523
:10199E00080020003B082200E30020003A08220045
:1019AE00E200080020003B082200E70020003A0871
:1019BE002200E600080020003B082200E50020007F
:1019CE003A082200E400080020003B082100EF0046
:1019DE0020003A082100EE00080020003B082100FC
:1019EE00ED0020003A082100EC00080021006E08EE
:1019FE006F040319072D6F088A006E080A008D31D7
:101A0E002700991308000B1120005508950021009E
:101A1E006C086D04031908006D088A006C080A0032
:101A2E008D3108008E312E268D318C31B1248D31C1
:101A3E008C31B8248D318D3150258D318731D92798
:101A4E00080001302000C4070030C53D0030C63DFF
:101A5E000030C73D0130C0070030C13D0030C23DEF
:101A6E000030C33D080059302200DD005D08E00063
:101A7E0058082100E000220057082100DF006030E6
:101A8E002200DD005D082100E10000308D31FD25D2
:101A9E00080021001508C03917389500F3302000D2
:101AAE009500F3302100A00020082000D5000B1176
:101ABE008B16FD30BA000730BB008C31F4240800C1
:101ACE0021003308803AB40080303402031D712D9A
:101ADE00013032020318080021003209B400330924
:101AEE00B500B40A0319B50A3408B2003508B300BC
:101AFE0008002100A2002208A0002008A100220850
:101B0E0086000130870001080319922D0130A000D4
:101B1E002008A207862D210822022000BA00BB0150
:101B2E00BA1BBB0308002100B501B50A3208A90093
:101B3E003108A800AA018D31D4258D312100A91BB1
:101B4E0008000A30A0000030A100A2018E316626E6
:101B5E008D312100A11B0800B5010800F800F40129
:101B6E00F5017008F200F3017208F6007308F70031
:101B7E00781CC52D7608F4077708F53D0130F6354B
:101B8E00F70D890BC62D0310F80C7808031DBF2D19
:101B9E007508F1007408F00008002100AF01B001D3
:101BAE0028082F0784002908303D85000008AB0067
:101BBE002B08AE002E080319F82D2E08AB00AC0131
:101BCE002B08A0002C08A1002A08AD002D08A200A9
:101BDE008E3166268D3101302100AF070030B03DC9
:101BEE00D72D3008A9002F08A80008002200D40025
:101BFE00210060082200D60021005F082200D500D7
:101C0E002100E601E70122005508840056088500F0
:101C1E0012000319282E5530D20052082100D80088
:101C2E0061082200D30053082100D9002200540875
:101C3E008331A7238D3121005808E6075908E73D67
:101C4E000A2E21006708E0006608DF000800220067
:101C5E008C018D018E01373021008C0070308D008B
:101C6E00FF308E004F3023008E0070308D00173005
:101C7E008C0024008D018C0180308E002100951384
:101C8E0025008C018D018E01373026008C00F0303E
:101C9E008D00FF308E00270099139813971726009A
:101CAE008E1327008E17FE302000BA000730BB00BF
:101CBE008C31EB248B1512303D009F000800210063
:101CCE002208031D2208031D712E20088C31A52425
:101CDE008E319D2E2208033E8600870116000104D8
:101CEE000319942E2208033E86008701403FA3006D
:101CFE00413FA400220A86008701403FA500413FD4
:101D0E00A6002608803AA7002408803A2702031D61
:101D1E00922E2308250203189D2E2100220A8600EA
:101D2E0087010130810741310318810A2100200803
:101D3E00A300A4012308A0002408A100080021008C
:101D4E00A200D12EFE308C31C0248E3120003B08F3
:101D5E00803E8C31C0240800FE308C31C0248E3180
:101D6E0020003B08C03E8C31C0240800FE308C3170
:101D7E00C0248E3120003B08943E8C31C0240800D4
:101D8E00FE308C31C0248E3120003B08D43E8C3185
:101D9E00C02408002208A000A1012108003A03195E
:101DAE00D92EE72E2008013A0319A92E033A03195A
:101DBE00B32E013A0319BD2E073A0319C72EE72E8B
:101DCE00080020004708D4004608D3004508D2007A
:101DDE004408D1003D30A3007530A200C230A100EE
:101DEE008F30A0005135F000520DF100530DF2006E
:101DFE00540DF3000130873144278E3173082000D3
:101E0E00A7007208A6007108A5007008A400803112
:101E1E0031208E3120002308BF002208BE00210889
:101E2E00BD002008BC000030C7000030C6000030E6
:101E3E00C5000130C400C31B302F4308031D08002A
:101E4E004208031D0800053040020930413B0318CB
:101E5E0008000130CC070030CD3D08002100B9004C
:101E6E002000481C462F21003108A8000130A9008F
:101E7E003908B4003408AA008D31D4258F312100E1
:101E8E00B31B4E2F3308B8003208B700502FB701DE
:101E9E00B801B501B6013608803AB4003808803A68
:101EAE003402031D5C2F370835020318702F2030C3
:101EBE002100A0000030A1003908B4003408A200AF
:101ECE008E3166268F3101302100B5070030B63DC8
:101EDE00522F200048187F2F21003108A800013012
:101EEE00A9003908B4003408AA008D31D4258F31E9
:101EFE00210031088D3180252100370820003A0756
:101F0E002100B100380820003B3D2100B20008003E
:101F1E0003102100220D230DA40024082000BB0075
:101F2E003B08031DA42F00302100A3000030A200A7
:101F3E000030A1000030A000080021002008A400FD
:101F4E002108A5002208A6002308A7001F30A736E7
:101F5E00A60CA50CA40C890BAE2F2408A8002808EB
:101F6E002000BA002100A217FF30A005FF30A10506
:101F7E00FF30A2050030A30596302000BB02BB1F28
:101F8E00DD2F3B08803A973E031C9A2F013021002B
:101F9E00A336A20CA10CA00C890BCE2F0130A400ED
:101FAE0024082000BB070319F02FCD2F20303B0251
:101FBE0003189A2F3B080319F02F01302100A0358A
:101FCE00A10DA20DA30D890BE52F01302000BB0240
:101FDE00E12F3A08031908002100A009A109A2095E
:101FEE00A309A00A0319A10A0319A20A0319A30A35
:101FFE0008004834653461347234743420345234F9
:10200E006134743465343A342034003444346934E1
:10201E007334743461346E34633465343A3420343A
:10202E000034533470346534653464343A342034B7
:10203E0000342534643420342034203420340034E9
:10204E002534643420346D34203400347C342D3403
:02205E0000344C
:020000040001F9
:06000E00FC3FFF1E9F3FB6
:00000001FF
