:020000040000FA
:1000000080311428080008007E1480318B1A0B1DE3
:100010000D2896314926803112288B190B1C122885
:100020009531E4257E10090080311628FC01FD0180
:10003000603084000030850007308731FA27803136
:10004000A0308400003085002E308731FA278031BF
:1000500020308400013085002C308731FA277E1053
:1000600020008D31382D210051088039D6005608E6
:10007000DB005135D6005608E100D01B6114610841
:1000800003194F28610A031D4D280030D1000030AC
:10009000D0000030CF000030CE00D01757280030FD
:1000A000D1000030D0000030CF000030CE00550825
:1000B0008039D6005608DB065535D6005608DC00D8
:1000C000D41B5C145C08031972285C0A031D702899
:1000D0000030D5000030D4000030D3000030D20012
:1000E000D4177A280030D5000030D4000030D30077
:1000F0000030D2005C08031D6108031D8828003011
:10010000D1000030D0000030CF000030CE00080019
:100110004E08D60056082000A80021005408963149
:10012000FD268031200029082100E7002000280852
:100130002100E6006608D600D701D801D901590888
:10014000E0005808DF005708DE005608DD006708A9
:10015000D600D701D801D9015908E5005808E400B4
:100160005708E3005608E2004F08D6005608200062
:10017000A800210053089631FD268031200029086F
:100180002100E700200028082100E6006608D600CC
:10019000D701D801D9015608DD075708DE3D5808B8
:1001A000DF3D5908E03D6708D600D701D801D901E5
:1001B0005608E2075708E33D5808E43D5908E53D75
:1001C0005008D60056082000A80021005208963199
:1001D000FD268031200029082100E70020002808A2
:1001E0002100E6006608D600D701D801D9015608DB
:1001F000DD075708DE3D5808DF3D5908E03D670838
:10020000D600D701D801D9015608E2075708E33DC7
:100210005808E43D5908E53D0830DD35DE0DDF0DB9
:10022000E00D890B0D294F08D60056082000A800C4
:10023000210052089631FD26803120002908210036
:10024000E700200028082100E6006608DD076708AF
:10025000DE3D0030DF3DE03D4E08D6005608200070
:10026000A800210053089631FD268031200029087E
:100270002100E700200028082100E6006608DD07CD
:100280006708DE3D0030DF3DE03D0830DD35DE0D46
:10029000DF0DE00D890B46294E08D60056082000D8
:1002A000A800210052089631FD268031200029083F
:1002B0002100E700200028082100E6006608DD078D
:1002C0006708DE3D0030DF3DE03D4F08D6005608B0
:1002D0002000A800210054089631FD26803120001E
:1002E00029082100E700200028082100E600660810
:1002F000E2076708E33D0030E43DE53D5008D600E5
:1003000056082000A800210053089631FD268031B0
:10031000200029082100E700200028082100E6002D
:100320006608E2076708E33D0030E43DE53D50081C
:10033000D60056082000A800210054089631FD265A
:100340008031200029082100E70020002808210032
:10035000E6006608D6006708D700D801D901083042
:10036000D635D70DD80DD90D890BB0295608E2071F
:100370005708E33D5808E43D5908E53D5D08D600BF
:100380005E08D7005F08D8006008D9001830D93659
:10039000D80CD70CD60C890BC7295608E20757088A
:1003A000E33D5808E43D5908E53D0830DD35DE0DF4
:1003B000DF0DE00D890BD62961085C07D600D70157
:1003C000D70D5608823EE600FF30573DE700E41B9C
:1003D000FE290130E235E30DE40DE50D890BEA2934
:1003E000E01B62140130DD35DE0DDF0DE00D890B01
:1003F000F329FF30E607FF30E73DE729DC01E01F86
:10040000172AFF305D05D600FF305E05D700FF30AC
:100410005F05D8007F306005D9005908580457049B
:10042000560403196218152A172ADC01DC0A5C0835
:100430000319402A0130E2070030E33D0030E43D7B
:100440000030E53D651C402A6208D6006308D700ED
:100450006408D8006508D9000130DA00D937D80C13
:10046000D70CD60CDA0B2E2A5908E5005808E40000
:100470005708E3005608E2000130E6070030E73D88
:100480006708803AD60080305602031D492AFF30A3
:100490006602031C552A7F302100E5008030E4000D
:1004A0000030E3000030E2007F2A21006708803A34
:1004B000D60080305602031D5F2A01306602031801
:1004C0006C2A00302100E5000030E4000030E30039
:1004D0000030E200DB017F2A21006608D6005608C2
:1004E000E100FF30E205FF30E3057F30E405003036
:1004F000E5056118E4176136D6005608E5005B088B
:10050000D6005608E5046508D1006408D0006308E9
:10051000CF006208CE000800730880392000A000D8
:100520002008F8007335A0002008FA00F21B7A14A6
:100530007A080319A92A7A0A031DA62A0030F300B3
:100540000030F2000030F1000030F000F217F3014B
:10055000B12A0030F3000030F2000030F10000302A
:10056000F00077088039A0002008F90079087806A3
:10057000031D78177735A0002008F900F61B7914C1
:1005800079080319D12A790A031DCE2A0030F70011
:100590000030F6000030F5000030F400F617F701E7
:1005A000D92A0030F7000030F6000030F5000030A6
:1005B000F4007A08790203181F2B781FE32A803091
:1005C000A0002008F8067A08A0002008FB0079089F
:1005D000A0002008FA007B08A0002008F90070089D
:1005E000A0002008FB007408A0002008F0007B0891
:1005F000A0002008F4007108A0002008FB00750886
:10060000A0002008F1007B08A0002008F500720877
:10061000A0002008FB007608A0002008F2007B085C
:10062000A0002008F6007308A0002008FB0077084F
:10063000A0002008F3007B08A0002008F700FB01C1
:100640007908A000A1012108A3007A082002A200D5
:10065000031CA3032308803AA40080302402031D56
:10066000332B1A302202031C692B730872047104A5
:10067000700403193D2B01303E2B00302000A000F8
:100680002008FB000030F3000030F2000030F100E1
:100690000030F0007908A0002008FA006D2B7B1CC8
:1006A000582B7B3601382000A0002008FB005A2B75
:1006B0000310FB0C7018FB1701302000A000F3376B
:1006C000F20CF10CF00CA00B5F2B0130A000200805
:1006D000FA0779087A02031C4F2B781BA02B7A08A3
:1006E000031D7B2B0030F3000030F2000030F100DE
:1006F0000030F00008007408F0077508F13D760836
:10070000F23D7708F33D731C1B2C7B1C8E2B7B3634
:1007100001382000A0002008FB00902B0310FB0CE8
:100720007018FB1701302000A000F337F20CF10C19
:10073000F00CA00B952B0130A0002008FA071B2C11
:100740007308803A2000A0007708803A2002031D39
:10075000B32B76087202031DB32B75087102031DBB
:10076000B32B740870020318EB2BFF30A000FF308E
:10077000A100FF30A200FF30A30070087402A400A3
:100780007108753BA5007208763BA6007308773B9D
:10079000A7002408A0072508A13D2608A23D270898
:1007A000A33D2308F3002208F2002108F1002008ED
:1007B000F0008030A0002008F806FB09FB0A7B0847
:1007C000031DF32B0130F0070030F13D0030F23D06
:1007D0000030F33DF32B7408F0027508F13B760806
:1007E000F23B7708F33B7308720471047004031D35
:1007F000192C7B08031D192C0030F3000030F20087
:100800000030F1000030F00008000130F035F10D4B
:10081000F20DF30D890B062CFB1B70147B1C122CA4
:100820000314132C0310FB0D7A080319192C013043
:10083000FA02F21F052CF901FB1F262C7B087F39D9
:1008400003197018242C262CF901F90A79080319C8
:10085000532C0130F0070030F13D0030F23D003004
:10086000F33D731C532C70082000A0007108A100F8
:100870007208A2007308A3000130A400A337A20CE1
:10088000A10CA00CA40B3E2C2308F3002208F200BC
:100890002108F1002008F0007A0A0319532C0130D6
:1008A000A0002008FA077A0A031D7A08031D632CAA
:1008B0000030F3000030F2000030F1000030F000B2
:1008C0007A080319F8017A1C672CF2176C2C7F3018
:1008D0002000A0002008F2057A362000A0002008A1
:1008E000F300F81F0800F317080020002B088039D8
:1008F000B0003008B8002B35B0003008BA00AA1B91
:100900003A143A080319922C3A0A031D8F2C00302E
:10091000AB000030AA000030A9000030A800AA17E0
:10092000AB019A2C0030AB000030AA000030A900C7
:100930000030A8002F088039B0003008B90039080D
:100940003806031D38172F35B0003008B900AE1B2C
:10095000391439080319BA2C390A031DB72C003091
:10096000AF000030AE000030AD000030AC00AE177C
:10097000AF01C22C0030AF000030AE000030AD003F
:100980000030AC003A0839020318082D381FCC2C6F
:100990008030B0003008B8063A08B0003008BB001C
:1009A0003908B0003008BA003B08B0003008B90080
:1009B0002808B0003008BB002C08B0003008A800A0
:1009C0003B08B0003008AC002908B0003008BB007C
:1009D0002D08B0003008A9003B08B0003008AD0079
:1009E0002A08B0003008BB002E08B0003008AA006A
:1009F0003B08B0003008AE002B08B0003008BB0048
:100A00002F08B0003008AB003B08B0003008AF0042
:100A1000BB013908B000B1013108B3003A08300217
:100A2000B200031CB3033308803AB40080303402B0
:100A3000031D1C2D1A303202031C502D20002B08E0
:100A40002A04290428040319272D0130282D0030F9
:100A5000B0003008BB000030AB000030AA0000300E
:100A6000A9000030A8003908B0003008BA00552DA0
:100A70003B1C402D3B360138B0003008BB00422DF6
:100A80000310BB0C2818BB170130B000AB37AA0C01
:100A9000A90CA80CB00B462D0130B0003008BA07E5
:100AA000200039083A02031C382D381B862D3A08DD
:100AB000031D632D0030AB000030AA000030A900F8
:100AC0000030A80008002C08A8072D08A93D2E0812
:100AD000AA3D2F08AB3D2B1C002E3B1C752D3B3631
:100AE0000138B0003008BB00772D0310BB0C28186C
:100AF000BB170130B000AB37AA0CA90CA80CB00B87
:100B00007B2D0130B0003008BA07002E2B08803A48
:100B1000B0002F08803A3002031D982D2E082A02BB
:100B2000031D982D2D082902031D982D2C0828023D
:100B30000318D02DFF30B000FF30B100FF30B200FD
:100B4000FF30B30028082C02B40029082D3BB50063
:100B50002A082E3BB6002B082F3BB7003408B007FD
:100B60003508B13D3608B23D3708B33D3308AB0018
:100B70003208AA003108A9003008A8008030B0006F
:100B80003008B806BB09BB0A3B08031DD82D01304D
:100B9000A8070030A93D0030AA3D0030AB3DD82D5C
:100BA0002C08A8022D08A93B2E08AA3B2F08AB3B16
:100BB0002B082A0429042804031DFE2D3B08031DCD
:100BC000FE2D0030AB000030AA000030A90000303C
:100BD000A80008000130A835A90DAA0DAB0D890B9E
:100BE000EB2DBB1B28143B1CF72D0314F82D031011
:100BF000BB0D3A080319FE2D0130BA02AA1FEA2DD7
:100C0000B901BB1F0B2E3B087F3903192818092E89
:100C10000B2EB901B90A39080319372E0130A8077C
:100C20000030A93D0030AA3D0030AB3D2B1C372ED3
:100C30002808B0002908B1002A08B2002B08B30028
:100C40000130B400B337B20CB10CB00CB40B222E8F
:100C50003308AB003208AA003108A9003008A80008
:100C60003A0A0319372E0130B0003008BA073A0AA1
:100C7000031D3A08031D472E0030AB000030AA00C8
:100C80000030A9000030A8003A080319B8013A1C46
:100C90004B2EAA174F2E7F30B0003008AA053A36E7
:100CA000B0003008AB00B81F0800AB1708002100E7
:100CB000D000200044082100D70020004508210072
:100CC000D800200046082100D90020004708210054
:100CD000DA00200048082100DB002000490821003C
:100CE000DC0020004A082100DD0020004B08210024
:100CF000DE00D730860000308700473F2000CC0060
:100D0000CC1F842E0130852E00302000CD00CE0176
:100D10004D082100D50020004E082100D6005508BE
:100D200056040319B12ED709D809D909DA09DB0904
:100D3000DC09DD09DE09D70A031DB12ED80A031D1F
:100D4000B12ED90A031DB12EDA0A031DB12EDB0A1A
:100D5000031DB12EDC0A031DB12EDD0A031DB12EC9
:100D6000DE0A2100C91BB92EFD302000E405FF304A
:100D7000E50521004908803A2000CC0080304C0273
:100D8000031DC52E0130210048020318CD2E01306D
:100D90002100D1000030D200D22E21004908D2001B
:100DA0004808D1004708D4004608D3005508560427
:100DB000031DDD2E2000641DE22EFF302100D3072D
:100DC000FF30D43D1F302100DF000030E000220062
:100DD000CB01B02F21005708580459045A045B0472
:100DE0005C045D045E04031D132F5208803A20004A
:100DF000CC0080304C02031D002F01302100510235
:100E00000318132F21005408803A2000CC008030B2
:100E10004C02031D0E2F013021005302031CBE2F74
:100E20002000E41CBE2FFF302100DF07FF30E03D33
:100E30000A302000A800A901AA01AB01AC01AD0154
:100E4000AE01AF01210057082000B0002100580872
:100E50002000B100210059082000B20021005A08EA
:100E60002000B30021005B082000B40021005C08D2
:100E70002000B50021005D082000B60021005E08BA
:100E80002000B7008A315F22863120002908BC008B
:100E90002808BB0096319126863120003B08303E61
:100EA000CC0021005F082C3E860001308700200026
:100EB0004C088100FF302100D107FF30D23DFF30C8
:100EC000D307FF30D43D0A302000A800A901AA01B1
:100ED000AB01AC01AD01AE01AF012100570820000C
:100EE000B000210058082000B1002100590820005E
:100EF000B20021005A082000B30021005B08200046
:100F0000B40021005C082000B50021005D0820002D
:100F1000B60021005E082000B7008B313E238631E9
:100F2000200028082100D700200029082100D8002F
:100F300020002A082100D90020002B082100DA0017
:100F400020002C082100DB0020002D082100DC00FF
:100F500020002E082100DD0020002F082100DE00E7
:100F600021006008803A2000CC0080304C02031D34
:100F7000BC2F013021005F020318EA2E2100550822
:100F80005604031DC62F2000641DE12FFF302100F1
:100F9000DF07FF30E03D55085604031DD12F2B30ED
:100FA000D22F2D30CE000030CF004E082000CC00D4
:100FB00021005F082C3E86000130870020004C088D
:100FC000810021005F082C3E2000CC004C08BB00B3
:100FD000210054082000BD00210053082000BC005F
:100FE000210050088831942020003C08C5003B08AF
:100FF000C4000800640080010131890BFB2F00341C
:1010000001302100C0070030C13D0030C23D00303A
:10101000C33D0130BC070030BD3D0030BE3D003057
:10102000BF3D080020002C08031D2C08031D1D28AF
:101030002A089531EA25883149282C08033E860084
:10104000870116000104031940282C08033E86007E
:101050008701403FAD00413FAE002C0A860087016A
:10106000403FAF00413FB0003008803AB1002E0849
:10107000803A3102031D3E282D082F02031849280B
:1010800020002C0A860087010130810741310318B6
:10109000810A20002A08AD00AE012D08AA002E0802
:1010A000AB0008002000AC007D28FE309531FF2504
:1010B000883120002908803E9531FF250800FE3048
:1010C0009531FF25883120002908C03E9531FF2544
:1010D0000800FE309531FF25883120002908943E14
:1010E0009531FF250800FE309531FF25883120001D
:1010F0002908D43E9531FF2508002C08AA00AB0131
:101100002B08003A0319852893282A08013A031965
:101110005528033A03195F28013A03196928073A49
:1011200003197328932808002000C300641CA32817
:101130003B08B2000130B3004308BE003E08B400D3
:101140009731412788312000BD1BAB283D08C200E4
:101150003C08C100AD28C101C201BF01C001400867
:10116000803ABE004208803A3E02031DB928410879
:101170003F020318CD2820302000AA000030AB0029
:101180004308BE003E08AC0088311220883101308F
:101190002000BF070030C03DAF2820006418DB28C6
:1011A0003B08B2000130B3004308BE003E08B40063
:1011B00097314127883120003B089631AA2620002C
:1011C00041082807BB004208293DBC000800031065
:1011D00020002A0D2B0DAC002C08B2003208031D94
:1011E000FA280030AB000030AA000030A90000301F
:1011F000A80008002808AC002908AD002A08AE00A5
:101200002B08AF001F30AF36AE0CAD0CAC0C890B09
:1012100003292C08B0003008B100AA17FF30A80538
:10122000FF30A905FF30AA050030AB059630B202A9
:10123000B21F2D293208803A973E031CF128013055
:10124000AB36AA0CA90CA80C890B20290130AC00E4
:101250002C08B20703193E291F2920303202031837
:10126000F128320803193E290130A835A90DAA0D2D
:10127000AB0D890B35290130B20231293108031930
:101280000800A809A909AA09AB09A80A0319A90A0B
:101290000319AA0A0319AB0A080000302000280528
:1012A000B00000302905B10080302A05B2007F303F
:1012B0002B05B3003308320431043004031D6829C0
:1012C0000030AB000030AA000030A9000030A800B8
:1012D00000302C05B00000302D05B10080302E0507
:1012E000B2007F302F05B3003308320431043004DC
:1012F000031D82290030AF000030AE000030AD0089
:101300000030AC00AB1F9C290030B0000030B100B1
:101310000030B2008030B3002808B0022908B13B89
:101320002A08B23B2B08B33B3308AB003208AA00B3
:101330003108A9003008A800AF1FB6290030B0005E
:101340000030B1000030B2008030B3002C08B00291
:101350002D08B13B2E08B23B2F08B33B3308AF003A
:101360003208AE003108AD003008AC008030AB066A
:101370008030AF062F082B02031D08002E082A021A
:10138000031D08002D082902031D08002C0828024F
:1013900008002000B0003008031DAB1FDF2928091A
:1013A000B2002909B3002A09B4002B09B500B20A1A
:1013B0000319B30A0319B40A0319B50AE7292B085C
:1013C000B5002A08B4002908B3002808B2002B0889
:1013D0002A0429042804031DF6290030AB0000303C
:1013E000AA000030A9000030A80008009630AC0028
:1013F0002C08B100FE30350503191D2A0130AC0060
:101400002C08B1070130B536B40CB30CB20C890B03
:10141000032AFA290130AC002C08B1070130B207C9
:101420000030B33D0030B43D0030B53D0130B5363D
:10143000B40CB30CB20C890B172AFF303505031915
:101440002F2A0A2A02303102031C312A0130B1024C
:101450000130B235B30DB40DB50D890B292AB41F77
:10146000222A31183B2AFF30B205FF30B3057F3006
:10147000B405FF30B5050310B10C3108AC00AD0167
:10148000AE01AF011830AC35AD0DAE0DAF0D890B0F
:10149000432A2C08B2042D08B3042E08B4042F08E4
:1014A000B5043008031DAB1F562AB5173508AB002D
:1014B0003408AA003308A9003208A8000800200058
:1014C000BA013030860000308700473FB800B81FAF
:1014D0008B2A2000B009B109B209B309B409B509D2
:1014E000B609B709B00A031D882AB10A031D882A64
:1014F000B20A031D882AB30A031D882AB40A031DF1
:10150000882AB50A031D882AB60A031D882AB70A45
:101510002000BA01BA0A2830860000308700473F11
:101520002000B800B81FB32A2000A809A909AA09F9
:10153000AB09AC09AD09AE09AF09A80A031DB32A6E
:10154000A90A031DB32AAA0A031DB32AAB0A031D65
:10155000B32AAC0A031DB32AAD0A031DB32AAE0A8F
:10156000031DB32AAF0A2000280829042A042B04EB
:101570002C042D042E042F0403190B2BB901B90AD6
:10158000AF1BCF2AA835A90DAA0DAB0DAC0DAD0D23
:10159000AE0DAF0D0130B8003808B907C02A2F08CA
:1015A0003702031DED2A2E083602031DED2A2D08F1
:1015B0003502031DED2A2C083402031DED2A2B08E9
:1015C0003302031DED2A2A083202031DED2A2908E1
:1015D0003102031DED2A28083002031CFF2A2808C7
:1015E000B0022908B13B2A08B23B2B08B33B2C08B8
:1015F000B43B2D08B53B2E08B63B2F08B73BAF36A2
:10160000AE0CAD0CAC0CAB0CAA0CA90CA80C0130A8
:10161000B902031DCF2A3A0803192C2BB009B109CE
:10162000B209B309B409B509B609B709B00A031D6F
:101630002C2BB10A031D2C2BB20A031D2C2BB30A31
:10164000031D2C2BB40A031D2C2BB50A031D2C2BB8
:10165000B60A031D2C2BB70A20003008A800310859
:10166000A9003208AA003308AB003408AC003508E2
:10167000AD003608AE003708AF0008002000BA0100
:101680002830860000308700473FB800B81F6A2B1B
:101690002000A809A909AA09AB09AC09AD09AE093E
:1016A000AF09A80A031D672BA90A031D672BAA0A05
:1016B000031D672BAB0A031D672BAC0A031D672BA9
:1016C000AD0A031D672BAE0A031D672BAF0A20006E
:1016D000BA01BA0A3030860000308700473F200048
:1016E000B800B81F972B2000B009B109B209B3099F
:1016F000B409B509B609B709B00A031D922BB10A9E
:10170000031D922BB20A031D922BB30A031D922BC9
:10171000B40A031D922BB50A031D922BB60A031DB2
:10172000922BB70A01302000B8003808BA063B30C7
:1017300086000030870008302000B80000301E000E
:10174000B80B9F2B280829042A042B042C042D04F1
:101750002E042F040319022CB901B90AAF1BBD2BAB
:10176000A835A90DAA0DAB0DAC0DAD0DAE0DAF0D8D
:101770000130B8003808B907AE2BBB35BC0DBD0D24
:10178000BE0DBF0DC00DC10DC20D2F083702031DC8
:10179000E32B2E083602031DE32B2D083502031D13
:1017A000E32B2C083402031DE32B2B083302031D0B
:1017B000E32B2A083202031DE32B29083102031D03
:1017C000E32B28083002031CF62B2808B002290856
:1017D000B13B2A08B23B2B08B33B2C08B43B2D0885
:1017E000B53B2E08B63B2F08B73B3B14AF36AE0CCB
:1017F000AD0CAC0CAB0CAA0CA90CA80C0130B902B6
:10180000031DBD2B3A080319232CBB09BC09BD09D4
:10181000BE09BF09C009C109C209BB0A031D232CA7
:10182000BC0A031D232CBD0A031D232CBE0A031D65
:10183000232CBF0A031D232CC00A031D232CC10A1D
:10184000031D232CC20A20003B08A8003C08A90065
:101850003D08AA003E08AB003F08AC004008AD00C0
:101860004108AE004208AF0008002000DF004F082A
:1018700086008701403FD100413FD20051088400DB
:10188000520885001200253A031D152D4F088600C9
:1018900087010130810741310318810A2100C60107
:1018A000C7012000E401E501FF302100C800FF303E
:1018B000C90020004F0886008701403FD100413F0A
:1018C000D20051088400520885001200643A0319BE
:1018D000782C4F0886008701403FD100413FD2005D
:1018E00051088400520885001200693A031DB42C87
:1018F0004F08860087010130810741310318810AB2
:1019000050088600013087000108840001308500FE
:1019100002308107003FD100013FD2005108D600BC
:101920005208D700890D893B8909D800D900DA000F
:10193000DB00DC00DD005608C4005708C50058086D
:10194000C6005908C7005A08C8005B08C9005C08EF
:10195000CA005D08CB005F08863157262000450885
:10196000D0004408CF0008004F0886008701403FA0
:10197000D100413FD2005108840052088500120076
:101980006E3A031DE52C4F08860087010130810760
:1019900041310318810A5008860001308700403F1A
:1019A000840001308500810A0008D1005108DE0062
:1019B0005E0886000130870021004408C03F4508CA
:1019C000C13F2000CF01D00108004F0886008701E9
:1019D000403FD100413FD2005108840052088500A9
:1019E0001200253A031D0C2D4F0886008701013097
:1019F000810741310318810A2530AA000030AB006D
:101A00005F08D1005108AC0088311220013020005D
:101A1000CF000030D00008004F0886008701013059
:101A2000810741310318810AE12C4F0886008701A4
:101A3000403FD100413FD200510884005208850048
:101A40000008D300D4015308AA005408AB005F0873
:101A5000D5005508AC00883112208C3120004F0889
:101A6000860087010130810741310318810A062D64
:101A7000963158268D3100302000A8000830A9008A
:101A8000963133268D3197302000A8001730A900F9
:101A900096312A268D31963107268D318B170B17FB
:101AA0003F302000E3008030E2000030E1000030F1
:101AB000E000210043082000AB0021004208200084
:101AC000AA00210041082000A900210040082000B0
:101AD000A80001308931C9218D3120002B08210057
:101AE000B30020002A082100B200200029082100AC
:101AF000B100200028082100B0002000A901013019
:101B0000883152208D3120006308AB006208AA00A2
:101B10006108A9006008A8004430AF007A30AE0028
:101B20000030AD000030AC0089314D218D31031CF7
:101B3000C52D210043082000AB00210042082000F1
:101B4000AA00210041082000A9002100400820002F
:101B5000A80001308931C9218D3120002B082100D6
:101B6000AF0020002A082100AE0020002908210033
:101B7000AD00200028082100AC000030C300003078
:101B8000C2000030C1000030C00044302000C70057
:101B90007A30C6000030C5000030C4002100330890
:101BA0002000BF00210032082000BE0021003108C3
:101BB0002000BD00210030082000BC0021002F08BB
:101BC0002000C30021002E082000C20021002D08A3
:101BD0002000C10021002C082000C0009631DE2624
:101BE0008D3120003F08CB003E08CA003D08C900E7
:101BF0003C08C8008E3186268D3120004708210020
:101C0000AB00200046082100AA0020004508210062
:101C1000A900200044082100A8004230D100703003
:101C2000D0000030CF000030CE002B082000C700CD
:101C300021002A082000C600210029082000C50034
:101C4000210028082000C4006308CB006208CA00F5
:101C50006108C9006008C8008E3186268D312000D9
:101C600047082100D500200046082100D4002000AC
:101C700045082100D300200044082100D200803113
:101C800033208D3121005108A7005008A6004F08CD
:101C9000A5004E08A40027082000AB00210026085C
:101CA0002000AA00210025082000A9002100240806
:101CB0002000A8008831E7208D3120002B0821006A
:101CC000A30020002A082100A200200029082100EA
:101CD000A100200028082100A00023302200CC0011
:101CE0009830CD00210023082200D10021002208D5
:101CF0002200D000210021082200CF00210020086E
:101D00002200CE0096317C268D31502D20004B08CC
:101D10008039CC004C08D5004B35CC004C08DC0099
:101D2000CA1B5C145C080319A32E5C0A031DA02EB9
:101D30000030CB000030CA000030C9000030C800BD
:101D4000CA17CB01AB2E0030CB000030CA000030E8
:101D5000C9000030C80047088039CC004C08D506BF
:101D60004735CC004C08DD00C61B5D145D08031927
:101D7000C72E5D0A031DC42E0030C7000030C60008
:101D80000030C5000030C400C617C701CF2E003098
:101D9000C7000030C6000030C5000030C40047084E
:101DA000460445044404031DEE2E0030CB000030F1
:101DB000CA000030C9000030C8008030CA047F303B
:101DC000CB045508CC004C08CB044B08C7004A088C
:101DD000C6004908C5004808C40008005C08031D87
:101DE000FA2E0030C7000030C6000030C5000030B9
:101DF000C40008005C08CC00CD014D08CF005D0890
:101E00004C02CE00031CCF034E087F3ED6000030AC
:101E10004F3DD7004B08D4004A08D3004908D200F0
:101E20004808D1000030CB000030CA000030C900A3
:101E30000030C8000030DB000030DA000030D9008C
:101E40000030D800DD011A305D0203185F2F5D08F5
:101E50000319412F0130D135D20DD30DD40D890B8B
:101E60002B2F0130C835C90DCA0DCB0D890B322F70
:101E7000DB1B48140130D835D90DDA0DDB0D890B89
:101E80003B2F47085402031D4F2F46085302031DE2
:101E90004F2F45085202031D4F2F44085102031CC7
:101EA0005A2F5B174408D1024508D23B4608D33B62
:101EB0004708D43B0130CC004C08DD07232F5408E1
:101EC000530452045104031D5814CA1B7C2F0130C3
:101ED000C835C90DCA0DCB0D890B682FDB1B481403
:101EE0000130D835D90DDA0DDB0D890B712FFF309C
:101EF000D607FF30D73D652FDD01DB1F952FFF3063
:101F00005805CC00FF305905CD00FF305A05CE00F2
:101F10007F305B05CF004F084E044D044C0403197D
:101F20004818932F952FDD01DD0A5D080319BE2F98
:101F30000130C8070030C93D0030CA3D0030CB3DFC
:101F40004B1CBE2F4808CC004908CD004A08CE00E3
:101F50004B08CF000130D000CF37CE0CCD0CCC0CCD
:101F6000D00BAC2F4F08CB004E08CA004D08C9005B
:101F70004C08C8000130D6070030D73D5708803ADA
:101F8000CC0080304C02031DC72FFF305602031CCB
:101F9000D62FFF302000D6000030D7000030CB0015
:101FA0000030CA000030C9000030C80020005708C7
:101FB000803ACC0080304C02031DE02F01305602E5
:101FC0000318EE2F2000D601D7010030CB000030DF
:101FD000CA000030C9000030C800D50120005608F2
:101FE000CC004C08DC005C1CF72FCA17FB2F7F309D
:101FF000CC004C08CA055C36CC004C08CB00E12E66
:102BC8002700991F080096313C2608002000A9001C
:102BD80029089531FF2508003A302100990098010D
:102BE800220096010800013021009D009E019F01EE
:102BF8009B019C0108002000A800101E012E280837
:102C080023009A00080020302000BB009830BC0048
:102C18009631C3260800200029082200D60020008B
:102C280028082200D5000800200029082200DA0020
:102C3800200028082200D9000800200029082200C6
:102C4800D800200028082200D70008002000290802
:102C58002100ED00200028082100EC0008002000D9
:102C680029082100EB00200028082100EA000800BC
:102C780021006C086D040319462E6D088A006C0843
:102C88000A0096312700991308000B1120006708E5
:102C9800950021006A086B04031908006B088A0074
:102CA8006A080A00963108009731C827963195318D
:102CB800F02596319531F72596319631672696316C
:102CC80097311D27080021001508C03915389500CF
:102CD800FE3020009500FE30AA002A08E7000B11FC
:102CE8008B160330A8000030A9009631332608005F
:102CF8004E302100E90069082200D4004D08210067
:102D0800E20022004C082100E1005430E900690883
:102D1800E300003097316A27080020003C08803A19
:102D2800BD0080303D02031D9B2E01303B0203187D
:102D3800080020003B09BD003C09BE00BD0A03197C
:102D4800BE0A3D08BB003E08BC0008002000AC00DD
:102D58002C08AA002A08AB002C088600013087003E
:102D680001080319BC2E0130AA002A08AC07B02EAE
:102D78002B082C02A800A901A81BA9030800200001
:102D8800BF01BF0A3C08B3003B08B200B401973149
:102D9800412796312000B31B08000A30AA000030F2
:102DA800AB00AC018831122096312000AB1B080023
:102DB800BF01080080302000BF064308AB0042086E
:102DC800AA004108A9004008A8003F08AF003E0833
:102DD800AE003D08AD003C08AC00843175242000ED
:102DE8002B08BF002A08BE002908BD002808BC001F
:102DF80008002000B000AC01AD012808AA00AB0112
:102E08002A08AE002B08AF00301C0E2F2E08AC0786
:102E18002F08AD3D0130AE35AF0D890B0F2F0310D4
:102E2800B00C3008031D082F2D08A9002C08A80095
:102E38000800083023009F0080309D0024309E0049
:102E48000C309B009C0100302000A8000030A90035
:102E580096311826973100302000A8000030A900CC
:102E680096312126973100302000A8000030A900B3
:102E780096310F262000E60108002000B901BA01AA
:102E880032083907840033083A3D85000008B50048
:102E98003508B80038080319652F3808B500B60199
:102EA8003508AA003608AB003408B7003708AC006C
:102EB80088311220973101302000B9070030BA3D1F
:102EC800442F3A08B3003908B20008002100E60090
:102ED8006208E8006108E700C401C50167088400CA
:102EE8006808850012000319922FE730E40064088F
:102EF8002000CF0021006308E50065082000D0000D
:102F0800210066088C313524973120004F082100B4
:102F1800C407200050082100C53D722F4508E20073
:102F28004408E10008003F30F3008030F200003030
:102F3800F1000030F00020006308F7006208F60096
:102F48006108F5006008F40082318C22973173081B
:102F58002000E3007208E2007108E1007008E00058
:102F68002100BF1BC32F3F08031D08003E08031D97
:102F7800080005303C0209303D3B031808000130C9
:102F8800CC070030CD3D080022008C018D018E0158
:102F9800373021008C0070308D00FF308E004F30AC
:102FA80023008E0070308D0017308C0024008D01B6
:102FB8008C0180308E002100951325008C018D0135
:102FC8008E01373026008C00F0308D00FF308E00E7
:102FD800270099139813971726008E1327008E172A
:102FE80002302000A8000030A90096312A268B154F
:102FF80012303D009F000800483465346134723453
:103008007434203452346134743465343A3420349E
:103018000034443469347334743461346E34633442
:1030280065343A34203400345334703465346534AC
:1030380064343A34203400347C342D34003425345C
:0430480064340034B8
:020000040001F9
:06000E00FC3FFF1E9F3FB6
:00000001FF
