:020000040000FA
:04000000803114280F
:100008007E1480318B1A0B1D0D288B312D238031E6
:1000180012288B190B1C12288A31C2227E10090063
:1000280080311628FC01FD01603084000030850015
:1000380007308A31CE228031A0308400003085001C
:100048002E308A31CE228031203084000130850064
:100058002C308A31CE227E1020008D31F82D2000E0
:1000680039088039BE003E08C3003935BE003E0855
:10007800C900B81B4914490803194F28490A031D28
:100088004D280030B9000030B8000030B70000300B
:10009800B600B81757280030B9000030B800003053
:1000A800B7000030B6003D088039BE003E08C306E0
:1000B8003D35BE003E08C800BC1B4814480803195B
:1000C8007228480A031D70280030BD000030BC00AB
:1000D8000030BB000030BA00BC177A280030BD00E1
:1000E8000030BC000030BB000030BA004808031DD7
:1000F8004908031D88280030B9000030B8000030D6
:10010800B7000030B60008003608BE003E08A80058
:100118003C088B31B923803120002908CF002808FA
:10012800CE004E08BE00BF01C001C1014108C70092
:100138004008C6003F08C5003E08C4004F08BE007E
:10014800BF01C001C1014108CD004008CC003F08F3
:10015800CB003E08CA003708BE003E08A8003B088E
:100168008B31B923803120002908CF002808CE0020
:100178004E08BE00BF01C001C1013E08C4073F08C8
:10018800C53D4008C63D4108C73D4F08BE00BF01F8
:10019800C001C1013E08CA073F08CB3D4008CC3D1D
:1001A8004108CD3D3808BE003E08A8003A088B310A
:1001B800B923803120002908CF002808CE004E0836
:1001C800BE00BF01C001C1013E08C4073F08C53DCC
:1001D8004008C63D4108C73D4F08BE00BF01C001E9
:1001E800C1013E08CA073F08CB3D4008CC3D410845
:1001F800CD3D0830C435C50DC60DC70D890BFE2889
:100208003708BE003E08A8003A088B31B923803170
:1002180020002908CF002808CE004E08C4074F0840
:10022800C53D0030C63DC73D3608BE003E08A800A3
:100238003B088B31B923803120002908CF002808DA
:10024800CE004E08C4074F08C53D0030C63DC73D27
:100258000830C435C50DC60DC70D890B2D293608C4
:10026800BE003E08A8003A088B31B923803120002F
:100278002908CF002808CE004E08C4074F08C53DFE
:100288000030C63DC73D3708BE003E08A8003C0800
:100298008B31B923803120002908CF002808CE00EF
:1002A8004E08CA074F08CB3D0030CC3DCD3D38083D
:1002B800BE003E08A8003B088B31B92380312000DE
:1002C8002908CF002808CE004E08CA074F08CB3DA2
:1002D8000030CC3DCD3D3808BE003E08A8003C08A3
:1002E8008B31B923803120002908CF002808CE009F
:1002F8004E08BE004F08BF00C001C1010830BE351E
:10030800BF0DC00DC10D890B83293E08CA073F08E0
:10031800CB3D4008CC3D4108CD3D4408BE004508D2
:10032800BF004608C0004708C1001830C136C00CDD
:10033800BF0CBE0C890B9A293E08CA073F08CB3D63
:100348004008CC3D4108CD3D0830C435C50DC60D2B
:10035800C70D890BA92949084807BE00BF01BF0D71
:100368003E08823ECE00FF303F3DCF00CC1BD12956
:100378000130CA35CB0DCC0DCD0D890BBD29C71B5E
:100388004A140130C435C50DC60DC70D890BC629E1
:10039800FF30CE07FF30CF3DBA29C801C71FEA2971
:1003A800FF304405BE00FF304505BF00FF3046055D
:1003B800C0007F304705C100410840043F043E04A7
:1003C80003194A18E829EA29C801C80A480803197C
:1003D800132A0130CA070030CB3D0030CC3D003035
:1003E800CD3D4D1C132A4A08BE004B08BF004C08DF
:1003F800C0004D08C1000130C200C137C00CBF0C9D
:10040800BE0CC20B012A4108CD004008CC003F08B1
:10041800CB003E08CA000130CE070030CF3D4F0860
:10042800803ABE0080303E02031D1C2AFF304E0277
:10043800031C282A7F302000CD008030CC000030FB
:10044800CB000030CA00522A20004F08803ABE0074
:1004580080303E02031D322A01304E0203183F2A23
:1004680000302000CD000030CC000030CB00003040
:10047800CA00C301522A20004E08BE003E08C90027
:10048800FF30CA05FF30CB057F30CC050030CD05E5
:100498004918CC174936BE003E08CD004308BE00B7
:1004A8003E08CD044D08B9004C08B8004B08B70009
:1004B8004A08B6000800730880392000A000200808
:1004C800F8007335A0002008FA00F21B7A147A08A5
:1004D80003197C2A7A0A031D792A0030F3000030B8
:1004E800F2000030F1000030F000F217F301842A26
:1004F8000030F3000030F2000030F1000030F0006E
:1005080077088039A0002008F90079087806031DCB
:1005180078177735A0002008F900F61B79147908B8
:100528000319A42A790A031DA12A0030F700003014
:10053800F6000030F5000030F400F617F701AC2A99
:100548000030F7000030F6000030F5000030F4000D
:100558007A0879020318F22A781FB62A8030A00098
:100568002008F8067A08A0002008FB007908A000F7
:100578002008FA007B08A0002008F9007008A000F5
:100588002008FB007408A0002008F0007B08A000E9
:100598002008F4007108A0002008FB007508A000DE
:1005A8002008F1007B08A0002008F5007208A000D0
:1005B8002008FB007608A0002008F2007B08A000B5
:1005C8002008F6007308A0002008FB007708A000A8
:1005D8002008F3007B08A0002008F700FB01790839
:1005E800A000A1012108A3007A082002A200031C90
:1005F800A3032308803AA40080302402031D062B9D
:100608001A302202031C3C2B730872047104700414
:100618000319102B0130112B00302000A0002008F6
:10062800FB000030F3000030F2000030F100003031
:10063800F0007908A0002008FA00402B7B1C2B2B27
:100648007B3601382000A0002008FB002D2B03106A
:10065800FB0C7018FB1701302000A000F337F20CD8
:10066800F10CF00CA00B322B0130A0002008FA0787
:1006780079087A02031C222B781B732B7A08031D36
:100688004E2B0030F3000030F2000030F100003053
:10069800F00008007408F0077508F13D7608F23D8F
:1006A8007708F33D731CEE2B7B1C612B7B360138DE
:1006B8002000A0002008FB00632B0310FB0C70181F
:1006C800FB1701302000A000F337F20CF10CF00CFE
:1006D800A00B682B0130A0002008FA07EE2B730846
:1006E800803A2000A0007708803A2002031D862B5C
:1006F80076087202031D862B75087102031D862B6E
:10070800740870020318BE2BFF30A000FF30A10050
:10071800FF30A200FF30A30070087402A400710823
:10072800753BA5007208763BA6007308773BA700C7
:100738002408A0072508A13D2608A23D2708A33DB7
:100748002308F3002208F2002108F1002008F00035
:100758008030A0002008F806FB09FB0A7B08031D6F
:10076800C62B0130F0070030F13D0030F23D00307B
:10077800F33DC62B7408F0027508F13B7608F23B8E
:100788007708F33B7308720471047004031DEC2BA3
:100798007B08031DEC2B0030F3000030F200003022
:1007A800F1000030F00008000130F035F10DF20DD5
:1007B800F30D890BD92BFB1B70147B1CE52B031441
:1007C800E62B0310FB0D7A080319EC2B0130FA0213
:1007D800F21FD82BF901FB1FF92B7B087F3903196E
:1007E8007018F72BF92BF901F90A79080319262C47
:1007F8000130F0070030F13D0030F23D0030F33DAC
:10080800731C262C70082000A0007108A100720833
:10081800A2007308A3000130A400A337A20CA10C06
:10082800A00CA40B112C2308F3002208F2002108C5
:10083800F1002008F0007A0A0319262C0130A000E4
:100848002008FA077A0A031D7A08031D362C00309F
:10085800F3000030F2000030F1000030F0007A08B8
:100868000319F8017A1C3A2CF2173F2C7F3020002C
:10087800A0002008F2057A362000A0002008F30026
:10088800F81F0800F31708002100D00020004408D2
:100898002100D700200045082100D8002000460884
:1008A8002100D900200047082100DA00200048086C
:1008B8002100DB00200049082100DC0020004A0854
:1008C8002100DD0020004B082100DE00D730860023
:1008D80000308700473F2000CC00CC1F752C01302A
:1008E800762C00302000CD00CE014D082100D50027
:1008F80020004E082100D600550856040319A22CE2
:10090800D709D809D909DA09DB09DC09DD09DE09C3
:10091800D70A031DA22CD80A031DA22CD90A031D2D
:10092800A22CDA0A031DA22CDB0A031DA22CDC0A66
:10093800031DA22CDD0A031DA22CDE0A2000E11BE8
:10094800A92CFD30E205FF30E3056108803ACC00B0
:1009580080304C02031DB22C013060020318BA2CFF
:1009680001302100D1000030D200C22C20006108E3
:100978002100D200200060082100D1004B08D400DB
:100988004A08D30055085604031DCD2C2000621DCB
:10099800D22CFF302100D307FF30D43D1F30210077
:1009A800DF000030E0002200CB01A02D2100570815
:1009B800580459045A045B045C045D045E04031D76
:1009C800032D5208803A2000CC0080304C02031DD1
:1009D800F02C0130210051020318032D2100540886
:1009E800803A2000CC0080304C02031DFE2C0130E0
:1009F80021005302031CAE2D2000E21CAE2DFF3057
:100A08002100DF07FF30E03D0A302000A800A901DF
:100A1800AA01AB01AC01AD01AE01AF01210057083D
:100A28002000B000210058082000B100210059081A
:100A38002000B20021005A082000B30021005B0802
:100A48002000B40021005C082000B50021005D08EA
:100A58002000B60021005E082000B7008F31212752
:100A6800843120002908BC002808BB008B3187236B
:100A7800843120003B08303ECC0021005F082C3E2A
:100A880086000130870020004C088100FF302100DB
:100A9800D107FF30D23DFF30D307FF30D43D0A30B5
:100AA8002000A800A901AA01AB01AC01AD01AE016B
:100AB800AF01210057082000B0002100580820008D
:100AC800B100210059082000B20021005A08200076
:100AD800B30021005B082000B40021005C0820005E
:100AE800B50021005D082000B60021005E08200046
:100AF800B7008631EB268431200028082100D70072
:100B0800200029082100D80020002A082100D90047
:100B180020002B082100DA0020002C082100DB002F
:100B280020002D082100DC0020002E082100DD0017
:100B380020002F082100DE0021006008803A2000F4
:100B4800CC0080304C02031DAC2D013021005F0227
:100B58000318DA2C210055085604031DB62D200071
:100B6800621DD12DFF302100DF07FF30E03D550821
:100B78005604031DC12D2B30C22D2D30CE00003060
:100B8800CF004E082000CC0021005F082C3E8600D4
:100B98000130870020004C08810021005F082C3EAE
:100BA8002000CC004C08BB00210054082000BD00E8
:100BB800210053082000BC00210050088D313F253A
:100BC80020003C08C5003B08C40008002000DF00E6
:100BD8004F0886008701403FD100413FD2005108AD
:100BE8008400520885001200253A031DC82E4F08BC
:100BF800860087010130810741310318810A2100ED
:100C0800CA01CB012000E201E301FF30E000FF3020
:100C1800E1004F0886008701403FD100413FD200E4
:100C280051088400520885001200643A03192B2EDB
:100C38004F0886008701403FD100413FD20051084C
:100C48008400520885001200693A031D672E4F0878
:100C5800860087010130810741310318810A500855
:100C680086000130870001088400013085000230C9
:100C78008107003FD100013FD2005108D600520839
:100C8800D700890D893B8909D800D900DA00DB0033
:100C9800DC00DD005608C4005708C5005808C60027
:100CA8005908C7005A08C8005B08C9005C08CA0090
:100CB8005D08CB005F088431482420004508D00037
:100CC8004408CF0008004F0886008701403FD10044
:100CD800413FD200510884005208850012006E3A44
:100CE800031D982E4F088600870101308107413186
:100CF8000318810A5008860001308700403F8400AD
:100D080001308500810A0008D1005108DE005E0824
:100D180086000130870021004808C03F4908C13FCC
:100D28002000CF01D00108004F0886008701403F0E
:100D3800D100413FD20051088400520885001200BA
:100D4800253A031DBF2E4F08860087010130810711
:100D580041310318810A2530AA000030AB005F0832
:100D6800D1005108AC008C31BD2401302000CF00E7
:100D78000030D00008004F08860087010130810745
:100D880041310318810A942E4F0886008701403F9D
:100D9800D100413FD2005108840052088500000864
:100DA800D300D4015308AA005408AB005F08D5004B
:100DB8005508AC008C31BD24853120004F088600D1
:100DC80087010130810741310318810AB92E2000BB
:100DD800BA012830860000308700473FB800B81FA6
:100DE800172F2000A809A909AA09AB09AC09AD0960
:100DF800AE09AF09A80A031D142FA90A031D142F51
:100E0800AA0A031D142FAB0A031D142FAC0A031DD5
:100E1800142FAD0A031D142FAE0A031D142FAF0A99
:100E28002000BA01BA0A3030860000308700473FF8
:100E38002000B800B81F442F2000B009B109B2093A
:100E4800B309B409B509B609B709B00A031D3F2F9C
:100E5800B10A031D3F2FB20A031D3F2FB30A031D1A
:100E68003F2FB40A031D3F2FB50A031D3F2FB60AB3
:100E7800031D3F2FB70A01302000B8003808BA0612
:100E88003B3086000030870008302000B800003072
:100E98001E00B80B4C2F280829042A042B042C0404
:100EA8002D042E042F040319AF2FB901B90AAF1B63
:100EB8006A2FA835A90DAA0DAB0DAC0DAD0DAE0D61
:100EC800AF0D0130B8003808B9075B2FBB35BC0D32
:100ED800BD0DBE0DBF0DC00DC10DC20D2F083702CF
:100EE800031D902F2E083602031D902F2D08350262
:100EF800031D902F2C083402031D902F2B0833025A
:100F0800031D902F2A083202031D902F2908310251
:100F1800031D902F28083002031CA32F2808B002B5
:100F28002908B13B2A08B23B2B08B33B2C08B43B39
:100F38002D08B53B2E08B63B2F08B73B3B14AF3600
:100F4800AE0CAD0CAC0CAB0CAA0CA90CA80C013067
:100F5800B902031D6A2F3A080319D02FBB09BC092F
:100F6800BD09BE09BF09C009C109C209BB0A031DE1
:100F7800D02FBC0A031DD02FBD0A031DD02FBE0AD7
:100F8800031DD02FBF0A031DD02FC00A031DD02F69
:100F9800C10A031DD02FC20A20003B08A8003C0844
:100FA800A9003D08AA003E08AB003F08AC00400875
:100FB800AD004108AE004208AF0008002000BF01A4
:100FC800BF0A3C08B3003B08B200B4018B31FD23D3
:100FD80087312000B31B08000A30AA000030AB009C
:100FE800AC018C31BD2487312000AB1B0800BF0148
:060FF800080008000800DB
:101584002700991F08008B31202308002000A900A0
:1015940029088A31E3220800640080010131890BA3
:1015A400CF2A00343A302100990098012200960194
:1015B4000800013021009D009E019F019B019C01B8
:1015C40008002000A800101EE52A280823009A001D
:1015D400080026302000BB009030BC008731E22791
:1015E4000800200029082200D50020002808220035
:1015F400D4000800200029082100EF00200028085A
:101604002100EE000800200029082200D700200055
:1016140028082200D6000800200029082100ED0037
:10162400200028082100EC000800200029082100DF
:10163400EB00200028082100EA00080021006C08C3
:101644006D0403192A2B6D088A006C080A008B317B
:101654002700991308000B1120006708950021004A
:101664006A086B04031908006B088A006A080A00F8
:101674008B3108008C3185248B318A31D4228B3113
:101684008A31DB228B318B315D238B318B31D92332
:10169400080001302100C4070030C53D0030C63DBC
:1016A4000030C73D0130C0070030C13D0030C23DAD
:1016B4000030C33D080021001508C03917389500D3
:1016C4000C30200095000C30AA002A08E7000B110A
:1016D4008B16FD30A8000730A9008B3117230800B2
:1016E4004E302100E90069082200D2004D08210093
:1016F400E20022004C082100E1005230E9006908B0
:10170400E30000308C312624080020003C08803A95
:10171400BD0080303D02031D912B01303B020318B4
:10172400080020003B09BD003C09BE00BD0A0319A6
:10173400BE0A3D08BB003E08BC0008002000AC0007
:101744002C08AA002A08AB002C0886000130870068
:1017540001080319B22B0130AA002A08AC07A62BF2
:101764002B082C02A800A901A81BA903080020002B
:10177400B000AC01AD012808AA00AB012A08AE00F4
:101784002B08AF00301CCA2B2E08AC072F08AD3D28
:101794000130AE35AF0D890BCB2B0310B00C3008E4
:1017A400031DC42B2D08A9002C08A800080008302C
:1017B40023009F0080309D0024309E000C309B004D
:1017C4009C0100302000A8000030A9008A31FC22CE
:1017D4008B3100302000A8000030A9008B31052394
:1017E4008B3100302000A8000030A9008A31F32298
:1017F4002000E60108002000B901BA0132083907C7
:10180400840033083A3D85000008B5003508B80067
:1018140038080319212C3808B500B6013508AA0088
:101824003608AB003408B7003708AC008C31BD244F
:101834008B3101302000B9070030BA3D002C3A0842
:10184400B3003908B20008002100E6006208E8008D
:101854006108E700C801C9016708840068088500B9
:10186400120003194E2CE730E40064082000CF0076
:1018740021006308E50065082000D0002100660807
:101884008531EA258C3120004F082100C80720004B
:1018940050082100C93D2E2C4908E2004808E10007
:1018A40008002100C31B632C4308031D08004208E1
:1018B400031D08004108031D080079304002031885
:1018C400080001302000E4070030E53D3F30F3001C
:1018D4008030F2000030F1000030F00021002B08CD
:1018E400F7002A08F6002908F5002808F4008231D8
:1018F4005F2273082100AB007208AA007108A900D6
:101904007008A800080022008C018D018E01373078
:1019140021008C0070308D00FF308E004F3023008A
:101924008E0070308D0017308C0024008D018C01E6
:1019340080308E002100951325008C018D018E01CD
:10194400373026008C00F0308D00FF308E002700E9
:1019540099139813971726008E1327008E17FE30BD
:101964002000A8000730A9008B310E238B151230FC
:101974003D009F00080020002C08031D2C08031DB7
:10198400C82C2A088A31C8228C31F42C2C08033E36
:1019940086008701160001040319EB2C2C08033E72
:1019A40086008701403FAD00413FAE002C0A86000F
:1019B4008701403FAF00413FB0003008803AB1009A
:1019C4002E08803A3102031DE92C2D082F0203183A
:1019D400F42C20002C0A8600870101308107413154
:1019E4000318810A20002A08AD00AE012D08AA00C0
:1019F4002E08AB0008002000AC00282DFE308A31F0
:101A0400E3228C3120002908803E8A31E322080039
:101A1400FE308A31E3228C3120002908C03E8A310D
:101A2400E3220800FE308A31E3228C3120002908A9
:101A3400943E8A31E3220800FE308A31E3228C315D
:101A440020002908D43E8A31E32208002C08AA0089
:101A5400AB012B08003A0319302D3E2D2A08013A18
:101A64000319002D033A03190A2D013A0319142D01
:101A7400073A03191E2D3E2D08002000C300621CE6
:101A84004E2D3B08B2000130B3004308BE003E08AF
:101A9400B4008B31FD238D312000BD1B562D3D0834
:101AA400C2003C08C100582DC101C201BF01C001E0
:101AB4004008803ABE004208803A3E02031D642D6D
:101AC40041083F020318782D20302000AA0000307E
:101AD400AB004308BE003E08AC008C31BD248D3100
:101AE40001302000BF070030C03D5A2D200062188D
:101AF400862D3B08B2000130B3004308BE003E0807
:101B0400B4008B31FD238D3120003B088B31A023A1
:101B1400200041082807BB004208293DBC000800FA
:101B240003102000520D530DD4005408DA005A0853
:101B3400031DA52D0030D3000030D2000030D100A9
:101B44000030D00008005008D4005108D5005208D5
:101B5400D6005308D7001F30D736D60CD50CD40C7A
:101B6400890BAE2D5408D8005808D900D217FF307D
:101B7400D005FF30D105FF30D2050030D3059630B3
:101B8400DA02DA1FD82D5A08803A973E031C9C2D9E
:101B94000130D336D20CD10CD00C890BCB2D0130B3
:101BA400D4005408DA070319E92DCA2D20305A024B
:101BB40003189C2D5A080319E92D0130D035D10D95
:101BC400D20DD30D890BE02D0130DA02DC2D59083A
:101BD40003190800D009D109D209D309D00A03197D
:101BE400D10A0319D20A0319D30A08008B313C2302
:101BF4008D314B302000A8000B30A9008B31172306
:101C04008D3153302000A8000C30A9008B310E23F5
:101C14008D318A31EB228D318B170B172100470848
:101C24002000AB00210046082000AA00210045083E
:101C34002000A900210044082000A80001308E31B2
:101C44008B268D3120002B082100A70020002A08B4
:101C54002100A600200029082100A5002000280852
:101C64002100A4002000A90101308C31FD248D3114
:101C740009302200D3001C30890B3E2ED30B3E2E9C
:101C8400000020302200CC009030CD0020006408F9
:101C9400A8006508A900890D893B8909AA00AB0041
:101CA40001308E318B268D3120002B08BD002A088F
:101CB400BC002908BB002808BA003F30B900F33043
:101CC400B8003330B7003330B600803133208D3163
:101CD40020003908D3003808D2003708D10036086C
:101CE400D0008D3192258D31200051082200CF0083
:101CF400200050082200CE008B3172238D31093030
:101D04002200D3001C30890B852ED30B852E0000B6
:101D1400102E2000B0003008031DAB1FA12E28098F
:101D2400B2002909B3002A09B4002B09B500B20A8C
:101D34000319B30A0319B40A0319B50AA92E2B0807
:101D4400B5002A08B4002908B3002808B2002B08FB
:101D54002A0429042804031DB82E0030AB000030E7
:101D6400AA000030A9000030A80008009630AC009A
:101D74002C08B100FE3035050319DF2E0130AC000C
:101D84002C08B1070130B536B40CB30CB20C890B76
:101D9400C52EBC2E0130AC002C08B1070130B207AF
:101DA4000030B33D0030B43D0030B53D0130B536B0
:101DB400B40CB30CB20C890BD92EFF3035050319C2
:101DC400F12ECC2E02303102031CF32E0130B1026D
:101DD4000130B235B30DB40DB50D890BEB2EB41F24
:101DE400E42E3118FD2EFF30B205FF30B3057F30ED
:101DF400B405FF30B5050310B10C3108AC00AD01DA
:101E0400AE01AF011830AC35AD0DAE0DAF0D890B81
:101E1400052F2C08B2042D08B3042E08B4042F088F
:101E2400B5043008031DAB1F182FB5173508AB00D8
:101E34003408AA003308A9003208A80008002000CA
:101E4400BA013030860000308700473FB800B81F21
:101E54004D2F2000B009B109B209B309B409B5097D
:101E6400B609B709B00A031D4A2FB10A031D4A2F48
:101E7400B20A031D4A2FB30A031D4A2FB40A031DD5
:101E84004A2FB50A031D4A2FB60A031D4A2FB70A63
:101E94002000BA01BA0A2830860000308700473F84
:101EA4002000B800B81F752F2000A809A909AA09A5
:101EB400AB09AC09AD09AE09AF09A80A031D752F1A
:101EC400A90A031D752FAA0A031D752FAB0A031D4A
:101ED400752FAC0A031D752FAD0A031D752FAE0AAD
:101EE400031D752FAF0A2000280829042A042B0497
:101EF4002C042D042E042F040319CD2FB901B90A83
:101F0400AF1B912FA835A90DAA0DAB0DAC0DAD0DCE
:101F1400AE0DAF0D0130B8003808B907822F2F0875
:101F24003702031DAF2F2E083602031DAF2F2D08D5
:101F34003502031DAF2F2C083402031DAF2F2B08CD
:101F44003302031DAF2F2A083202031DAF2F2908C5
:101F54003102031DAF2F28083002031CC12F2808AB
:101F6400B0022908B13B2A08B23B2B08B33B2C082A
:101F7400B43B2D08B53B2E08B63B2F08B73BAF3614
:101F8400AE0CAD0CAC0CAB0CAA0CA90CA80C01301B
:101F9400B902031D912F3A080319EE2FB009B109B4
:101FA400B209B309B409B509B609B709B00A031DE2
:101FB400EE2FB10A031DEE2FB20A031DEE2FB30A52
:101FC400031DEE2FB40A031DEE2FB50A031DEE2FD9
:101FD400B60A031DEE2FB70A20003008A800310806
:101FE400A9003208AA003308AB003408AC00350855
:101FF400AD003608AE003708AF0008004834653439
:102004006134723474342034523461347434653439
:102014003A342034003444346934733474346134CD
:102024006E34633465343A342034003453347034B9
:102034006534653464343A342034003425346434EB
:0E20440020342034203400347C342D34003419
:020000040001F9
:06000E00FC3FFF1E9F3FB6
:00000001FF
