:020000040000FA
:1000000080311428080008007E1480318B1A0B1DE3
:100010000D289431E524803112288B190B1C1228ED
:10002000943148247E100900803116286D308400F8
:1000300094308500693086000030870007309431A5
:100040006024803122008731FE278031E80087312B
:10005000FF278031E900BF30840095308500A03053
:1000600086000130870020309431602480315C307C
:100070008400003085000D3094315A2480312030C6
:100080008400013085002F3094315A248031C030F3
:10009000840001308500143094315A24803120309E
:1000A000840002308500203094315A247E102000D4
:1000B0008B31CC2B200030088039B5003508BA00D0
:1000C0003035B5003508C000AF1B40144008031997
:1000D0007628400A031D74280030B0000030AF00BD
:1000E0000030AE000030AD00AF177E280030B00009
:1000F0000030AF000030AE000030AD003408803971
:10010000B5003508BA063435B5003508BF00B31B55
:100110003F143F08031999283F0A031D9728003010
:10012000B4000030B3000030B2000030B100B317AB
:10013000A1280030B4000030B3000030B20000301D
:10014000B1003F08031D4008031DAF280030B00078
:100150000030AF000030AE000030AD0008002D08C8
:10016000B5003508F00033089531A02580317108BD
:100170002000C6007008C5004508B500B601B701EB
:10018000B8013808BE003708BD003608BC00350885
:10019000BB004608B500B601B701B8013808C40075
:1001A0003708C3003608C2003508C1002E08B50064
:1001B0003508F00032089531A02580317108200003
:1001C000C6007008C5004508B500B601B701B80102
:1001D0003508BB073608BC3D3708BD3D3808BE3D75
:1001E0004608B500B601B701B8013508C1073608A1
:1001F000C23D3708C33D3808C43D2F08B500350857
:10020000F00031089531A025803171082000C6002A
:100210007008C5004508B500B601B701B80135083A
:10022000BB073608BC3D3708BD3D3808BE3D460813
:10023000B500B601B701B8013508C1073608C23D9F
:100240003708C33D3808C43D0830BB35BC0DBD0D73
:10025000BE0D890B25292E08B5003508F0003108A0
:100260009531A025803171082000C6007008C500B6
:100270004508BB074608BC3D0030BD3DBE3D2D08CE
:10028000B5003508F00032089531A025803171089D
:100290002000C6007008C5004508BB074608BC3DE5
:1002A0000030BD3DBE3D0830BB35BC0DBD0DBE0DA3
:1002B000890B54292D08B5003508F0003108953117
:1002C000A025803171082000C6007008C5004508CF
:1002D000BB074608BC3D0030BD3DBE3D2E08B50005
:1002E0003508F00033089531A025803171082000D1
:1002F000C6007008C5004508C1074608C23D003069
:10030000C33DC43D2F08B5003508F00032089531D3
:10031000A025803171082000C6007008C50045087E
:10032000C1074608C23D0030C33DC43D2F08B5009B
:100330003508F00033089531A02580317108200080
:10034000C6007008C5004508B5004608B600B701EC
:10035000B8010830B535B60DB70DB80D890BAA290F
:100360003508C1073608C23D3708C33D3808C43DCB
:100370003B08B5003C08B6003D08B7003E08B80091
:100380001830B836B70CB60CB50C890BC129350836
:10039000C1073608C23D3708C33D3808C43D0830A0
:1003A000BB35BC0DBD0DBE0D890BD02940083F07E4
:1003B000B500B601B60D3508823EC500FF30363DAA
:1003C000C600C31BF8290130C135C20DC30DC40DD1
:1003D000890BE429BE1B41140130BB35BC0DBD0D9A
:1003E000BE0D890BED29FF30C507FF30C63DE12961
:1003F000BF01BE1F112AFF303B05B500FF303C0591
:10040000B600FF303D05B7007F303E05B800380824
:10041000370436043504031941180F2A112ABF0185
:10042000BF0A3F0803193A2A0130C1070030C23D14
:100430000030C33D0030C43D441C3A2A4108B50099
:100440004208B6004308B7004408B8000130B900BC
:10045000B837B70CB60CB50CB90B282A3808C4004D
:100460003708C3003608C2003508C1000130C5078F
:100470000030C63D4608803AB50080303502031D85
:10048000432AFF304502031C4F2A7F302000C4005E
:100490008030C3000030C2000030C100792A200043
:1004A0004608803AB50080303502031D592A0130D4
:1004B00045020318662A00302000C4000030C30043
:1004C0000030C2000030C100BA01792A200045087E
:1004D000B5003508C000FF30C105FF30C2057F30D0
:1004E000C3050030C4054018C3174036B5003508B1
:1004F000C4003A08B5003508C4044408B0004308F5
:10050000AF004208AE004108AD00080021003008ED
:100510002000E30021002F082000E2000230DC0769
:100520000030DD3D0030DE3D0030DF3D22002008A0
:1005300020005C022100B7002200210820005D3B62
:100540002100B80020006308803A2100B10020009B
:100550006C08803A21003102031DB12A20006B088B
:1005600062020318F22A05302100A0000030A10029
:1005700020006A082100A300200069082100A200D1
:1005800088310320823121002108AA002008A90017
:100590000330AB000030AC0095318425823121005E
:1005A0002A08803AB1003808803A3102031DDA2A5D
:1005B000370829020318F22A20006308803A210034
:1005C000B10020006E08803A21003102031DEB2AA1
:1005D00020006D0862020318F22A20006308EE0072
:1005E0006208ED0020006C08803A2100B100200074
:1005F0006308803A21003102031D012B20006208AC
:100600006B0203181D2B22006908803A2100B100FB
:1006100020006308803A21003102031D132B2000C3
:1006200062082200680203181D2B200063082200C4
:10063000E900200062082200E80021003808803A22
:10064000B10080303102031D272BFB303702031C21
:10065000232C20006C08803A2100B10020006308A0
:10066000803A21003102031D382B200062086B0202
:100670000318232C20006608031D232C05302100BD
:10068000A0000030A10020006A082100A300200083
:1006900069082100A200883103208231210021084D
:1006A000AA002008A9000330AB000030AC0095314F
:1006B0008425823121002A08803AB1003808803A26
:1006C0003102031D652B370829020318232C013042
:1006D0002100B10031082000E6002200200820009F
:1006E0005C02E9002200210820005D3BEA005F086F
:1006F0002200A30020005E082200A20020005D0866
:100700002200A10020005C082200A0002000670851
:100710000319A92BE7012100B501B60121003535E8
:10072000C03E86000130870020006908C03F6A088B
:10073000C13F01302100B5070030B63D3608803A90
:10074000B10080303102031DA72B0A303502031C93
:100750008E2B20006F080319B52BEF01013021000B
:10076000B10031082000E70008002100B301B40106
:10077000B901BA0121003935C23E86000130870037
:100780003935C03E840001308500403F803F413F05
:10079000813F3935C03E860001308700403FB100BF
:1007A000413FB2003108B3073208B43D0130B90708
:1007B0000030BA3D3A08803AB10080303102031D62
:1007C000E32B09303902031CBA2B20006A082300EE
:1007D000D300200069082300D20052082100B3078B
:1007E000230053082100B43D0A30A0000030A100CE
:1007F0003408A3003308A2009631B72682312100C5
:100800002108B4002008B3003308A0003408A10078
:10081000A201A3010030A7000030A600EA30A50025
:100820006030A40089318D2182312100210822000D
:10083000B700210020082200B60001302100B100DD
:1008400031082200C60020006308803A2100B10070
:1008500020006C08803A21003102031D322C200058
:100860006B0862020318692C20006603031D692CC3
:10087000E6016D0822006802B80020006E08220020
:10088000693BB90002302100A0000030A100220025
:1008900039082100A300220038082100A200883175
:1008A0000320823120006D08210020072000EB008A
:1008B0006E082100213D2000EC006C082200E900B8
:1008C00020006B082200E80020006C08EE006B0896
:1008D000ED0021003808803AB10089303102031D53
:1008E000732CC5303702031C080012302000EB00C7
:1008F0000230EC0000302200E8000230E900003055
:100900002000ED000230EE005F082200A30020006E
:100910005E082200A20020005D082200A100200045
:100920005C082200A00001302100B1003108200045
:10093000EF00E7010800730880392000A0002008BC
:10094000F8007335A0002008FA00F21B7A147A0828
:100950000319B82C7A0A031DB52C0030F3000030BF
:10096000F2000030F1000030F000F217F301C02C6B
:100970000030F3000030F2000030F1000030F000F1
:1009800077088039A0002008F90079087806031D4F
:1009900078177735A0002008F900F61B791479083C
:1009A0000319E02C790A031DDD2C0030F70000301C
:1009B000F6000030F5000030F400F617F701E82CDF
:1009C0000030F7000030F6000030F5000030F40091
:1009D0007A08790203182E2D781FF22C8030A0009F
:1009E0002008F8067A08A0002008FB007908A0007B
:1009F0002008FA007B08A0002008F9007008A00079
:100A00002008FB007408A0002008F0007B08A0006C
:100A10002008F4007108A0002008FB007508A00061
:100A20002008F1007B08A0002008F5007208A00053
:100A30002008FB007608A0002008F2007B08A00038
:100A40002008F6007308A0002008FB007708A0002B
:100A50002008F3007B08A0002008F700FB017908BC
:100A6000A000A1012108A3007A082002A200031C13
:100A7000A3032308803AA40080302402031D422DE2
:100A80001A302202031C782D73087204710470045A
:100A900003194C2D01304D2D00302000A0002008FE
:100AA000FB000030F3000030F2000030F1000030B5
:100AB000F0007908A0002008FA007C2D7B1C672D2F
:100AC0007B3601382000A0002008FB00692D0310B0
:100AD000FB0C7018FB1701302000A000F337F20C5C
:100AE000F10CF00CA00B6E2D0130A0002008FA07CD
:100AF00079087A02031C5E2D781BAF2D7A08031D3E
:100B00008A2D0030F3000030F2000030F100003098
:100B1000F00008007408F0077508F13D7608F23D12
:100B20007708F33D731C2A2E7B1C9D2D7B360138E4
:100B30002000A0002008FB009F2D0310FB0C701864
:100B4000FB1701302000A000F337F20CF10CF00C81
:100B5000A00BA42D0130A0002008FA072A2E73084C
:100B6000803A2000A0007708803A2002031DC22DA1
:100B700076087202031DC22D75087102031DC22D75
:100B8000740870020318FA2DFF30A000FF30A10096
:100B9000FF30A200FF30A30070087402A4007108A7
:100BA000753BA5007208763BA6007308773BA7004B
:100BB0002408A0072508A13D2608A23D2708A33D3B
:100BC0002308F3002208F2002108F1002008F000B9
:100BD0008030A0002008F806FB09FB0A7B08031DF3
:100BE000022E0130F0070030F13D0030F23D0030C0
:100BF000F33D022E7408F0027508F13B7608F23BD3
:100C00007708F33B7308720471047004031D282EE7
:100C10007B08031D282E0030F3000030F200003066
:100C2000F1000030F00008000130F035F10DF20D58
:100C3000F30D890B152EFB1B70147B1C212E031446
:100C4000222E0310FB0D7A080319282E0130FA0218
:100C5000F21F142EF901FB1F352E7B087F39031973
:100C60007018332E352EF901F90A79080319622E0E
:100C70000130F0070030F13D0030F23D0030F33D2F
:100C8000731C622E70082000A0007108A100720879
:100C9000A2007308A3000130A400A337A20CA10C8A
:100CA000A00CA40B4D2E2308F3002208F20021080B
:100CB000F1002008F0007A0A0319622E0130A0002A
:100CC0002008FA077A0A031D7A08031D722E0030E5
:100CD000F3000030F2000030F1000030F0007A083C
:100CE0000319F8017A1C762EF2177B2E7F30200034
:100CF000A0002008F2057A362000A0002008F300AA
:100D0000F81F0800F317080077088039F800780802
:100D10002000A4007735F8007808AB00F61B2B14F0
:100D20002B080319A12E2B0A031D9E2E0030F7005D
:100D30000030F6000030F5000030F400F617F7013F
:100D4000A92E0030F7000030F6000030F50000302A
:100D5000F40073088039F8007808A4067335F800A9
:100D60007808AC00F21B2C142C080319C52E2C0A91
:100D7000031DC22E0030F3000030F2000030F100FD
:100D80000030F000F217F301CD2E0030F3000030F8
:100D9000F2000030F1000030F000730872047104BA
:100DA0007004031DEC2E0030F7000030F600003018
:100DB000F5000030F4008030F6047F30F70424089A
:100DC000F8007808F7047708F3007608F200750851
:100DD000F1007408F00008002B08031DF82E003005
:100DE000F3000030F2000030F1000030F0000800A5
:100DF0002B08F800F9017908FB002C087802FA00AA
:100E0000031CFB037A087F3EA50000307B3DA60053
:100E10007708A3007608A2007508A1007408A00056
:100E20000030F7000030F6000030F5000030F4002C
:100E30000030AA000030A9000030A8000030A70050
:100E4000AC011A302C0203185D2F2C0803193F2F18
:100E50000130A035A10DA20DA30D890B292F013062
:100E6000F435F50DF60DF70D890B302FAA1B741410
:100E70000130A735A80DA90DAA0D890B392F7308CC
:100E80002302031D4D2F72082202031D4D2F7108EE
:100E90002102031D4D2F70082002031C582F2A1712
:100EA0007008A0027108A13B7208A23B7308A33B23
:100EB0000130F8007808AC07212F23082204210410
:100EC0002004031D2714F61B7A2F0130F435F50D8D
:100ED000F60DF70D890B662FAA1B74140130A73588
:100EE000A80DA90DAA0D890B6F2FFF30A507FF30A4
:100EF000A63D632FAC01AA1F932FFF302705F800F2
:100F0000FF302805F900FF302905FA007F302A0557
:100F1000FB007B087A047904780403197418912F74
:100F2000932FAC01AC0A2C080319BC2F0130F40735
:100F30000030F53D0030F63D0030F73D771CBC2F0A
:100F40007408F8007508F9007608FA007708FB00C5
:100F50000130FC00FB37FA0CF90CF80CFC0BAA2F43
:100F60007B08F7007A08F6007908F5007808F400A5
:100F70000130A5070030A63D2608803AF8008030F1
:100F80007802031DC52FFF302502031CD42FFF302C
:100F90002000A5000030A6000030F7000030F60069
:100FA0000030F5000030F40020002608803AF800F8
:100FB00080307802031DDE2F013025020318EC2F4C
:100FC0002000A501A6010030F7000030F600003037
:100FD000F5000030F400A40120002508F80078088E
:100FE000AB002B1CF52FF617F92F7F30F80078088F
:100FF000F6052B36F8007808F700DF2E00340234AF
:1010000021009D1408002100A601A11F0E28A0099F
:10101000A109A00A0319A10AA601A60AA31F19285B
:10102000A209A309A20A0319A30A0130A4002408F3
:10103000A606A701A8012008210403194828A50134
:10104000A50AA11B2D280130A035A10D890B24284C
:101050000130A4002408A50721280130A735A80DD8
:10106000890B2E2821082302031D3828200822027C
:10107000031C3F282008A2022108A33B27140130AB
:10108000A136A00C890B40280130A502031D2D2894
:10109000260803195028A709A809A70A0319A80AAE
:1010A0002808A1002708A00008002100BB0020009C
:1010B000601C662821003308AA000230AB003B0800
:1010C000B6003608AC009631292688312100B51BC0
:1010D0006E283508BA003408B9007028B901BA0181
:1010E000B701B8013808803AB6003A08803A3602AB
:1010F000031D7C283908370203189028203021006E
:10110000A2000030A3003B08B6003608A4009731C7
:101110002927883101302100B7070030B83D7228F7
:10112000200060189F2821003308AA000230AB007D
:101130003B08B6003608AC009631292688312100DC
:10114000330895315025210039082007B3003A08AB
:10115000213DB400080003102000490D4A0DCB00CA
:101160004B08D1005108031DBE280030CA000030D2
:10117000C9000030C8000030C70008004708CB0095
:101180004808CC004908CD004A08CE001F30CE36B2
:10119000CD0CCC0CCB0C890BC7284B08CF004F08CB
:1011A000D000C917FF30C705FF30C805FF30C9059B
:1011B0000030CA059630D102D11FF1285108803A7B
:1011C000973E031CB5280130CA36C90CC80CC70CA1
:1011D000890BE4280130CB004B08D1070319022901
:1011E000E328203051020318B528510803190229B9
:1011F0000130C735C80DC90DCA0D890BF92801305A
:10120000D102F528500803190800C709C809C909FF
:10121000CA09C70A0319C80A0319C90A0319CA0A5D
:101220000800003021002005A80000302105A90099
:1012300080302205AA007F302305AB002B082A044A
:1012400029042804031D2C290030A3000030A2002B
:101250000030A1000030A00000302405A8000030BC
:101260002505A90080302605AA007F302705AB00A0
:101270002B082A0429042804031D46290030A7004E
:101280000030A6000030A5000030A400A31F602994
:101290000030A8000030A9000030AA008030AB0068
:1012A0002008A8022108A93B2208AA3B2308AB3B3F
:1012B0002B08A3002A08A2002908A1002808A000E2
:1012C000A71F7A290030A8000030A9000030AA002A
:1012D0008030AB002408A8022508A93B2608AA3BB9
:1012E0002708AB3B2B08A7002A08A6002908A50061
:1012F0002808A4008030A3068030A7062708230210
:10130000031D080026082202031D080025082102EB
:10131000031D08002408200208002100AA01A31FC1
:101320009E29A009A109A209A309A00A0319A10ADB
:101330000319A20A0319A30AAA01AA0AA71FAF291F
:10134000A409A509A609A709A40A0319A50A03194E
:10135000A60A0319A70A0130A8002808AA06003027
:10136000AE000030AD000030AC000030AB00230810
:101370002204210420040319F829A901A90AA31BA6
:10138000CD290130A035A10DA20DA30D890BC229D5
:101390000130A8002808A907BF290130AB35AC0DE2
:1013A000AD0DAE0D890BCE2923082702031DE229BE
:1013B00022082602031DE22921082502031DE22935
:1013C00020082402031CED292008A4022108A53BC3
:1013D0002208A63B2308A73B2B140130A336A20CFE
:1013E000A10CA00C890BEE290130A902031DCD2907
:1013F0002A080319062AAB09AC09AD09AE09AB0AE4
:101400000319AC0A0319AD0A0319AE0A2E08A3008A
:101410002D08A2002C08A1002B08A0000800210024
:10142000E9005A08860001308700403FDC00413F58
:10143000DD005C0884005D0885001200253A031D6C
:10144000C82A5A08860001308700013081074131DF
:101450000318810A2200B201B3012000E001E1017A
:10146000FF302200B400FF30B50021005A0886008A
:1014700001308700403FDC00413FDD005C08840014
:101480005D0885001200643A0319562A5A0886003E
:1014900001308700403FDC00413FDD005C088400F4
:1014A0005D0885001200693A031D932A5A088600D8
:1014B000013087000130810741310318810A5B0840
:1014C0008600013087000108840001308500023069
:1014D0008107003FDC00013FDD005C08E1005D08A2
:1014E000E200890D893B8909E300E400E500E6009C
:1014F000E700E8006108BC006208BD006308BE00A8
:101500006408BF006508C0006608C1006708C20023
:101510006808C30069088E31AD2621003D08DB0054
:101520003C08DA0008005A08860001308700403F76
:10153000DC00413FDD005C0884005D08850012008E
:10154000253A031DBC2A5A08860001308700013065
:10155000810741310318810A2530A2000030A30021
:101560006908DC005C08A4009731292701302100BC
:10157000DA000030DB0008005A08860001308700DE
:101580000130810741310318810ADA01DB010800CB
:101590005A08860001308700403FDC00413FDD00F3
:1015A0005C0884005D0885000008DE00DF015E083D
:1015B000A2005F08A3006908E0006008A40097315A
:1015C00029278A3121005A0886000130870001301E
:1015D000810741310318810AB62A2100B201A830DF
:1015E000860000308700473FB000B01F192B210054
:1015F000A809A909AA09AB09AC09AD09AE09AF0947
:10160000A80A031D162BA90A031D162BAA0A031DDF
:10161000162BAB0A031D162BAC0A031D162BAD0AA5
:10162000031D162BAE0A031D162BAF0A2100B201B3
:10163000B20AA030860000308700473F2100B0008A
:10164000B01F412B2100A009A109A209A309A409E7
:10165000A509A609A709A00A031D412BA10A031D7C
:10166000412BA20A031D412BA30A031D412BA40AEF
:10167000031D412BA50A031D412BA60A031D412B67
:10168000A70A21002008210422042304240425049D
:10169000260427040319992BB101B10AA71B5D2B5E
:1016A000A035A10DA20DA30DA40DA50DA60DA70D8E
:1016B0000130B0003008B1074E2B27082F02031D60
:1016C0007B2B26082E02031D7B2B25082D02031DD4
:1016D0007B2B24082C02031D7B2B23082B02031DCC
:1016E0007B2B22082A02031D7B2B21082902031DC4
:1016F0007B2B20082802031C8D2B2008A802210820
:10170000A93B2208AA3B2308AB3B2408AC3B250895
:10171000AD3B2608AE3B2708AF3BA736A60CA50C71
:10172000A40CA30CA20CA10CA00C0130B102031D4F
:101730005D2B32080319BA2BA809A909AA09AB091C
:10174000AC09AD09AE09AF09A80A031DBA2BA90A55
:10175000031DBA2BAA0A031DBA2BAB0A031DBA2B11
:10176000AC0A031DBA2BAD0A031DBA2BAE0A031D2A
:10177000BA2BAF0A21002808A0002908A1002A08D6
:10178000A2002B08A3002C08A4002D08A5002E08F9
:10179000A6002F08A70008009431D6248B31DF3033
:1017A0002100A0001530A1009431A8248B31A33072
:1017B0002100A0000D30A10094319F248B31153001
:1017C0002200DC004B30DB00BE30890BE52BDB0B4D
:1017D000E52BDC0BE52B000094317C248B318B173F
:1017E0000B172100A10101309631EC268B31B83066
:1017F00095310A258B312100A10102309631EC266A
:101800008B31AD3095310A258B312100A101033098
:101810009631EC268B31A03095310A258B31210091
:10182000A10104309631EC268B31023022002406CF
:10183000250426042704031D3E2C883100208B310B
:1018400094314E248B31210021082200BB0021005D
:1018500020082200BA003B082100B00022003A080C
:101860002100AF00823186228B3100302200A70098
:101870000030A6000030A5000030A4000730DB00D7
:101880005B082100A10001309631EC268B314630F7
:101890002100A3006A30A2006030A1000030A00047
:1018A00022004E082100A70022004D082100A600BA
:1018B00022004C082100A50022004B082100A400B2
:1018C000893111218B31031C732C00302200D2008E
:1018D0009830D3003F08D5003E08D4004108D70017
:1018E0004008D600782C0F302200D2009830D30068
:1018F0009431F5248B310A302200DB005B08210093
:10190000A10002309631EC268B3127302200D20024
:101910009830D3004508D5004408D4004308D700C8
:101920004208D6009431F5248B310D302200DB00C3
:101930005B082100A10003309631EC268B311D306D
:101940002200D2009830D3003708D5003608D400E2
:101950009431F5248B31F12B2100B201A0308600A7
:1019600000308700473FB000B01FD82C2100A009ED
:10197000A109A209A309A409A509A609A709A00A02
:10198000031DD52CA10A031DD52CA20A031DD52C9D
:10199000A30A031DD52CA40A031DD52CA50A031DDB
:1019A000D52CA60A031DD52CA70A2100B201B20A24
:1019B000A830860000308700473F2100B000B01FEC
:1019C000052D2100A809A909AA09AB09AC09AD098F
:1019D000AE09AF09A80A031D002DA90A031D002D99
:1019E000AA0A031D002DAB0A031D002DAC0A031D1E
:1019F000002DAD0A031D002DAE0A031D002DAF0AF8
:101A000001302100B0003008B206B330860000304B
:101A1000870008302100B00000301E00B00B0D2DF3
:101A20002008210422042304240425042604270476
:101A30000319702DB101B10AA71B2B2DA035A10DE3
:101A4000A20DA30DA40DA50DA60DA70D0130B0008C
:101A50003008B1071C2DB335B40DB50DB60DB70D5B
:101A6000B80DB90DBA0D27082F02031D512D2608F8
:101A70002E02031D512D25082D02031D512D240872
:101A80002C02031D512D23082B02031D512D22086A
:101A90002A02031D512D21082902031D512D200862
:101AA0002802031C642D2008A8022108A93B220853
:101AB000AA3B2308AB3B2408AC3B2508AD3B2608DA
:101AC000AE3B2708AF3B3314A736A60CA50CA40CDD
:101AD000A30CA20CA10CA00C0130B102031D2B2DF4
:101AE00032080319912DB309B409B509B609B7092C
:101AF000B809B909BA09B30A031D912DB40A031D27
:101B0000912DB50A031D912DB60A031D912DB70A1B
:101B1000031D912DB80A031D912DB90A031D912DA6
:101B2000BA0A21003308A0003408A1003508A20039
:101B30003608A3003708A4003808A5003908A60015
:101B40003A08A700080042302000B0007030AF0013
:101B50000030AE000030AD0022004E08F3004D080A
:101B6000F2004C08F1004B08F0004430F7007A30E6
:101B7000F6000030F5000030F400863184268D3107
:101B800073082000B4007208B3007108B200700836
:101B9000B10080315A208D31200030082200CA0067
:101BA00020002F082200C90020002E082200C800B3
:101BB00020002D082200C70040302000B000003077
:101BC000AF000030AE000030AD0022004A08200017
:101BD000B400220049082000B30022004808200079
:101BE000B200220047082000B10080315A208D3118
:101BF00020003008DB002F08DA002E08D9002D085D
:101C0000D8003D30B0007530AF00C230AE008F302C
:101C1000AD005B08B4005A08B3005908B200580878
:101C2000B10080315A208D31200030082200AF00F1
:101C300020002F082200AE0020002E082200AD0058
:101C400020002D082200AC002F082000CA0022002E
:101C50002E082000C90022002D082000C800220004
:101C60002C082000C7008831AB208D3120004808A7
:101C70002200BF00200047082200BE000A302000DA
:101C8000D2000030D30022002F082000B400220030
:101C90002E082000B30022002D082000B2002200F0
:101CA0002C082000B1004130B0002030AF000030DF
:101CB000AE000030AD0080315A208D312000300858
:101CC000CA002F08C9002E08C8002D08C700883197
:101CD000AB208D3120004808D5004708D40097314B
:101CE00069278D31200053082200C10020005208CE
:101CF0002200C0000030CE000030CD000030CC000B
:101D00000030CB0020006408023EE4000030653D56
:101D1000E500E830D2000330D3006508D500640840
:101D2000D400973169278D31200053082200C30069
:101D3000200052082200C200E830F0000330F10019
:101D400020006508F3006408F2009731AF2771089E
:101D50002200C5007008C40008002100CB003C0828
:101D6000D0003D08D1003E08D2003F08D300400813
:101D7000D4004108D5004208D6004308D700D0302F
:101D8000860000308700473FC400C41FC92E0130C1
:101D9000CA2E00302100C500C6014508CE00460805
:101DA000CF004E084F040319F32ED009D109D209F0
:101DB000D309D409D509D609D709D00A031DF32EB2
:101DC000D10A031DF32ED20A031DF32ED30A031DDD
:101DD000F32ED40A031DF32ED50A031DF32ED60AC3
:101DE000031DF32ED70A2200B51BFB2EFD30200069
:101DF000E005FF30E10522003508803A2100C400EB
:101E000080304402031D072F0130220034020318E2
:101E10000F2F01302100C9000030CA00172F220007
:101E200035082100CA00220034082100C900220020
:101E300033082100CD00220032082100CC004E08DA
:101E40004F04031D262F2000601D2B2FFF30210083
:101E5000CC07FF30CD3D1F302100D8000030D90025
:101E60002400BF01C12F2100500851045204530423
:101E70005404550456045704031D582F4A08803A49
:101E8000C40080304402031D472F0130490203186B
:101E9000582F21004D08803AC40080304402031DB1
:101EA000532F01304C02031CCD2F2000E01CCD2FFE
:101EB000FF302100D807FF30D93D0A30A000A10132
:101EC000A201A301A401A501A601A7015008A80031
:101ED0005108A9005208AA005308AB005408AC00EE
:101EE0005508AD005608AE005708AF008A31ED2204
:101EF0008E3121002108B4002008B3009531372528
:101F00008E3121003308303EC4005808203E860040
:101F10000230870044088100FF30C907FF30CA3D06
:101F2000FF30CC07FF30CD3D0A30A000A101A20157
:101F3000A301A401A501A601A7015008A80051080A
:101F4000A9005208AA005308AB005408AC00550879
:101F5000AD005608AE005708AF008C31AC248E316E
:101F600021002008D0002108D1002208D200230837
:101F7000D3002408D4002508D5002608D600270859
:101F8000D70021005908803AC40080304402031D64
:101F9000CB2F013058020318332F21004E084F0475
:101FA000031DD52F2000601DED2FFF302100D80725
:101FB000FF30D93D4E084F04031DE02F2B30E12F99
:101FC0002D30C7000030C8004708C4005808203E24
:101FD0008600023087004408810021005808203E16
:101FE000C4004408B3004D08B5004C08B4004B08C9
:101FF0008831552021003408BD003308BC0008009A
:102890002700991F08009431BB24080021001C0860
:1028A000A1001B08A00008002100A100210894310C
:1028B000B1240800640080010131890B5B2C0034D5
:1028C000FE0012001E00FE0B612C00347A30210045
:1028D00099009801220096010800583402341234FD
:1028E0000234003402340134013021009D009E0185
:1028F0009F019B019C01080030302100B3009830FB
:10290000B400953169250800210021082200E20069
:10291000210020082200E1000800210021082200F7
:10292000E600210020082200E5000800210021081F
:102930002200E400210020082200E300080021001A
:1029400021082200E000210020082200DF0008000A
:10295000210021082200DE00210020082200DD00E5
:1029600008002100A0002000101EB32C2100200828
:1029700023009A00080022005F0860040319C52C98
:1029800060088A005F080A00943127009913080044
:102990002100A0012000101ED32C23009E1ED32C4A
:1029A0002100A001A00A21002008080096318426F9
:1029B0009431943166249431943174249431953156
:1029C0001F2594319631042608000B112200670858
:1029D0002000950022005D085E04031908005E08CF
:1029E0008A005D080A009431080054302100EF008D
:1029F0006F082200DA0053082100EB002200520881
:102A00002100EA005A30EF006F08EC0000309631E8
:102A1000522608002100B8009431C8249531003AAC
:102A200003190C2D21003808B3000130B400953192
:102A300069259531A0300032890B1B2D080021003B
:102A40001508C03914389500833020009500833074
:102A50002100A20022082200E7000B118B16033090
:102A60002100A0000030A1009431A824080021001A
:102A70003408803AB50080303502031D412D013005
:102A800033020318080021003309B5003409B600E9
:102A9000B50A0319B60A3508B3003608B4000800B1
:102AA0002100A4002408A2002208A3002408860014
:102AB0000230870001080319622D0130A2002208AC
:102AC000A407562D23082402A000A101A01BA103E6
:102AD00008002100B701B70A3408AB003308AA0088
:102AE000AC019631292695312100AB1B08000A3034
:102AF000A2000030A300A4019731292795312100BD
:102B0000A31B0800B70108002100AD01AE01291C7C
:102B10008D2D2B08AD072C08AE3D0130AB35AC0D2B
:102B2000890B8E2D0130AA36A90C890B932D29080B
:102B30002A04031D872D2E08AA002D08A9000800CD
:102B4000F800F401F5017008F200F3017208F600D4
:102B50007308F700781CB02D7608F4077708F53D68
:102B60000130F635F70D890BB12D0310F80C7808FC
:102B7000031DAA2D7508F1007408F0000800483400
:102B800065346134723474342034523461347434B2
:102B900065343A3420340034443469347334743442
:102BA00061346E34633465343A3420340034533441
:102BB00070346534653464343A34203400343F3042
:102BC000F3008030F2000030F1000030F00022000D
:102BD0004E08F7004D08F6004C08F5004B08F400CD
:102BE00084319B2473082200CE007208CD00710846
:102BF000CC007008CB000130A4070030A53D0030A8
:102C0000A63D0030A73D0800083023009F0080301B
:102C10009D0024309E00A0309B0001309C000030BD
:102C20002100A0000030A10094318D2496310030A5
:102C30002100A0000030A10094319624963100308C
:102C40002100A0000030A100943184242000E8017C
:102C500008002100B101B2012A08310784002B08C5
:102C6000323D85000008AD002D08B0003008031982
:102C70004D2E3008AD00AE012D08A2002E08A30095
:102C80002C08AF002F08A400973129279631013076
:102C90002100B1070030B23D2C2E3208AB003108C4
:102CA000AA0008002200CF0021006B082200D100FA
:102CB00021006A082200D000B001B1015008840050
:102CC00051088500120003197C2E50302100ED00C0
:102CD0006D08DA006C08EE006E08DB0022004F0879
:102CE0008A310F22963121005A082200B0072100B4
:102CF0005B082200B13D5E2E31082100EB0022006E
:102D000030082100EA00080022008C018D018E01AC
:102D1000373021008C0070308D00FF308E004F3036
:102D200023008E0070308D0017308C0024008D0140
:102D30008C018E012100951725008C018D018E01DB
:102D4000373026008C00F0308D00FF308E002700D9
:102D500099139813971702302100A0000030A100AA
:102D600094319F248B1512303D009F0008002100F4
:102D7000A501A601200821040319E72EA701A70A2F
:102D8000A11BCC2E0130A035A10D890BC32E013023
:102D9000A4002408A707C02E0130A535A60D890B75
:102DA000CD2E21082302031DD72E20082202031C4A
:102DB000DE2E2008A2022108A33B25140130A136F3
:102DC000A00C890BDF2E0130A702031DCC2E260894
:102DD000A1002508A00008002100A4009431C82407
:102DE0009631003A0319EE2EFE309431B12496311B
:102DF000A0300032890BF92E112F2108803E94312A
:102E0000B12408002108C03E9431B12408002108F3
:102E1000943E9431B12408002108D43E9431B12469
:102E2000080021002408A200A3012308003A031986
:102E30001A2F282F2208013A0319FD2E033A0319ED
:102E4000022F013A0319072F073A03190C2F282FD5
:102E5000080021002408031D2408031D342F220824
:102E6000943154249731602F2408033E8600870153
:102E7000160001040319572F2408033E860087011A
:102E8000403FA500413FA600240A86008701403F3D
:102E9000A700413FA8002808803AA9002608803AE8
:102EA0002902031D552F250827020318602F210032
:102EB000240A860087010130810741310318810A05
:102EC00021002208A500A6012508A2002608A300CB
:102ED00008002000D701D51F742FD409D509D40AC2
:102EE0000319D50AD701D70AD31F7B2FD209D309DB
:102EF000D20A0319D30A520853040319A22FD60188
:102F0000D60AD31B8D2F0130D235D30D890B842FD8
:102F10000130FD007D08D607812F53085502031D9F
:102F2000932F52085402031C992F5208D4025308BD
:102F3000D53B0130D336D20C890B9A2F0130D60203
:102F4000031D8D2F57080319AA2FD409D509D40AB8
:102F50000319D50A5508D3005408D2000800F60119
:102F6000F11FB92FF009F109F00A0319F10AF6016E
:102F7000F60AF31FC42FF209F309F20A0319F30A40
:102F80000130F4007408F606F701F80170087104C6
:102F90000319F32FF501F50AF11BD82F0130F03595
:102FA000F10D890BCF2F0130F4007408F507CC2FF9
:102FB0000130F735F80D890BD92F71087302031D05
:102FC000E32F70087202031CEA2F7008F2027108E6
:102FD000F33B77140130F136F00C890BEB2F013005
:102FE000F502031DD82F76080319FB2FF709F809FE
:102FF000F70A0319F80A7808F1007708F0000800CA
:10300000253464342E342534643420346B347034E5
:1030100068342034203420342034203400343034D8
:1030200020346B347034683420342034203420341D
:1030300020342034203420340034253464342034C7
:10304000623470346D34203420342034003425341C
:1030500064342E342534643420346B346D340034BD
:063060007C342D34003425
:020000040001F9
:06000E00FC3FFF1E9F3FB6
:00000001FF
