:020000040000FA
:1000000080311428080008007E1480318B1A0B1DE3
:100010000D288A318D22803112288B190B1C122851
:100020008A311A227E10090080311628753084002A
:100030008B308500203086000130870020308A31E7
:100040003222803149308400003085000D308A3101
:100050002C2280312200CD01CE01CF01D001D1016F
:10006000D201A03084000130850020308A312C225A
:100070007E1020008D317D2D200023088039A800BE
:100080002808AD002335A8002808B300A21B3314AC
:10009000330803195828330A031D56280030A300DB
:1000A0000030A2000030A1000030A000A21760289C
:1000B0000030A3000030A2000030A1000030A000FA
:1000C00027088039A8002808AD062735A800280889
:1000D000B200A61B3214320803197B28320A031D12
:1000E00079280030A7000030A6000030A5000030BD
:1000F000A400A61783280030A7000030A600003017
:10010000A5000030A4003208031D3308031D912808
:100110000030A3000030A2000030A1000030A00099
:1001200008002008A8002808F00026088B31562374
:10013000803171082000B9007008B8003808A800A4
:10014000A901AA01AB012B08B1002A08B0002908B7
:10015000AF002808AE003908A800A901AA01AB0128
:100160002B08B7002A08B6002908B5002808B400F3
:100170002108A8002808F00025088B31562380317B
:1001800071082000B9007008B8003808A800A9015B
:10019000AA01AB012808AE072908AF3D2A08B03DE7
:1001A0002B08B13D3908A800A901AA01AB01280814
:1001B000B4072908B53D2A08B63D2B08B73D2208EB
:1001C000A8002808F00024088B31562380317108DC
:1001D0002000B9007008B8003808A800A901AA01D9
:1001E000AB012808AE072908AF3D2A08B03D2B080F
:1001F000B13D3908A800A901AA01AB012808B4073C
:100200002908B53D2A08B63D2B08B73D0830AE3564
:10021000AF0DB00DB10D890B07292108A8002808E2
:10022000F00024088B315623803171082000B9007A
:100230007008B8003808AE073908AF3D0030B03D4F
:10024000B13D2008A8002808F00025088B3156236E
:10025000803171082000B9007008B8003808AE0776
:100260003908AF3D0030B03DB13D0830AE35AF0D7F
:10027000B00DB10D890B36292008A8002808F00020
:1002800024088B315623803171082000B900700892
:10029000B8003808AE073908AF3D0030B03DB13D79
:1002A0002108A8002808F00026088B315623803149
:1002B00071082000B9007008B8003808B407390880
:1002C000B53D0030B63DB73D2208A8002808F00033
:1002D00025088B315623803171082000B900700841
:1002E000B8003808B4073908B53D0030B63DB73D11
:1002F0002208A8002808F00026088B3156238031F8
:1003000071082000B9007008B8003808A800390842
:10031000A900AA01AB010830A835A90DAA0DAB0DA3
:10032000890B8C292808B4072908B53D2A08B63D51
:100330002B08B73D2E08A8002F08A9003008AA00F6
:100340003108AB001830AB36AA0CA90CA80C890BED
:10035000A3292808B4072908B53D2A08B63D2B086B
:10036000B73D0830AE35AF0DB00DB10D890BB229D8
:1003700033083207A800A901A90D2808823EB80059
:10038000FF30293DB900B61BDA290130B435B50D6F
:10039000B60DB70D890BC629B11B34140130AE352B
:1003A000AF0DB00DB10D890BCF29FF30B807FF306D
:1003B000B93DC329B201B11FF329FF302E05A800B2
:1003C000FF302F05A900FF303005AA007F3031052E
:1003D000AB002B082A042904280403193418F12936
:1003E000F329B201B20A320803191C2A0130B407FA
:1003F0000030B53D0030B63D0030B73D371C1C2AFB
:100400003408A8003508A9003608AA003708AB0050
:100410000130AC00AB37AA0CA90CA80CAC0B0A2A13
:100420002B08B7002A08B6002908B5002808B40030
:100430000130B8070030B93D3908803AA800803053
:100440002802031D252AFF303802031C312A7F3081
:100450002000B7008030B6000030B5000030B40096
:100460005B2A20003908803AA80080302802031D4A
:100470003B2A013038020318482A00302000B70018
:100480000030B6000030B5000030B400AD015B2A8A
:1004900020003808A8002808B300FF30B405FF305A
:1004A000B5057F30B6050030B7053318B6173336BB
:1004B000A8002808B7002D08A8002808B7043708A6
:1004C000A3003608A2003508A1003408A0000800E7
:1004D000200023088039A8002808B0002335A80090
:1004E0002808B200A21B321432080319852A320AE6
:1004F000031D822A0030A3000030A2000030A100BA
:100500000030A000A217A3018D2A0030A300003004
:10051000A2000030A1000030A00027088039A80008
:100520002808B10031083006031D30172735A80010
:100530002808B100A61B311431080319AD2A310A6D
:10054000031DAA2A0030A7000030A6000030A50035
:100550000030A400A617A701B52A0030A70000307C
:10056000A6000030A5000030A400320831020318B4
:10057000FB2A301FBF2A8030A8002808B0063208A6
:10058000A8002808B3003108A8002808B2003308E2
:10059000A8002808B1002008A8002808B3002408F3
:1005A000A8002808A0003308A8002808A4002108F3
:1005B000A8002808B3002508A8002808A1003308CF
:1005C000A8002808A5002208A8002808B3002608CB
:1005D000A8002808A2003308A8002808A6002308BD
:1005E000A8002808B3002708A8002808A30033089B
:1005F000A8002808A700B3013108A800A90129080C
:10060000AB0032082802AA00031CAB032B08803A77
:10061000AC0080302C02031D0F2B1A302A02031C61
:10062000432B2000230822042104200403191A2B41
:1006300001301B2B0030A8002808B3000030A300B5
:100640000030A2000030A1000030A0003108A80056
:100650002808B200482B331C332B33360138A8004E
:100660002808B300352B0310B30C2018B317013042
:10067000A800A337A20CA10CA00CA80B392B0130A9
:10068000A8002808B207200031083202031C2B2BD7
:10069000301B792B3208031D562B0030A30000308D
:1006A000A2000030A1000030A00008002408A0072C
:1006B0002508A13D2608A23D2708A33D231CF32BB6
:1006C000331C682B33360138A8002808B3006A2B86
:1006D0000310B30C2018B3170130A800A337A20CE5
:1006E000A10CA00CA80B6E2B0130A8002808B207A3
:1006F000F32B2308803AA8002708803A2802031D1C
:100700008B2B26082202031D8B2B25082102031D9B
:100710008B2B240820020318C32BFF30A800FF30C6
:10072000A900FF30AA00FF30AB0020082402AC0073
:100730002108253BAD002208263BAE002308273BBD
:10074000AF002C08A8072D08A93D2E08AA3D2F08A8
:10075000AB3D2B08A3002A08A2002908A100280805
:10076000A0008030A8002808B006B309B30A3308F7
:10077000031DCB2B0130A0070030A13D0030A23D6E
:100780000030A33DCB2B2408A0022508A13B26085E
:10079000A23B2708A33B2308220421042004031DB5
:1007A000F12B3308031DF12B0030A3000030A20011
:1007B0000030A1000030A00008000130A035A10DDC
:1007C000A20DA30D890BDE2BB31B2014331CEA2BC7
:1007D0000314EB2B0310B30D32080319F12B013076
:1007E000B202A21FDD2BB101B31FFE2B33087F39EC
:1007F00003192018FC2BFE2BB101B10A3108031993
:100800002A2C0130A0070030A13D0030A23D00306D
:10081000A33D231C2A2C2008A8002108A900220897
:10082000AA002308AB000130AC00AB37AA0CA90C1E
:10083000A80CAC0B152C2B08A3002A08A200290831
:10084000A1002808A000320A03192A2C0130A800B0
:100850002808B207320A031D3208031D3A2C003063
:10086000A3000030A2000030A1000030A000320838
:100870000319B001321C3E2CA217422C7F30A80075
:100880002808A2053236A8002808A300B01F0800D7
:10089000A31708002100CB003C08D0003D08D10080
:1008A0003E08D2003F08D3004008D4004108D500DC
:1008B0004208D6004308D700D030860000308700B9
:1008C000473FC400C41F662C0130672C0030210054
:1008D000C500C6014508CE004608CF004E084F04AB
:1008E0000319902CD009D109D209D309D409D5090B
:1008F000D609D709D00A031D902CD10A031D902CCC
:10090000D20A031D902CD30A031D902CD40A031D78
:10091000902CD50A031D902CD60A031D902CD70AC3
:100920002000CC1B972CFD30CD05FF30CE054C08A8
:10093000803A2100C40080304402031DA22C013003
:1009400020004B020318AA2C01302100C9000030FE
:10095000CA00B22C20004C082100CA0020004B081D
:100960002100C90020004A082100CD0020004908CC
:100970002100CC004E084F04031DC12C20004D1D4A
:10098000C62CFF302100CC07FF30CD3D1F302100A9
:10099000D8000030D9002300BF015C2D2100500891
:1009A0005104520453045404550456045704031DBF
:1009B000F32C4A08803AC40080304402031DE22C24
:1009C000013049020318F32C21004D08803AC4007D
:1009D00080304402031DEE2C01304C02031C682DB4
:1009E0002000CD1C682DFF302100D807FF30D93DF5
:1009F0000A30A000A101A201A301A401A501A60142
:100A0000A7015008A8005108A9005208AA005308DD
:100A1000AB005408AC005508AD005608AE005708AE
:100A2000AF008F312127843121002108B400200834
:100A3000B3008A31EB22843121003308303EC400F8
:100A40005808A03E86000130870044088100FF302E
:100A5000C907FF30CA3DFF30CC07FF30CD3D0A301B
:100A6000A000A101A201A301A401A501A601A70163
:100A70005008A8005108A9005208AA005308AB006A
:100A80005408AC005508AD005608AE005708AF003A
:100A90008631A926843121002008D0002108D10008
:100AA0002208D2002308D3002408D4002508D5004A
:100AB0002608D6002708D70021005908803AC4002C
:100AC00080304402031D662D013058020318CE2CDD
:100AD00021004E084F04031D702D20004D1D882D50
:100AE000FF302100D807FF30D93D4E084F04031DC9
:100AF0007B2D2B307C2D2D30C7000030C8004708DF
:100B0000C4005808A03E86000130870044088100D8
:100B100021005808A03EC4004408B3004D08B500A9
:100B20004C08B4004B088731A02721003408BD00D1
:100B30003308BC0008002100EB005A088600013091
:100B40008700403FDC00413FDD005C0884005D0819
:100B500085001200253A031D842E5A0886000130B4
:100B600087000130810741310318810A2000C90143
:100B7000CA01CD01CE01FF30CB00FF30CC002100F7
:100B80005A08860001308700403FDC00413FDD000D
:100B90005C0884005D0885001200643A0319E02DAA
:100BA0005A08860001308700403FDC00413FDD00ED
:100BB0005C0884005D0885001200693A031D1D2E43
:100BC0005A0886000130870001308107413103183F
:100BD000810A5B088600013087000108840001302B
:100BE000850002308107003FDC00013FDD005C082A
:100BF000E1005D08E200890D893B8909E300E4001A
:100C0000E500E600E700E8006108BC006208BD00FE
:100C10006308BE006408BF006508C0006608C10024
:100C20006708C2006808C3006B0884314A242100A9
:100C30003D08DB003C08DA0008005A088600013055
:100C40008700403FDC00413FDD005C0884005D0818
:100C5000850012006E3A031D512E5A08860001309D
:100C600087000130810741310318810A5B08860043
:100C700001308700010884000130850002308107BF
:100C8000003FE900013FEA00690886006A08870022
:100C900022004D08C03F4E08C13F2100DA01DB01B0
:100CA00008005A08860001308700403FDC00413FC1
:100CB000DD005C0884005D0885001200253A031DF4
:100CC0007A2E5A08860001308700013081074131B1
:100CD0000318810A2530A2000030A3006B08DC0055
:100CE0005C08A4008C31862401302100DA00003039
:100CF000DB0008005A0886000130870001308107B8
:100D000041310318810A4D2E5A08860001308700B0
:100D1000403FDC00413FDD005C0884005D08850049
:100D20000008DE00DF015E08A2005F08A3006B0878
:100D3000E0006008A4008C318624853121005A0827
:100D40008600013087000130810741310318810A94
:100D5000742E2100B201A030860000308700473F8A
:100D6000B000B01FD52E2100A009A109A209A30936
:100D7000A409A509A609A709A00A031DD22EA10A44
:100D8000031DD22EA20A031DD22EA30A031DD22EAA
:100D9000A40A031DD22EA50A031DD22EA60A031DE6
:100DA000D22EA70A2100B201B20AA8308600003074
:100DB0008700473F2100B000B01F022F2100A80983
:100DC000A909AA09AB09AC09AD09AE09AF09A80A7E
:100DD000031DFD2EA90A031DFD2EAA0A031DFD2ECB
:100DE000AB0A031DFD2EAC0A031DFD2EAD0A031D2B
:100DF000FD2EAE0A031DFD2EAF0A01302100B0000A
:100E00003008B206B3308600003087000830210079
:100E1000B00000301E00B00B0A2F2008210422046D
:100E20002304240425042604270403196D2FB1018B
:100E3000B10AA71B282FA035A10DA20DA30DA40D4B
:100E4000A50DA60DA70D0130B0003008B107192F70
:100E5000B335B40DB50DB60DB70DB80DB90DBA0D4E
:100E600027082F02031D4E2F26082E02031D4E2F8A
:100E700025082D02031D4E2F24082C02031D4E2F82
:100E800023082B02031D4E2F22082A02031D4E2F7A
:100E900021082902031D4E2F20082802031C612F60
:100EA0002008A8022108A93B2208AA3B2308AB3B43
:100EB0002408AC3B2508AD3B2608AE3B2708AF3BDA
:100EC0003314A736A60CA50CA40CA30CA20CA10CE1
:100ED000A00C0130B102031D282F320803198E2FF8
:100EE000B309B409B509B609B709B809B909BA0906
:100EF000B30A031D8E2FB40A031D8E2FB50A031DDE
:100F00008E2FB60A031D8E2FB70A031D8E2FB80A27
:100F1000031D8E2FB90A031D8E2FBA0A2100330834
:100F2000A0003408A1003508A2003608A300370845
:100F3000A4003808A5003908A6003A08A700080050
:100F40002100BB0020004D1CB12F21003308AA0056
:100F50000130AB003B08B6003608AC008B31B9233A
:100F600087312100B51BB92F3508BA003408B90004
:100F7000BB2FB901BA01B701B8013808803AB600F1
:100F80003A08803A3602031DC72F39083702031882
:100F9000DB2F20302100A2000030A3003B08B60068
:100FA0003608A4008C318624873101302100B70730
:100FB0000030B83DBD2F20004D18EA2F2100330826
:100FC000AA000130AB003B08B6003608AC008B31FC
:100FD000B9238731210033088B31042321003908DC
:100FE0002007B3003A08213DB40008002100A0000A
:100FF0002000101EF82F2100200823009A0008006E
:101434002700991E08008A3180220800013020000C
:10144400CF070030D03D08002100A10021088731DA
:10145400F6270800640080010131890B2D2A00342D
:10146400FE0012001E00FE0B332A0034523021000D
:101474009900980122009601080000302100B30071
:101484009030B4008B311D23080021002108200076
:10149400DB00210020082000DA00080021002108D8
:1014A4002000DF00210020082000DE0008002100C9
:1014B40021082000DD00210020082000DC000800B5
:1014C400210021082000D900210020082000D80094
:1014D4000800210021082000D70021002008200056
:1014E400D60008008B31E2238A318A3138228A31CE
:1014F4008A31D3228A318B31952308002000580881
:10150400590403198A2A59088A0058080A008A319A
:101514002700991208000B11200060089500560856
:1015240057040319080057088A0056080A008A312C
:1015340008002100A0012000101EA62A23009E1EE0
:10154400A62A2100A001A00A210020080800473093
:101554002100EF006F082200CB0046082100ED00B7
:10156400220045082100EC004B30EF006F08EE002C
:1015740000308C31152408002100B8008A319B22E8
:101584008A31003A0319C02A21003808B300013017
:10159400B4008B311D238A310830890BCF2A000017
:1015A400080021001508C0391F3895008330200039
:1015B400950083302100A20022082000E0000B11D6
:1015C4008B1603302100A0000030A1008A316B2269
:1015D400080021003408803AB50080303502031D2C
:1015E400F52A013033020318080021003309B5003D
:1015F4003409B600B50A0319B60A3508B30036082B
:10160400B40008002100A4002408A2002208A300BA
:10161400240886000130870001080319162B0130C5
:10162400A2002208A4070A2B23082402A000A10177
:10163400A01BA10308002100B701B70A3408AB00BE
:101644003308AA00AC018B31B9238B312100AB1BC9
:1016540008000A30A2000030A300A4018C318624C3
:101664008B312100A31B0800B70108002000A00152
:10167400A101791C422B7B082000A0077C08A13D16
:101684000130FB35FC0D890B432B0130FA36F90C84
:10169400890B482B79087A04031D3B2B2000210871
:1016A400FA002008F9000800F800F401F5017008B8
:1016B400F200F3017208F6007308F700781C662B39
:1016C4007608F4077708F53D0130F635F70D890BF8
:1016D400672B0310F80C7808031D602B7508F100C4
:1016E4007408F0000800483465346134723474348A
:1016F400203452346134743465343A342034003440
:10170400443469347334743461346E34633465340A
:101714003A342034003453347034653465346434DA
:101724003A3420340034083023009F0080309D0078
:1017340024309E000C309B009C0100302100A0004E
:101744000030A1008A3150228B3100302100A000EA
:101754000030A1008A3159228B3100302100A000D1
:101764000030A1008A3147222000D3010800210063
:10177400B101B2012A08310784002B08323D8500EB
:101784000008AD002D08B00030080319DD2B300827
:10179400AD00AE012D08A2002E08A3002C08AF0056
:1017A4002F08A4008C3186248B3101302100B1072D
:1017B4000030B23DBC2B3208AB003108AA0008004F
:1017C40022008C018D018E01373021008C00703095
:1017D4008D00FF308E00CF3023008E0070308D00DE
:1017E40017308C0024008D018C018E012100951787
:1017F40025008C018D018E01373026008C00F030DD
:101804008D00FF308E002700991298129712023033
:101814002100A0000030A1008A3162228B15123011
:101824003D009F0008002200C20021006D08220034
:10183400C40021006C082200C300CD01CE0143087E
:1018440084004408850012000319412C4330C00071
:1018540040082100DA006E082200C100410821007E
:10186400DB002200420885319B258C3121005A0877
:101874002200CD0721005B082200CE3D212C4E081A
:101884002100ED0022004D082100EC000800210099
:10189400A4008A319B228C31003A03194B2CFE3070
:1018A4008731F6278C310830890B562C00006E2CBA
:1018B4002108803E8731F62708002108C03E873181
:1018C400F62708002108943E8731F62708002108EE
:1018D400D43E8731F627080021002408A200A30182
:1018E4002308003A0319772C852C2208013A03199E
:1018F4005A2C033A03195F2C013A0319642C073A52
:101904000319692C852C080021002408031D2408D0
:10191400031D912C22088A3126228C31BD2C2408E7
:10192400033E86008701160001040319B42C240821
:10193400033E86008701403FA500413FA600240ADC
:1019440086008701403FA700413FA8002808803A4D
:10195400A9002608803A2902031DB22C2508270273
:101964000318BD2C2100240A860087010130810759
:1019740041310318810A21002208A500A601250887
:10198400A2002608A3000800F601F11FD02CF009DC
:10199400F109F00A0319F10AF601F60AF31FDB2C28
:1019A400F209F309F20A0319F30A0130F400740886
:1019B400F606F701F8017008710403190A2DF50100
:1019C400F50AF11BEF2C0130F035F10D890BE62CF3
:1019D4000130F4007408F507E32C0130F735F80DF5
:1019E400890BF02C71087302031DFA2C7008720223
:1019F400031C012D7008F2027108F33B77140130C7
:101A0400F136F00C890B022D0130F502031DEF2C89
:101A140076080319122DF709F809F70A0319F80AC9
:101A24007808F1007708F0000800031020003C0D4E
:101A34003D0DBE003E08C4004408031D2A2D00309D
:101A4400BD000030BC000030BB000030BA0008000C
:101A54003A08BE003B08BF003C08C0003D08C10076
:101A64001F30C136C00CBF0CBE0C890B332D3E0891
:101A7400C2004208C300BC17FF30BA05FF30BB05E3
:101A8400FF30BC050030BD059630C402C41F5D2D77
:101A94004408803A973E031C212D0130BD36BC0C0E
:101AA400BB0CBA0C890B502D0130BE003E08C40794
:101AB40003196E2D4F2D203044020318212D4408A4
:101AC40003196E2D0130BA35BB0DBC0DBD0D890B4C
:101AD400652D0130C402612D430803190800BA09B9
:101AE400BB09BC09BD09BA0A0319BB0A0319BC0A1C
:101AF4000319BD0A08008A3174228D312030210077
:101B0400A0000A30A1008A316B228D317B30210084
:101B1400A0000E30A1008A3162228D318A313F2229
:101B24008D312100A10101308C3149248D313830AF
:101B34008A31BE228D312100A10102308C31492429
:101B44008D312D308A31BE228D312100A101033027
:101B54008C3149248D3120308A31BE228D312100CF
:101B6400A10104308C3149248D318B170B170A30B5
:101B74002200CC004C082100A10001308C31492402
:101B84008D3103302200C5009030C6005008C800D3
:101B94004F08C7008A31A9228D310B302200CC00B6
:101BA4004C082100A10002308C3149248D310330CE
:101BB4002200C5009030C6005208C8005108C70072
:101BC4008A31A9228D31B92DF8007808031DF31F3D
:101BD400FB2D7009FA007109FB007209FC007309FE
:101BE400FD00FA0A0319FB0A0319FC0A0319FD0A8A
:101BF400032E7308FD007208FC007108FB007008D6
:101C0400FA007308720471047004031D122E00306C
:101C1400F3000030F2000030F1000030F000080062
:101C24009630F4007408F900FE307D050319392E4E
:101C34000130F4007408F9070130FD36FC0CFB0C8C
:101C4400FA0C890B1F2E162E0130F4007408F907C4
:101C54000130FA070030FB3D0030FC3D0030FD3D13
:101C64000130FD36FC0CFB0CFA0C890B332EFF30D3
:101C74007D0503194B2E262E02307902031C4D2EAE
:101C84000130F9020130FA35FB0DFC0DFD0D890B15
:101C9400452EFC1F3E2E7918572EFF30FA05FF30D3
:101CA400FB057F30FC05FF30FD050310F90C7908B6
:101CB400F400F501F601F7011830F435F50DF60DD1
:101CC400F70D890B5F2E7408FA047508FB04760877
:101CD400FC047708FD047808031DF31F722EFD171A
:101CE4007D08F3007C08F2007B08F1007A08F0001C
:101CF4000800E830F0000330F10020005008F30041
:101D04004F08F2008C31C6248E317108FA00700835
:101D1400F9003C30FB000030FC008B3138238E315D
:101D24007A082000D5007908D4005408F00055083A
:101D3400F100890D893B8909F200F30001308D31EE
:101D4400E6258E3173082000A7007208A6007108EA
:101D5400A5007008A4004030A3000630A20024307F
:101D6400A100DD30A00080313C208E31200023080A
:101D7400C8002208C7002108C6002008C50048087A
:101D8400A7004708A6004608A5004508A4003D3062
:101D9400A3007530A200C230A1008F30A0008031B2
:101DA4003C208E3120002308BD002208BC002108FD
:101DB400BB002008BA008D3117258E3120003B0866
:101DC4002200D00020003A082200CF002000CF01DA
:101DD400D00122005108F0005208F100890D893B1E
:101DE4008909F200F30001308D31E6258E31730844
:101DF4002000A7007208A6007108A5007008A400BE
:101E04004030A3000630A2002430A100DD30A00041
:101E1400823168228E3120002308BD002208BC00D4
:101E24002108BB002008BA008D31172520003B088B
:101E34002200D20020003A082200D100080021002C
:101E4400B201A830860000308700473FB000B01FC1
:101E54004D2F2100A809A909AA09AB09AC09AD09AC
:101E6400AE09AF09A80A031D4A2FA90A031D4A2F68
:101E7400AA0A031D4A2FAB0A031D4A2FAC0A031DED
:101E84004A2FAD0A031D4A2FAE0A031D4A2FAF0A7B
:101E94002100B201B20AA030860000308700473F1B
:101EA4002100B000B01F752F2100A009A109A209CB
:101EB400A309A409A509A609A709A00A031D752F4A
:101EC400A10A031D752FA20A031D752FA30A031D62
:101ED400752FA40A031D752FA50A031D752FA60AC5
:101EE400031D752FA70A21002008210422042304BE
:101EF40024042504260427040319CD2FB101B10AB3
:101F0400A71B912FA035A10DA20DA30DA40DA50D06
:101F1400A60DA70D0130B0003008B107822F2708A5
:101F24002F02031DAF2F26082E02031DAF2F2508F5
:101F34002D02031DAF2F24082C02031DAF2F2308ED
:101F44002B02031DAF2F22082A02031DAF2F2108E5
:101F54002902031DAF2F20082802031CC12F2008CB
:101F6400A8022108A93B2208AA3B2308AB3B24086A
:101F7400AC3B2508AD3B2608AE3B2708AF3BA73654
:101F8400A60CA50CA40CA30CA20CA10CA00C013053
:101F9400B102031D912F32080319EE2FA809A909D4
:101FA400AA09AB09AC09AD09AE09AF09A80A031D1A
:101FB400EE2FA90A031DEE2FAA0A031DEE2FAB0A6A
:101FC400031DEE2FAC0A031DEE2FAD0A031DEE2FE9
:101FD400AE0A031DEE2FAF0A21002808A00029082D
:101FE400A1002A08A2002B08A3002C08A4002D0895
:101FF400A5002E08A6002F08A70008007C342D3465
:0820040000342534643400347B
:020000040001F9
:06000E00FC3FFF1E9F3FB6
:00000001FF
