:020000040000FA
:04000000803114280F
:100008007E1480318B1A0B1D0D288A31B322803162
:1000180012288B190B1C12288A3132227E100900F3
:10002800803116286E3084008B3085004030860081
:100038000130870020308A31442280313E308400EC
:100048000030850015308A313E2280312100EC01D4
:10005800ED01EE01EF0120308400013085002030F1
:100068008A313E227E1020008C31EF2C200023089C
:100078008039A8002808AD002335A8002808B30057
:10008800A21B3314330803195628330A031D5428B6
:100098000030A3000030A2000030A1000030A00012
:1000A800A2175E280030A3000030A2000030A10093
:1000B8000030A00027088039A8002808AD06273599
:1000C800A8002808B200A61B3214320803197928A0
:1000D800320A031D77280030A7000030A600003040
:1000E800A5000030A400A61781280030A700003022
:1000F800A6000030A5000030A4003208031D330814
:10010800031D8F280030A3000030A2000030A1009A
:100118000030A00008002008A8002808F0002608E1
:100128008B314F23803171082000B9007008B80066
:100138003808A800A901AA01AB012B08B1002A08B8
:10014800B0002908AF002808AE003908A800A901A6
:10015800AA01AB012B08B7002A08B6002908B50088
:100168002808B4002108A8002808F00025088B31C9
:100178004F23803171082000B9007008B800380892
:10018800A800A901AA01AB012808AE072908AF3DBC
:100198002A08B03D2B08B13D3908A800A901AA01D9
:1001A800AB012808B4072908B53D2A08B63D2B0835
:1001B800B73D2208A8002808F00024088B314F23F7
:1001C800803171082000B9007008B8003808A8000C
:1001D800A901AA01AB012808AE072908AF3D2A08E2
:1001E800B03D2B08B13D3908A800A901AA01AB010F
:1001F8002808B4072908B53D2A08B63D2B08B73D9D
:100208000830AE35AF0DB00DB10D890B05292108A9
:10021800A8002808F00024088B314F23803171088A
:100228002000B9007008B8003808AE073908AF3D9B
:100238000030B03DB13D2008A8002808F00025088E
:100248008B314F23803171082000B9007008B80045
:100258003808AE073908AF3D0030B03DB13D083031
:10026800AE35AF0DB00DB10D890B34292008A800AB
:100278002808F00024088B314F23803171082000B2
:10028800B9007008B8003808AE073908AF3D00302B
:10029800B03DB13D2108A8002808F00026088B31A0
:1002A8004F23803171082000B9007008B800380861
:1002B800B4073908B53D0030B63DB73D2208A8005F
:1002C8002808F00025088B314F2380317108200061
:1002D800B9007008B8003808B4073908B53D0030CF
:1002E800B63DB73D2208A8002808F00026088B3143
:1002F8004F23803171082000B9007008B800380811
:10030800A8003908A900AA01AB010830A835A90D31
:10031800AA0DAB0D890B8A292808B4072908B53D11
:100328002A08B63D2B08B73D2E08A8002F08A900BB
:100338003008AA003108AB001830AB36AA0CA90C5B
:10034800A80C890BA1292808B4072908B53D2A0853
:10035800B63D2B08B73D0830AE35AF0DB00DB10D29
:10036800890BB02933083207A800A901A90D28086C
:10037800823EB800FF30293DB900B61BD8290130AC
:10038800B435B50DB60DB70D890BC429B11B34149E
:100398000130AE35AF0DB00DB10D890BCD29FF3051
:1003A800B807FF30B93DC129B201B11FF129FF30AB
:1003B8002E05A800FF302F05A900FF303005AA0040
:1003C8007F303105AB002B082A04290428040319BF
:1003D8003418EF29F129B201B20A320803191A2A8E
:1003E8000130B4070030B53D0030B63D0030B73DB0
:1003F800371C1A2A3408A8003508A9003608AA00AC
:100408003708AB000130AC00AB37AA0CA90CA80C1C
:10041800AC0B082A2B08B7002A08B6002908B50033
:100428002808B4000130B8070030B93D3908803ACF
:10043800A80080302802031D232AFF303802031C3D
:100448002F2A7F302000B7008030B6000030B5007A
:100458000030B400592A20003908803AA8008030BA
:100468002802031D392A013038020318462A0030B1
:100478002000B7000030B6000030B5000030B400EE
:10048800AD01592A20003808A8002808B300FF3019
:10049800B405FF30B5057F30B6050030B705331811
:1004A800B6173336A8002808B7002D08A800280872
:1004B800B7043708A3003608A2003508A10034089D
:1004C800A0000800730880392000A0002008F80068
:1004D8007335A0002008FA00F21B7A147A08031971
:1004E800832A7A0A031D802A0030F3000030F200C4
:1004F8000030F1000030F000F217F3018B2A0030D1
:10050800F3000030F2000030F1000030F00077080E
:100518008039A0002008F90079087806031D7817AB
:100528007735A0002008F900F61B7914790803191B
:10053800AB2A790A031DA82A0030F7000030F6001C
:100548000030F5000030F400F617F701B32A003048
:10055800F7000030F6000030F5000030F4007A08AB
:1005680079020318F92A781FBD2A8030A0002008D4
:10057800F8067A08A0002008FB007908A0002008E7
:10058800FA007B08A0002008F9007008A0002008E5
:10059800FB007408A0002008F0007B08A0002008D9
:1005A800F4007108A0002008FB007508A0002008CE
:1005B800F1007B08A0002008F5007208A0002008C0
:1005C800FB007608A0002008F2007B08A0002008A5
:1005D800F6007308A0002008FB007708A000200898
:1005E800F3007B08A0002008F700FB017908A000B1
:1005F800A1012108A3007A082002A200031CA3037A
:100608002308803AA40080302402031D0D2B1A30E1
:100618002202031C432B730872047104700403192B
:10062800172B0130182B00302000A0002008FB00F9
:100638000030F3000030F2000030F1000030F0002C
:100648007908A0002008FA00472B7B1C322B7B3648
:1006580001382000A0002008FB00342B0310FB0CFD
:100668007018FB1701302000A000F337F20CF10CD2
:10067800F00CA00B392B0130A0002008FA077908EC
:100688007A02031C292B781B7A2B7A08031D552B19
:100698000030F3000030F2000030F1000030F000CC
:1006A80008007408F0077508F13D7608F23D7708F0
:1006B800F33D731CF52B7B1C682B7B36013820001F
:1006C800A0002008FB006A2B0310FB0C7018FB1716
:1006D80001302000A000F337F20CF10CF00CA00B55
:1006E8006F2B0130A0002008FA07F52B7308803A19
:1006F8002000A0007708803A2002031D8D2B760881
:100708007202031D8D2B75087102031D8D2B740851
:1007180070020318C52BFF30A000FF30A100FF3086
:10072800A200FF30A30070087402A4007108753B92
:10073800A5007208763BA6007308773BA70024083B
:10074800A0072508A13D2608A23D2708A33D2308A8
:10075800F3002208F2002108F1002008F0008030A0
:10076800A0002008F806FB09FB0A7B08031DCD2B17
:100778000130F0070030F13D0030F23D0030F33D2C
:10078800CD2B7408F0027508F13B7608F23B770828
:10079800F33B7308720471047004031DF32B7B0888
:1007A800031DF32B0030F3000030F2000030F1009D
:1007B8000030F00008000130F035F10DF20DF30DB6
:1007C800890BE02BFB1B70147B1CEC2B0314ED2B0B
:1007D8000310FB0D7A080319F32B0130FA02F21FFC
:1007E800DF2BF901FB1F002C7B087F3903197018D8
:1007F800FE2B002CF901F90A790803192D2C013078
:10080800F0070030F13D0030F23D0030F33D731C3D
:100818002D2C70082000A0007108A1007208A20009
:100828007308A3000130A400A337A20CA10CA00CEC
:10083800A40B182C2308F3002208F2002108F10069
:100848002008F0007A0A03192D2C0130A000200896
:10085800FA077A0A031D7A08031D3D2C0030F300BD
:100868000030F2000030F1000030F0007A0803197F
:10087800F8017A1C412CF217462C7F302000A0008A
:100888002008F2057A362000A0002008F300F81F9F
:100898000800F31708002100C9003C08D0003D08F3
:1008A800D1003E08D2003F08D3004008D4004108D8
:1008B800D5004208D6004308D700D0308600003063
:1008C8008700473FC400C41F6B2C01306C2C0030DC
:1008D8002100C500C6014508CE004608CF004E08D5
:1008E8004F040319952CD009D109D209D309D40989
:1008F800D509D609D709D00A031D952CD10A031D9D
:10090800952CD20A031D952CD30A031D952CD40AC5
:10091800031D952CD50A031D952CD60A031D952C6D
:10092800D70A2100ED1B9C2CFD30EE05FF30EF05AA
:100938006D08803AC40080304402031DA52C0130A4
:100948006C020318AD2C01302100CA000030CB0026
:10095800B22C21006D08CB006C08CA0020004D089D
:100968002100CD0020004C082100CC004E084F0487
:10097800031DC02C6E1DC42CFF30CC07FF30CD3DAD
:100988001F30D8000030D9002200BF01592D2100A6
:10099800500851045204530454045504560457048F
:1009A800031DF02C4B08803AC40080304402031D1C
:1009B800DF2C01304A020318F02C21004D08803A40
:1009C800C40080304402031DEB2C01304C02031C90
:1009D800652D2100EE1C652DFF302100D807FF3062
:1009E800D93D0A30A000A101A201A301A401A501DB
:1009F800A601A7015008A8005108A9005208AA009A
:100A08005308AB005408AC005508AD005608AE00BA
:100A18005708AF008F312127843121002108B40005
:100A28002008B3008B310223843121003308303E83
:100A3800C4005808203E8600013087004408810021
:100A4800FF30CA07FF30CB3DFF30CC07FF30CD3D2C
:100A58000A30A000A101A201A301A401A501A601D9
:100A6800A7015008A8005108A9005208AA00530875
:100A7800AB005408AC005508AD005608AE00570846
:100A8800AF008631A326843121002008D000210838
:100A9800D1002208D2002308D3002408D400250856
:100AA800D5002608D6002708D70021005908803A23
:100AB800C40080304402031D632D0130580203181E
:100AC800CB2C21004E084F04031D6C2D6E1D832D69
:100AD800FF30D807FF30D93D4E084F04031D762D4F
:100AE8002B30772D2D30C7000030C8004708C400D0
:100AF8005808203E860001308700440881005808C5
:100B0800203EC4004408B3004D08B5004C08B400AA
:100B1800490887319A2721003408BD003308BC00F2
:100B280008002100EB005A08860001308700403F8A
:100B3800DC00413FDD005C0884005D088500120090
:100B4800253A031D7E2E5A088600013087000130A1
:100B5800810741310318810A2000CC01CD01210011
:100B6800EE01EF01FF30EC00FF30ED005A0886007F
:100B780001308700403FDC00413FDD005C08840015
:100B88005D0885001200643A0319DA2D5A088600B8
:100B980001308700403FDC00413FDD005C088400F5
:100BA8005D0885001200693A031D172E5A08860051
:100BB800013087000130810741310318810A5B0841
:100BC800860001308700010884000130850002306A
:100BD8008107003FDC00013FDD005C08E1005D08A3
:100BE800E200890D893B8909E300E400E500E6009D
:100BF800E700E8006108BC006208BD006308BE00A9
:100C08006408BF006508C0006608C1006708C20024
:100C18006808C3006B0884314F2421003D08DB00BD
:100C28003C08DA0008005A08860001308700403F77
:100C3800DC00413FDD005C0884005D08850012008F
:100C48006E3A031D4B2E5A0886000130870001308A
:100C5800810741310318810A5B088600013087004B
:100C6800010884000130850002308107003FE90057
:100C7800013FEA00690886006A08870020004A08E0
:100C8800C03F4B08C13F2100DA01DB0108005A08C8
:100C9800860001308700403FDC00413FDD005C08F2
:100CA80084005D0885001200253A031D742E5A0839
:100CB8008600013087000130810741310318810A1D
:100CC8002530A2000030A3006B08DC005C08A400FB
:100CD8008C31AF2401302100DA000030DB0008003D
:100CE8005A08860001308700013081074131031816
:100CF800810A472E5A08860001308700403FDC00F1
:100D0800413FDD005C0884005D0885000008DE00C6
:100D1800DF015E08A2005F08A3006B08E00060081E
:100D2800A4008C31AF24853121005A088600013097
:100D380087000130810741310318810A6E2E210096
:100D4800B201A030860000308700473FB000B01FD6
:100D5800CF2E2100A009A109A209A309A409A50968
:100D6800A609A709A00A031DCC2EA10A031DCC2E93
:100D7800A20A031DCC2EA30A031DCC2EA40A031D10
:100D8800CC2EA50A031DCC2EA60A031DCC2EA70A1D
:100D98002100B201B20AA830860000308700473F20
:100DA8002100B000B01FFC2E2100A809A909AA093A
:100DB800AB09AC09AD09AE09AF09A80A031DF72EA6
:100DC800A90A031DF72EAA0A031DF72EAB0A031D55
:100DD800F72EAC0A031DF72EAD0A031DF72EAE0A37
:100DE800031DF72EAF0A01302100B0003008B2060B
:100DF800B33086000030870008302100B000003092
:100E08001E00B00B042F200821042204230424040C
:100E18002504260427040319672FB101B10AA71B6B
:100E2800222FA035A10DA20DA30DA40DA50DA60D71
:100E3800A70D0130B0003008B107132FB335B40D3A
:100E4800B50DB60DB70DB80DB90DBA0D27082F029F
:100E5800031D482F26082E02031D482F25082D02A2
:100E6800031D482F24082C02031D482F23082B029A
:100E7800031D482F22082A02031D482F2108290292
:100E8800031D482F20082802031C5B2F2008A802F6
:100E98002108A93B2208AA3B2308AB3B2408AC3B0A
:100EA8002508AD3B2608AE3B2708AF3B3314A736D1
:100EB800A60CA50CA40CA30CA20CA10CA00C013030
:100EC800B102031D222F32080319882FB309B40970
:100ED800B509B609B709B809B909BA09B30A031DAA
:100EE800882FB40A031D882FB50A031D882FB60A58
:100EF800031D882FB70A031D882FB80A031D882FE2
:100F0800B90A031D882FBA0A21003308A000340843
:100F1800A1003508A2003608A3003708A400380845
:100F2800A5003908A6003A08A70008002100BB0060
:100F38006E1CA92F3308AA000130AB003B08B6008D
:100F48003608AC008B31B32387312100B51BB12F94
:100F58003508BA003408B900B32FB901BA01B7018E
:100F6800B8013808803AB6003A08803A3602031DBC
:100F7800BF2F390837020318D32F20302100A200D1
:100F88000030A3003B08B6003608A4008C31AF241B
:100F9800873101302100B7070030B83DB52F210057
:100FA8006E18E12F3308AA000130AB003B08B600E9
:100FB8003608AC008B31B3238731210033088B31DD
:100FC8001B23210039082007B3003A08213DB4004B
:100FD80008002100A0012000101EF82F23009E1EEB
:100FE800F82F2100A001A00A21002008080008000D
:020FF8000800EF
:101464002700991F08008A31A62208002100A10044
:1014740021088A3190220800640080010131890B1F
:101484003F2A0034FE0012001E00FE0B452A0034E1
:101494007A30210099009801220096010800183042
:1014A4002100B3009030B4008B31342308002100B4
:1014B40021082200EF00210020082200EE0008008D
:1014C400210021082000DA00210020082000D90092
:1014D4000800210021082000D80021002008200055
:1014E400D7000800210021082000D6002100200890
:1014F4002000D5000800210021082000D40021008C
:1015040020082000D300080001302000C607003066
:10151400C73D0030C83D0030C93D08002100A0008F
:101524002000101E922A2100200823009A0008009F
:101534008C310C248A318A314A228A318A31EA2256
:101544008A318B318E230800200055085604031974
:10155400B02A56088A0055080A008A3127009913D0
:1015640008000B1120005B0895005308540403196C
:10157400080054088A0053080A008A3108006A30B7
:101584002300A0002008A30022006908E1006808E5
:10159400E000A3302300A00020082200E200003075
:1015A4008C313F2408002100B8008731ED278A31AF
:1015B400003A0319D72A21003808B3000130B400D7
:1015C4008B3134238A31A0300032890BE62A08009B
:1015D40021001508C0391438950083302000950087
:1015E40083302100A20022082000DB000B118B169F
:1015F400FB302100A0000730A1008A317D220800C1
:1016040021003408803AB50080303502031D0C2BCC
:10161400013033020318080021003309B5003409EE
:10162400B600B50A0319B60A3508B3003608B40083
:1016340008002100A4002408A2002208A300240812
:10164400860001308700010803192D2B0130A20008
:101654002208A407212B23082402A000A101A01B17
:10166400A10308002100B701B70A3408AB0033080E
:10167400AA00AC018B31B3238B312100AB1B0800D2
:101684000A30A2000030A300A4018C31AF248B31B6
:101694002100A31B0800B7010800F800F401F501BC
:1016A4007008F200F3017208F6007308F700781C62
:1016B4005F2B7608F4077708F53D0130F635F70D12
:1016C400890B602B0310F80C7808031D592B75083F
:1016D400F1007408F0000800483465346134723451
:1016E4007434203452346134743465343A342034DC
:1016F4000034443469347334743461346E34633480
:1017040065343A34203400345334703465346534E9
:1017140064343A3420340034083023009F0080308D
:101724009D0024309E00A0309B0001309C000030BE
:101734002100A0000030A1008A3162228B310030E8
:101744002100A0000030A1008A316B228B310030CF
:101754002100A0000030A1008A3159222000CE01CE
:1017640008002100B101B2012A08310784002B08C6
:10177400323D85000008AD002D08B0003008031983
:10178400D72B3008AD00AE012D08A2002E08A3000F
:101794002C08AF002F08A4008C31AF248B3101300A
:1017A4002100B1070030B23DB62B3208AB0031083E
:1017B400AA0008000030FC000030FB000030FA00F2
:1017C4000030F9002000261CEF2B2A08F9072B080B
:1017D400FA3D2C08FB3D2D08FC3D0130AA35AB0D2C
:1017E400AC0DAD0D890BF02B0130A936A80CA70C5C
:1017F400A60C890BF72B2908280427042604031DAB
:10180400E42B7C08A9007B08A8007A08A7007908C3
:10181400A600080022008C018D018E0137302100C2
:101824008C0070308D00FF308E004F3023008E000E
:1018340070308D0017308C0024008D018C018E01D6
:101844002100951725008C018D018E01373026006B
:101854008C00F0308D00FF308E0027009913981310
:101864009717FC302100A0000730A1008A317422B0
:101874008B1512303D009F0008002200E50061082E
:10188400E7006008E6002000CA01CB0122006608D8
:1018940084006708850012000319692C6630E30090
:1018A40063082100DA0022006208E40064082100D1
:1018B400DB0022006508853195258C3121005A080A
:1018C4002000CA0721005B082000CB3D482C2000E3
:1018D4004B082200E10020004A082200E000080032
:1018E4002100A4008731ED278C31003A0319742CB0
:1018F400FE308A3190228C31A0300032890B7F2C4B
:10190400972C2108803E8A31902208002108C03E8D
:101914008A31902208002108943E8A3190220800DE
:101924002108D43E8A319022080021002408A20014
:10193400A3012308003A0319A02CAE2C2208013A73
:101944000319832C033A0319882C013A03198D2CAB
:10195400073A0319922CAE2C080021002408031D19
:101964002408031DBA2C22088A3138228C31E62C33
:101974002408033E86008701160001040319DD2CA8
:101984002408033E86008701403FA500413FA6008E
:10199400240A86008701403FA700413FA800280889
:1019A400803AA9002608803A2902031DDB2C250869
:1019B40027020318E62C2100240A8600870101303F
:1019C400810741310318810A21002208A500A601DC
:1019D4002508A2002608A30008008A319A228C3127
:1019E40086302100A0000A30A1008A317D228C318A
:1019F40087302100A0000E30A1008A3174228C317E
:101A04008A3151228C312100A10101308C317224A0
:101A14008C3158308A31D5228C312100A101023019
:101A24008C3172248C314D308A31D5228C31210095
:101A3400A10103308C3172248C3140308A31D5229B
:101A44008C312100A10104308C3172248C318B172C
:101A54000B170A302300A40024082100A100013040
:101A64008C3172248C3100302200E8009030E9007F
:101A7400200045082200ED00200044082200EC006C
:101A8400200043082200EB00200042082200EA0064
:101A94008A31C1228C310B302300A4002408210098
:101AA400A10002308C3172248C310E302200E80007
:101AB4009030E900200041082200ED002000400899
:101AC4002200EC0020003F082200EB0020003E082A
:101AD4002200EA008A31C1228C312B2D2000A10181
:101AE400F31F812DF009F109F209F309F00A031932
:101AF400F10A0319F20A0319F30AA101A10AF71F53
:101B0400922DF409F509F609F709F40A0319F50AFF
:101B14000319F60A0319F70A0130F8007808A10638
:101B24000030A5000030A4000030A3000030A20063
:101B340073087204710470040319DB2DA001A00A58
:101B4400F31BB02D0130F035F10DF20DF30D890BBF
:101B5400A52D0130F8007808A007A22D0130A23588
:101B6400A30DA40DA50D890BB12D73087702031DD8
:101B7400C52D72087602031DC52D71087502031D5B
:101B8400C52D70087402031CD02D7008F40271086E
:101B9400F53B7208F63B7308F73B22140130F33629
:101BA400F20CF10CF00C890BD12D0130A002031DB5
:101BB400B02D21080319E92DA209A309A409A50937
:101BC400A20A0319A30A0319A40A0319A50A2508DA
:101BD400F3002408F2002308F1002208F0000800B2
:101BE400F8007808031DF31F072E7009FA00710925
:101BF400FB007209FC007309FD00FA0A0319FB0AD1
:101C04000319FC0A0319FD0A0F2E7308FD0072085C
:101C1400FC007108FB007008FA0073087204710478
:101C24007004031D1E2E0030F3000030F20000305B
:101C3400F1000030F00008009630F4007408F90058
:101C4400FE307D050319452E0130F4007408F907B0
:101C54000130FD36FC0CFB0CFA0C890B2B2E222ECA
:101C64000130F4007408F9070130FA070030FB3D35
:101C74000030FC3D0030FD3D0130FD36FC0CFB0C1A
:101C8400FA0C890B3F2EFF307D050319572E322E97
:101C940002307902031C592E0130F9020130FA3561
:101CA400FB0DFC0DFD0D890B512EFC1F4A2E7918DE
:101CB400632EFF30FA05FF30FB057F30FC05FF3053
:101CC400FD050310F90C7908F400F501F601F7019C
:101CD4001830F435F50DF60DF70D890B6B2E7408DD
:101CE400FA047508FB047608FC047708FD047808F8
:101CF400031DF31F7E2EFD177D08F3007C08F20000
:101D04007B08F1007A08F00008000030F30000308E
:101D1400F2000330F100E830F00020004908F70039
:101D24004808F6004708F5004608F4008D31702590
:101D34008E3173082000A9007208A8007108A7005A
:101D44007008A6000030AD000030AC000030AB00DD
:101D54003C30AA008B31DC238E3120002908D200CC
:101D64002808D1002708D0002608CF004030A3005F
:101D74000630A2006630A1006630A0005208F300CD
:101D84005108F2005008F1004F08F00001308D3185
:101D9400F2258E3173082000A7007208A60071088E
:101DA400A5007008A40080313A208E312000230859
:101DB400BD002208BC002108BB002008BA003D3049
:101DC400A3007530A200C230A1008F30A0003D08EE
:101DD400A7003C08A6003B08A5003A08A4008031EF
:101DE4003A208E3120002308C5002208C4002108AF
:101DF400C3002008C2000030C9000030C800003011
:101E0400C7000030C6004030F3000630F2006630F0
:101E1400F1006630F0004108F7004008F6003F0882
:101E2400F5003E08F4008231662273082000C100E8
:101E34007208C0007108BF007008BE0008002100CD
:101E4400B201A830860000308700473FB000B01FC1
:101E54004D2F2100A809A909AA09AB09AC09AD09AC
:101E6400AE09AF09A80A031D4A2FA90A031D4A2F68
:101E7400AA0A031D4A2FAB0A031D4A2FAC0A031DED
:101E84004A2FAD0A031D4A2FAE0A031D4A2FAF0A7B
:101E94002100B201B20AA030860000308700473F1B
:101EA4002100B000B01F752F2100A009A109A209CB
:101EB400A309A409A509A609A709A00A031D752F4A
:101EC400A10A031D752FA20A031D752FA30A031D62
:101ED400752FA40A031D752FA50A031D752FA60AC5
:101EE400031D752FA70A21002008210422042304BE
:101EF40024042504260427040319CD2FB101B10AB3
:101F0400A71B912FA035A10DA20DA30DA40DA50D06
:101F1400A60DA70D0130B0003008B107822F2708A5
:101F24002F02031DAF2F26082E02031DAF2F2508F5
:101F34002D02031DAF2F24082C02031DAF2F2308ED
:101F44002B02031DAF2F22082A02031DAF2F2108E5
:101F54002902031DAF2F20082802031CC12F2008CB
:101F6400A8022108A93B2208AA3B2308AB3B24086A
:101F7400AC3B2508AD3B2608AE3B2708AF3BA73654
:101F8400A60CA50CA40CA30CA20CA10CA00C013053
:101F9400B102031D912F32080319EE2FA809A909D4
:101FA400AA09AB09AC09AD09AE09AF09A80A031D1A
:101FB400EE2FA90A031DEE2FAA0A031DEE2FAB0A6A
:101FC400031DEE2FAC0A031DEE2FAD0A031DEE2FE9
:101FD400AE0A031DEE2FAF0A21002808A00029082D
:101FE400A1002A08A2002B08A3002C08A4002D0895
:101FF400A5002E08A6002F08A700080020342034CE
:1020040020342534643420346B346D346834203403
:102014002034203420340034203420342034253437
:10202400643420346D342034203400347C342D3432
:02203400003476
:020000040001F9
:06000E00FC3FFF1E9F3FB6
:00000001FF
