:020000040000FA
:0400000080311C2807
:100008007E1480318B190B1C0D28823161228031BE
:100018001A280B1F1A282100101E1A282000101E4B
:100028001A286A088A0069080A0080317E100900C7
:1000380080311E283330840081308500A03086004E
:1000480000308700283082313822FC01D801D901DC
:10005800DA01DB01DC01DD01DE01DF01E001E101A4
:10006800E2017E10200080313928C030860000303F
:100078008700483084000030850008302000AF0039
:1000880016001A00AF0B4428A03086000030870005
:1000980030308400003085000D30AF0016001A00A3
:1000A800AF0B5228AD308600003087003D30840009
:1000B800003085000B30AF0016001A00AF0B602827
:1000C800B83086000030870050308400003085004A
:1000D8000830AF0016001A00AF0B6E2882311322C9
:1000E8008031823129228031F30100308131A6210B
:1000F800803148308131FE218031F3014030813137
:10010800A62180313D308131FE218031F301143048
:100118008131A621803130308131FE218031F301D7
:1001280054308131A621803150308131FE21803117
:100138009C287608031D7608031DA72874088231B9
:1001480056228031D2287608033E860087011600A1
:1001580001040319CA287608033E86008701403F38
:10016800F700413FF800760A86008701403FF90012
:10017800413FFA007A08803AFB007808803A7B020F
:10018800031DC828770879020318D228760A860042
:1001980087010130810741310318810A7408F7008B
:1001A800F8017708F4007808F5000800210010121B
:1001B800C630F1000130F20082313E228031093030
:1001C80023009F0080309D0024309E000C309B004F
:1001D8009C010030F1000030F20082314A22803167
:1001E8000030F1000030F2008231442280310030CA
:1001F800F1000030F200823150222000E101FC01C0
:10020800E2010830F3007308EB0008002000A701A2
:10021800A8012008270784002108283D8500000838
:10022800A3002308A600260803192E292608A300E0
:10023800A4012308F4002408F5002208A5002508D5
:10024800F60080319D20813101302000A707003061
:10025800A83D0D292808A1002708A0000800483457
:1002680065346134723474342034523461347434F3
:1002780065343A3420340034443469347334743483
:1002880061346E34633465343A3420340034543481
:1002980069346D34653472343A342034003453345C
:1002A80070346534653464343A34203400342200C0
:1002B8008C018D018E01373021008C0070308D004B
:1002C800DF308E00CF3023008E0070308D00173065
:1002D8008C0024008D018C018E01210095172500CA
:1002E8008C018D018E01373026008C00F0308D0096
:1002F800FF308E008B1512303D009F000800F20081
:1003080020006B08031984292100101A8F2972080C
:1003180023009A00A32910127208F1007C08583EA5
:1003280086008701710881000130F1007108FC071F
:1003380008307C020318FC0101302000EB02210088
:1003480010160800F40082315E228131003A031948
:10035800A729FE308131832181310830890BB229E8
:10036800000082315E228131003A0319B5297408F0
:100378007307803E8131832181310830890BC2297E
:1003880000000800083020006B020318E02962080A
:10039800583E86008701010823009A000130F000CA
:1003A80070082000E207083062020318E2010130F9
:1003B800F0007008EB070800210010120800200068
:1003C800AD01AD0A2A08A1002908A000A2018131C7
:1003D8000A2181312000A11B08000A30F4000030F6
:1003E800F500F60180319D208131F51B08002000C1
:1003F800AD0108002000AE0082315E228131003A52
:100408000319002A20002E08A9000030AA00813113
:10041800E32181310830890B0F2A0000080081315F
:100428005B21823182313122823182311F22823135
:100438008031DA20080021001508C0393F389500BE
:1004480020009501E0010B1108005B302000A90095
:100458008230AA008131E32108005230210099003E
:100468009801220096010800FE0012001E00FE0BF3
:10047800392A003472082000EA007108E9000800EF
:1004880072082000E6007108E500080072082000E4
:10049800E8007108E700080072082000E40071080D
:1004A800E3000800F30073088131832108007C34DD
:0C04B8002D34003420006B080800080000
:020000040001F9
:06000E00FC3FFF1E9F3FB6
:00000001FF
