:020000040000FA
:08000000803102288731F12F45
:100D5600F10071088631CF26080071082000BD0019
:100D66007008BC00080071082000C1007008C000AF
:100D7600080071082000BF007008BE000800FE00D1
:100D860012001E00FE0BC32E0034523021009900C3
:100D96009801220096010800F0002000101ED02EB7
:100DA600700823009A00080000302000A600883052
:100DB600A70087310F270800533470346534653433
:100DC60064343A34203400348731642786318631DE
:100DD600C8268631873143270800F0012000101EFF
:100DE600F92E23009E1EF92EF001F00A7008080065
:100DF600FD008631F0268631003A0319FC2E7D0867
:100E06002000A6000030A70087310F278631083062
:100E1600890B0B2F000008002000AA01AA0A270848
:100E2600FB002608FA00FC0187318B278731FB1B64
:100E360008000A30F2000030F300F4018731B427CD
:100E46008731F31B08002000AA0108003430860011
:100E5600003087002C3084000030850008302000E8
:100E6600AB0016001A00AB0B342F8631E72687310C
:100E76008631D72687312C308631FB268731422FA3
:100E8600093023009F0080309D0024309E000C30E6
:100E96009B009C010030F0000030F1008631B62640
:100EA60087310030F0000030F1008631BC268731F2
:100EB6000030F0000030F1008631B0262000C2017B
:100EC600080022008C018D018E01373021008C0034
:100ED60070308D00DF308E00CF3023008E007030F2
:100EE6008D0017308C0024008D018C018E012100AD
:100EF600951725008C018D018E01373026008C0058
:100F0600F0308D00FF308E0012303D009F0008004B
:100F16002000A401A5017A08240784007B08253D4A
:100F260085000008A0002008A30023080319AF2F9E
:100F36002308A000A1012008F2002108F3007C0884
:100F4600A2002208F4008731B4278731013020003F
:100F5600A4070030A53D8E2F2508FB002408FA00C3
:100F660008007408031D7408031DBE2F720886311D
:100F7600AB268731E92F7408033E860087011600E9
:100F860001040319E12F7408033E86008701403FE0
:100F9600F500413FF600740A86008701403FF700DE
:100FA600413FF8007808803AF9007608803A7902DD
:100FB600031DDF2F750877020318E92F740A8600D0
:100FC60087010130810741310318810A7208F50053
:100FD600F6017508F2007608F3000800DF30840099
:100FE6008630850034308600003087000830863130
:100FF600C226C20120008731292F7C342D340034CB
:020000040001F9
:06000E00FC3FFF1E9F3FB6
:00000001FF
